{
  "contractName": "Staking",
  "abi": [
    {
      "inputs": [],
      "stateMutability": "payable",
      "type": "constructor",
      "payable": true
    },
    {
      "inputs": [],
      "name": "currentPositionId",
      "outputs": [
        {
          "internalType": "uint256",
          "name": "",
          "type": "uint256"
        }
      ],
      "stateMutability": "view",
      "type": "function",
      "constant": true
    },
    {
      "inputs": [
        {
          "internalType": "uint256",
          "name": "",
          "type": "uint256"
        }
      ],
      "name": "lockPeriods",
      "outputs": [
        {
          "internalType": "uint256",
          "name": "",
          "type": "uint256"
        }
      ],
      "stateMutability": "view",
      "type": "function",
      "constant": true
    },
    {
      "inputs": [],
      "name": "owner",
      "outputs": [
        {
          "internalType": "address",
          "name": "",
          "type": "address"
        }
      ],
      "stateMutability": "view",
      "type": "function",
      "constant": true
    },
    {
      "inputs": [
        {
          "internalType": "address",
          "name": "",
          "type": "address"
        },
        {
          "internalType": "uint256",
          "name": "",
          "type": "uint256"
        }
      ],
      "name": "positionIdsByAddress",
      "outputs": [
        {
          "internalType": "uint256",
          "name": "",
          "type": "uint256"
        }
      ],
      "stateMutability": "view",
      "type": "function",
      "constant": true
    },
    {
      "inputs": [
        {
          "internalType": "uint256",
          "name": "",
          "type": "uint256"
        }
      ],
      "name": "positions",
      "outputs": [
        {
          "internalType": "uint256",
          "name": "positionId",
          "type": "uint256"
        },
        {
          "internalType": "address",
          "name": "walletAddress",
          "type": "address"
        },
        {
          "internalType": "uint256",
          "name": "createdDate",
          "type": "uint256"
        },
        {
          "internalType": "uint256",
          "name": "unlockDate",
          "type": "uint256"
        },
        {
          "internalType": "uint256",
          "name": "percentInterest",
          "type": "uint256"
        },
        {
          "internalType": "uint256",
          "name": "weiStaked",
          "type": "uint256"
        },
        {
          "internalType": "uint256",
          "name": "weiInterest",
          "type": "uint256"
        },
        {
          "internalType": "bool",
          "name": "open",
          "type": "bool"
        }
      ],
      "stateMutability": "view",
      "type": "function",
      "constant": true
    },
    {
      "inputs": [
        {
          "internalType": "uint256",
          "name": "",
          "type": "uint256"
        }
      ],
      "name": "tiers",
      "outputs": [
        {
          "internalType": "uint256",
          "name": "",
          "type": "uint256"
        }
      ],
      "stateMutability": "view",
      "type": "function",
      "constant": true
    },
    {
      "inputs": [
        {
          "internalType": "uint256",
          "name": "numDays",
          "type": "uint256"
        }
      ],
      "name": "stakeEther",
      "outputs": [],
      "stateMutability": "payable",
      "type": "function",
      "payable": true
    },
    {
      "inputs": [],
      "name": "getLockPeriods",
      "outputs": [
        {
          "internalType": "uint256[]",
          "name": "",
          "type": "uint256[]"
        }
      ],
      "stateMutability": "view",
      "type": "function",
      "constant": true
    },
    {
      "inputs": [
        {
          "internalType": "uint256",
          "name": "numDays",
          "type": "uint256"
        }
      ],
      "name": "getInterestRate",
      "outputs": [
        {
          "internalType": "uint256",
          "name": "",
          "type": "uint256"
        }
      ],
      "stateMutability": "view",
      "type": "function",
      "constant": true
    },
    {
      "inputs": [
        {
          "internalType": "uint256",
          "name": "positionId",
          "type": "uint256"
        }
      ],
      "name": "getPositionById",
      "outputs": [
        {
          "components": [
            {
              "internalType": "uint256",
              "name": "positionId",
              "type": "uint256"
            },
            {
              "internalType": "address",
              "name": "walletAddress",
              "type": "address"
            },
            {
              "internalType": "uint256",
              "name": "createdDate",
              "type": "uint256"
            },
            {
              "internalType": "uint256",
              "name": "unlockDate",
              "type": "uint256"
            },
            {
              "internalType": "uint256",
              "name": "percentInterest",
              "type": "uint256"
            },
            {
              "internalType": "uint256",
              "name": "weiStaked",
              "type": "uint256"
            },
            {
              "internalType": "uint256",
              "name": "weiInterest",
              "type": "uint256"
            },
            {
              "internalType": "bool",
              "name": "open",
              "type": "bool"
            }
          ],
          "internalType": "struct Staking.Position",
          "name": "",
          "type": "tuple"
        }
      ],
      "stateMutability": "view",
      "type": "function",
      "constant": true
    },
    {
      "inputs": [
        {
          "internalType": "address",
          "name": "walletAddress",
          "type": "address"
        }
      ],
      "name": "getPositionIdsForAddress",
      "outputs": [
        {
          "internalType": "uint256[]",
          "name": "",
          "type": "uint256[]"
        }
      ],
      "stateMutability": "view",
      "type": "function",
      "constant": true
    },
    {
      "inputs": [
        {
          "internalType": "uint256",
          "name": "positionId",
          "type": "uint256"
        }
      ],
      "name": "closePosition",
      "outputs": [],
      "stateMutability": "nonpayable",
      "type": "function"
    }
  ],
  "bytecode": "0x6080604052335f806101000a81548173ffffffffffffffffffffffffffffffffffffffff021916908373ffffffffffffffffffffffffffffffffffffffff1602179055505f6009819055506102bc600c5f8081526020019081526020015f2081905550610320600c5f601e81526020019081526020015f2081905550610384600c5f603c81526020019081526020015f20819055506104b0600c5f605a81526020019081526020015f2081905550600d5f908060018154018082558091505060019003905f5260205f20015f9091909190915055600d601e908060018154018082558091505060019003905f5260205f20015f9091909190915055600d603c908060018154018082558091505060019003905f5260205f20015f9091909190915055600d605a908060018154018082558091505060019003905f5260205f20015f909190919091505561108d806101555f395ff3fe6080604052600436106100a6575f3560e01c80634c8f2a78116100635780634c8f2a78146101ee5780638da5cb5b1461022a57806399fbab8814610254578063a126d60114610297578063b838ec86146102bf578063e4f90841146102fb576100a6565b8063039af9eb146100aa5780630c196a74146100e65780631131c8cd1461012257806340d98a441461014c57806341ee13be1461018857806345eae373146101b2575b5f80fd5b3480156100b5575f80fd5b506100d060048036038101906100cb9190610a68565b610317565b6040516100dd9190610aa2565b60405180910390f35b3480156100f1575f80fd5b5061010c60048036038101906101079190610a68565b61032c565b6040516101199190610aa2565b60405180910390f35b34801561012d575f80fd5b50610136610346565b6040516101439190610aa2565b60405180910390f35b348015610157575f80fd5b50610172600480360381019061016d9190610b15565b61034c565b60405161017f9190610bf7565b60405180910390f35b348015610193575f80fd5b5061019c6103df565b6040516101a99190610bf7565b60405180910390f35b3480156101bd575f80fd5b506101d860048036038101906101d39190610c17565b610435565b6040516101e59190610aa2565b60405180910390f35b3480156101f9575f80fd5b50610214600480360381019061020f9190610a68565b610460565b6040516102219190610aa2565b60405180910390f35b348015610235575f80fd5b5061023e610480565b60405161024b9190610c64565b60405180910390f35b34801561025f575f80fd5b5061027a60048036038101906102759190610a68565b6104a3565b60405161028e989796959493929190610c97565b60405180910390f35b3480156102a2575f80fd5b506102bd60048036038101906102b89190610a68565b610512565b005b3480156102ca575f80fd5b506102e560048036038101906102e09190610a68565b6106c4565b6040516102f29190610dd1565b60405180910390f35b61031560048036038101906103109190610a68565b61079a565b005b600c602052805f5260405f205f915090505481565b5f600c5f8381526020019081526020015f20549050919050565b60095481565b6060600b5f8373ffffffffffffffffffffffffffffffffffffffff1673ffffffffffffffffffffffffffffffffffffffff1681526020019081526020015f208054806020026020016040519081016040528092919081815260200182805480156103d357602002820191905f5260205f20905b8154815260200190600101908083116103bf575b50505050509050919050565b6060600d80548060200260200160405190810160405280929190818152602001828054801561042b57602002820191905f5260205f20905b815481526020019060010190808311610417575b5050505050905090565b600b602052815f5260405f20818154811061044e575f80fd5b905f5260205f20015f91509150505481565b600d818154811061046f575f80fd5b905f5260205f20015f915090505481565b5f8054906101000a900473ffffffffffffffffffffffffffffffffffffffff1681565b600a602052805f5260405f205f91509050805f015490806001015f9054906101000a900473ffffffffffffffffffffffffffffffffffffffff1690806002015490806003015490806004015490806005015490806006015490806007015f9054906101000a900460ff16905088565b3373ffffffffffffffffffffffffffffffffffffffff16600a5f8381526020019081526020015f206001015f9054906101000a900473ffffffffffffffffffffffffffffffffffffffff1673ffffffffffffffffffffffffffffffffffffffff16146105b3576040517f08c379a00000000000000000000000000000000000000000000000000000000081526004016105aa90610e6b565b60405180910390fd5b60011515600a5f8381526020019081526020015f206007015f9054906101000a900460ff1615151461061a576040517f08c379a000000000000000000000000000000000000000000000000000000000815260040161061190610ed3565b60405180910390fd5b5f600a5f8381526020019081526020015f206007015f6101000a81548160ff0219169083151502179055505f600a5f8381526020019081526020015f2060060154600a5f8481526020019081526020015f206005015461067a9190610f1e565b90503373ffffffffffffffffffffffffffffffffffffffff166108fc8290811502906040515f60405180830381858888f193505050501580156106bf573d5f803e3d5ffd5b505050565b6106cc6109dc565b600a5f8381526020019081526020015f20604051806101000160405290815f8201548152602001600182015f9054906101000a900473ffffffffffffffffffffffffffffffffffffffff1673ffffffffffffffffffffffffffffffffffffffff1673ffffffffffffffffffffffffffffffffffffffff1681526020016002820154815260200160038201548152602001600482015481526020016005820154815260200160068201548152602001600782015f9054906101000a900460ff1615151515815250509050919050565b5f600c5f8381526020019081526020015f2054116107ed576040517f08c379a00000000000000000000000000000000000000000000000000000000081526004016107e490610f9b565b60405180910390fd5b60405180610100016040528060095481526020013373ffffffffffffffffffffffffffffffffffffffff16815260200142815260200162015180836108329190610fb9565b4261083d9190610f1e565b8152602001600c5f8481526020019081526020015f2054815260200134815260200161087a600c5f8581526020019081526020015f2054346109ba565b815260200160011515815250600a5f60095481526020019081526020015f205f820151815f01556020820151816001015f6101000a81548173ffffffffffffffffffffffffffffffffffffffff021916908373ffffffffffffffffffffffffffffffffffffffff16021790555060408201518160020155606082015181600301556080820151816004015560a0820151816005015560c0820151816006015560e0820151816007015f6101000a81548160ff021916908315150217905550905050600b5f3373ffffffffffffffffffffffffffffffffffffffff1673ffffffffffffffffffffffffffffffffffffffff1681526020019081526020015f20600954908060018154018082558091505060019003905f5260205f20015f9091909190915055600160095f8282546109b09190610f1e565b9250508190555050565b5f61271082846109ca9190610fb9565b6109d49190611027565b905092915050565b6040518061010001604052805f81526020015f73ffffffffffffffffffffffffffffffffffffffff1681526020015f81526020015f81526020015f81526020015f81526020015f81526020015f151581525090565b5f80fd5b5f819050919050565b610a4781610a35565b8114610a51575f80fd5b50565b5f81359050610a6281610a3e565b92915050565b5f60208284031215610a7d57610a7c610a31565b5b5f610a8a84828501610a54565b91505092915050565b610a9c81610a35565b82525050565b5f602082019050610ab55f830184610a93565b92915050565b5f73ffffffffffffffffffffffffffffffffffffffff82169050919050565b5f610ae482610abb565b9050919050565b610af481610ada565b8114610afe575f80fd5b50565b5f81359050610b0f81610aeb565b92915050565b5f60208284031215610b2a57610b29610a31565b5b5f610b3784828501610b01565b91505092915050565b5f81519050919050565b5f82825260208201905092915050565b5f819050602082019050919050565b610b7281610a35565b82525050565b5f610b838383610b69565b60208301905092915050565b5f602082019050919050565b5f610ba582610b40565b610baf8185610b4a565b9350610bba83610b5a565b805f5b83811015610bea578151610bd18882610b78565b9750610bdc83610b8f565b925050600181019050610bbd565b5085935050505092915050565b5f6020820190508181035f830152610c0f8184610b9b565b905092915050565b5f8060408385031215610c2d57610c2c610a31565b5b5f610c3a85828601610b01565b9250506020610c4b85828601610a54565b9150509250929050565b610c5e81610ada565b82525050565b5f602082019050610c775f830184610c55565b92915050565b5f8115159050919050565b610c9181610c7d565b82525050565b5f61010082019050610cab5f83018b610a93565b610cb8602083018a610c55565b610cc56040830189610a93565b610cd26060830188610a93565b610cdf6080830187610a93565b610cec60a0830186610a93565b610cf960c0830185610a93565b610d0660e0830184610c88565b9998505050505050505050565b610d1c81610ada565b82525050565b610d2b81610c7d565b82525050565b61010082015f820151610d465f850182610b69565b506020820151610d596020850182610d13565b506040820151610d6c6040850182610b69565b506060820151610d7f6060850182610b69565b506080820151610d926080850182610b69565b5060a0820151610da560a0850182610b69565b5060c0820151610db860c0850182610b69565b5060e0820151610dcb60e0850182610d22565b50505050565b5f61010082019050610de55f830184610d31565b92915050565b5f82825260208201905092915050565b7f4f6e6c7920706f736974696f6e2063726561746f72206d6179206d6f646966795f8201527f20706f736974696f6e0000000000000000000000000000000000000000000000602082015250565b5f610e55602983610deb565b9150610e6082610dfb565b604082019050919050565b5f6020820190508181035f830152610e8281610e49565b9050919050565b7f506f736974696f6e20697320636c6f73656400000000000000000000000000005f82015250565b5f610ebd601283610deb565b9150610ec882610e89565b602082019050919050565b5f6020820190508181035f830152610eea81610eb1565b9050919050565b7f4e487b71000000000000000000000000000000000000000000000000000000005f52601160045260245ffd5b5f610f2882610a35565b9150610f3383610a35565b9250828201905080821115610f4b57610f4a610ef1565b5b92915050565b7f4d617070696e67206e6f7420666f756e640000000000000000000000000000005f82015250565b5f610f85601183610deb565b9150610f9082610f51565b602082019050919050565b5f6020820190508181035f830152610fb281610f79565b9050919050565b5f610fc382610a35565b9150610fce83610a35565b9250828202610fdc81610a35565b91508282048414831517610ff357610ff2610ef1565b5b5092915050565b7f4e487b71000000000000000000000000000000000000000000000000000000005f52601260045260245ffd5b5f61103182610a35565b915061103c83610a35565b92508261104c5761104b610ffa565b5b82820490509291505056fea2646970667358221220e63c916c49a85b4544cf4e52218e444654df5a704ab9c57bbfa6b3270801369364736f6c63430008150033",
  "immutableReferences": {},
  "source": "// SPDX-License-Identifier: MIT\r\n\r\npragma solidity 0.8.21;\r\n\r\ncontract Staking {\r\n    address public owner;\r\n\r\n    struct Position {\r\n        uint256 positionId;\r\n        address walletAddress;\r\n        uint256 createdDate;\r\n        uint256 unlockDate;\r\n        uint256 percentInterest;\r\n        uint256 weiStaked;\r\n        uint256 weiInterest;\r\n        bool open;\r\n    }\r\n\r\n    Position position;\r\n\r\n    uint256 public currentPositionId;\r\n    mapping(uint256 => Position) public positions;\r\n    mapping(address => uint256[]) public positionIdsByAddress;\r\n    mapping(uint256 => uint256) public tiers;\r\n    uint256[] public lockPeriods;\r\n\r\n    constructor() payable {\r\n        owner = msg.sender;\r\n        currentPositionId = 0;\r\n\r\n        tiers[0] = 700;\r\n        tiers[30] = 800;\r\n        tiers[60] = 900;\r\n        tiers[90] = 1200;\r\n\r\n        lockPeriods.push(0);\r\n        lockPeriods.push(30);\r\n        lockPeriods.push(60);\r\n        lockPeriods.push(90);\r\n    }\r\n\r\n    function stakeEther(uint256 numDays) external payable {\r\n        require(tiers[numDays] > 0, \"Mapping not found\");\r\n\r\n        positions[currentPositionId] = Position({\r\n            positionId: currentPositionId,\r\n            walletAddress: msg.sender,\r\n            createdDate: block.timestamp,\r\n            unlockDate: block.timestamp + (numDays * 1 days),\r\n            percentInterest: tiers[numDays],\r\n            weiStaked: msg.value,\r\n            weiInterest: calculateInterest(tiers[numDays], msg.value),\r\n            open: true\r\n        });\r\n\r\n        positionIdsByAddress[msg.sender].push(currentPositionId);\r\n\r\n        currentPositionId += 1;\r\n    }\r\n\r\n    function calculateInterest(\r\n        uint256 basicPoints,\r\n        uint256 weiAmount\r\n    ) private pure returns (uint256) {\r\n        return (basicPoints * weiAmount) / 10000;\r\n    }\r\n\r\n    function getLockPeriods() external view returns (uint256[] memory) {\r\n        return lockPeriods;\r\n    }\r\n\r\n    function getInterestRate(uint256 numDays) external view returns (uint256) {\r\n        return tiers[numDays];\r\n    }\r\n\r\n    function getPositionById(\r\n        uint256 positionId\r\n    ) external view returns (Position memory) {\r\n        return positions[positionId];\r\n    }\r\n\r\n    function getPositionIdsForAddress(\r\n        address walletAddress\r\n    ) external view returns (uint256[] memory) {\r\n        return positionIdsByAddress[walletAddress];\r\n    }\r\n\r\n    function closePosition(uint256 positionId) external {\r\n        require(\r\n            positions[positionId].walletAddress == msg.sender,\r\n            \"Only position creator may modify position\"\r\n        );\r\n        require(positions[positionId].open == true, \"Position is closed\");\r\n\r\n        positions[positionId].open = false;\r\n\r\n        uint256 amount = positions[positionId].weiStaked +\r\n            positions[positionId].weiInterest;\r\n\r\n        payable(msg.sender).transfer(amount);\r\n    }\r\n}\r\n",
  "sourcePath": "D:\\Web3-Sodidity-Ethereum\\staking-dApp\\truffle\\contracts\\Staking.sol",
  "compiler": {
    "name": "solc",
    "version": "0.8.21+commit.d9974bed.Emscripten.clang"
  },
  "schemaVersion": "3.4.16",
  "updatedAt": "2023-10-11T04:00:28.475Z",
  "networkType": "ethereum",
  "devdoc": {
    "kind": "dev",
    "methods": {},
    "version": 1
  },
  "userdoc": {
    "kind": "user",
    "methods": {},
    "version": 1
  }
}