{"abi":[{"inputs":[{"internalType":"uint256","name":"minimum","type":"uint256"},{"internalType":"address","name":"creator","type":"address"}],"stateMutability":"nonpayable","type":"constructor"},{"inputs":[{"internalType":"uint256","name":"index","type":"uint256"}],"name":"approveRequest","outputs":[],"stateMutability":"nonpayable","type":"function"},{"inputs":[{"internalType":"address","name":"","type":"address"}],"name":"approvers","outputs":[{"internalType":"bool","name":"","type":"bool"}],"stateMutability":"view","type":"function"},{"inputs":[],"name":"approversCount","outputs":[{"internalType":"uint256","name":"","type":"uint256"}],"stateMutability":"view","type":"function"},{"inputs":[],"name":"contribute","outputs":[],"stateMutability":"payable","type":"function"},{"inputs":[{"internalType":"string","name":"description","type":"string"},{"internalType":"uint256","name":"value","type":"uint256"},{"internalType":"address payable","name":"recipient","type":"address"}],"name":"createRequest","outputs":[],"stateMutability":"payable","type":"function"},{"inputs":[{"internalType":"uint256","name":"index","type":"uint256"}],"name":"finalizeRequest","outputs":[],"stateMutability":"nonpayable","type":"function"},{"inputs":[],"name":"getRequestsCount","outputs":[{"internalType":"uint256","name":"","type":"uint256"}],"stateMutability":"view","type":"function"},{"inputs":[],"name":"getSumary","outputs":[{"internalType":"uint256","name":"","type":"uint256"},{"internalType":"uint256","name":"","type":"uint256"},{"internalType":"uint256","name":"","type":"uint256"},{"internalType":"uint256","name":"","type":"uint256"},{"internalType":"address","name":"","type":"address"}],"stateMutability":"view","type":"function"},{"inputs":[],"name":"manager","outputs":[{"internalType":"address","name":"","type":"address"}],"stateMutability":"view","type":"function"},{"inputs":[],"name":"minimumContribution","outputs":[{"internalType":"uint256","name":"","type":"uint256"}],"stateMutability":"view","type":"function"},{"inputs":[{"internalType":"uint256","name":"","type":"uint256"}],"name":"requests","outputs":[{"internalType":"string","name":"description","type":"string"},{"internalType":"uint256","name":"value","type":"uint256"},{"internalType":"address","name":"recipient","type":"address"},{"internalType":"bool","name":"complete","type":"bool"},{"internalType":"uint256","name":"approvalCount","type":"uint256"}],"stateMutability":"view","type":"function"}],"devdoc":{"kind":"dev","methods":{},"version":1},"evm":{"assembly":"    /* \"Campaign.sol\":504:2726  contract Campaign {... */\n  mstore(0x40, 0x80)\n    /* \"Campaign.sol\":1019:1140  constructor(uint minimum, address creator) {... */\n  callvalue\n  dup1\n  iszero\n  tag_1\n  jumpi\n  0x00\n  dup1\n  revert\ntag_1:\n  pop\n  mload(0x40)\n  sub(codesize, bytecodeSize)\n  dup1\n  bytecodeSize\n  dup4\n  codecopy\n  dup2\n  dup2\n  add\n  0x40\n  mstore\n  dup2\n  add\n  swap1\n  tag_2\n  swap2\n  swap1\n  tag_3\n  jump\t// in\ntag_2:\n    /* \"Campaign.sol\":1083:1090  creator */\n  dup1\n    /* \"Campaign.sol\":1073:1080  manager */\n  0x01\n  0x00\n    /* \"Campaign.sol\":1073:1090  manager = creator */\n  0x0100\n  exp\n  dup2\n  sload\n  dup2\n  0xffffffffffffffffffffffffffffffffffffffff\n  mul\n  not\n  and\n  swap1\n  dup4\n  0xffffffffffffffffffffffffffffffffffffffff\n  and\n  mul\n  or\n  swap1\n  sstore\n  pop\n    /* \"Campaign.sol\":1125:1132  minimum */\n  dup2\n    /* \"Campaign.sol\":1103:1122  minimumContribution */\n  0x02\n    /* \"Campaign.sol\":1103:1132  minimumContribution = minimum */\n  dup2\n  swap1\n  sstore\n  pop\n    /* \"Campaign.sol\":1019:1140  constructor(uint minimum, address creator) {... */\n  pop\n  pop\n    /* \"Campaign.sol\":504:2726  contract Campaign {... */\n  jump(tag_6)\n    /* \"#utility.yul\":88:205   */\ntag_8:\n    /* \"#utility.yul\":197:198   */\n  0x00\n    /* \"#utility.yul\":194:195   */\n  dup1\n    /* \"#utility.yul\":187:199   */\n  revert\n    /* \"#utility.yul\":334:411   */\ntag_10:\n    /* \"#utility.yul\":371:378   */\n  0x00\n    /* \"#utility.yul\":400:405   */\n  dup2\n    /* \"#utility.yul\":389:405   */\n  swap1\n  pop\n    /* \"#utility.yul\":334:411   */\n  swap2\n  swap1\n  pop\n  jump\t// out\n    /* \"#utility.yul\":417:539   */\ntag_11:\n    /* \"#utility.yul\":490:514   */\n  tag_23\n    /* \"#utility.yul\":508:513   */\n  dup2\n    /* \"#utility.yul\":490:514   */\n  tag_10\n  jump\t// in\ntag_23:\n    /* \"#utility.yul\":483:488   */\n  dup2\n    /* \"#utility.yul\":480:515   */\n  eq\n    /* \"#utility.yul\":470:533   */\n  tag_24\n  jumpi\n    /* \"#utility.yul\":529:530   */\n  0x00\n    /* \"#utility.yul\":526:527   */\n  dup1\n    /* \"#utility.yul\":519:531   */\n  revert\n    /* \"#utility.yul\":470:533   */\ntag_24:\n    /* \"#utility.yul\":417:539   */\n  pop\n  jump\t// out\n    /* \"#utility.yul\":545:688   */\ntag_12:\n    /* \"#utility.yul\":602:607   */\n  0x00\n    /* \"#utility.yul\":633:639   */\n  dup2\n    /* \"#utility.yul\":627:640   */\n  mload\n    /* \"#utility.yul\":618:640   */\n  swap1\n  pop\n    /* \"#utility.yul\":649:682   */\n  tag_26\n    /* \"#utility.yul\":676:681   */\n  dup2\n    /* \"#utility.yul\":649:682   */\n  tag_11\n  jump\t// in\ntag_26:\n    /* \"#utility.yul\":545:688   */\n  swap3\n  swap2\n  pop\n  pop\n  jump\t// out\n    /* \"#utility.yul\":694:820   */\ntag_13:\n    /* \"#utility.yul\":731:738   */\n  0x00\n    /* \"#utility.yul\":771:813   */\n  0xffffffffffffffffffffffffffffffffffffffff\n    /* \"#utility.yul\":764:769   */\n  dup3\n    /* \"#utility.yul\":760:814   */\n  and\n    /* \"#utility.yul\":749:814   */\n  swap1\n  pop\n    /* \"#utility.yul\":694:820   */\n  swap2\n  swap1\n  pop\n  jump\t// out\n    /* \"#utility.yul\":826:922   */\ntag_14:\n    /* \"#utility.yul\":863:870   */\n  0x00\n    /* \"#utility.yul\":892:916   */\n  tag_29\n    /* \"#utility.yul\":910:915   */\n  dup3\n    /* \"#utility.yul\":892:916   */\n  tag_13\n  jump\t// in\ntag_29:\n    /* \"#utility.yul\":881:916   */\n  swap1\n  pop\n    /* \"#utility.yul\":826:922   */\n  swap2\n  swap1\n  pop\n  jump\t// out\n    /* \"#utility.yul\":928:1050   */\ntag_15:\n    /* \"#utility.yul\":1001:1025   */\n  tag_31\n    /* \"#utility.yul\":1019:1024   */\n  dup2\n    /* \"#utility.yul\":1001:1025   */\n  tag_14\n  jump\t// in\ntag_31:\n    /* \"#utility.yul\":994:999   */\n  dup2\n    /* \"#utility.yul\":991:1026   */\n  eq\n    /* \"#utility.yul\":981:1044   */\n  tag_32\n  jumpi\n    /* \"#utility.yul\":1040:1041   */\n  0x00\n    /* \"#utility.yul\":1037:1038   */\n  dup1\n    /* \"#utility.yul\":1030:1042   */\n  revert\n    /* \"#utility.yul\":981:1044   */\ntag_32:\n    /* \"#utility.yul\":928:1050   */\n  pop\n  jump\t// out\n    /* \"#utility.yul\":1056:1199   */\ntag_16:\n    /* \"#utility.yul\":1113:1118   */\n  0x00\n    /* \"#utility.yul\":1144:1150   */\n  dup2\n    /* \"#utility.yul\":1138:1151   */\n  mload\n    /* \"#utility.yul\":1129:1151   */\n  swap1\n  pop\n    /* \"#utility.yul\":1160:1193   */\n  tag_34\n    /* \"#utility.yul\":1187:1192   */\n  dup2\n    /* \"#utility.yul\":1160:1193   */\n  tag_15\n  jump\t// in\ntag_34:\n    /* \"#utility.yul\":1056:1199   */\n  swap3\n  swap2\n  pop\n  pop\n  jump\t// out\n    /* \"#utility.yul\":1205:1712   */\ntag_3:\n    /* \"#utility.yul\":1284:1290   */\n  0x00\n    /* \"#utility.yul\":1292:1298   */\n  dup1\n    /* \"#utility.yul\":1341:1343   */\n  0x40\n    /* \"#utility.yul\":1329:1338   */\n  dup4\n    /* \"#utility.yul\":1320:1327   */\n  dup6\n    /* \"#utility.yul\":1316:1339   */\n  sub\n    /* \"#utility.yul\":1312:1344   */\n  slt\n    /* \"#utility.yul\":1309:1428   */\n  iszero\n  tag_36\n  jumpi\n    /* \"#utility.yul\":1347:1426   */\n  tag_37\n  tag_8\n  jump\t// in\ntag_37:\n    /* \"#utility.yul\":1309:1428   */\ntag_36:\n    /* \"#utility.yul\":1467:1468   */\n  0x00\n    /* \"#utility.yul\":1492:1556   */\n  tag_38\n    /* \"#utility.yul\":1548:1555   */\n  dup6\n    /* \"#utility.yul\":1539:1545   */\n  dup3\n    /* \"#utility.yul\":1528:1537   */\n  dup7\n    /* \"#utility.yul\":1524:1546   */\n  add\n    /* \"#utility.yul\":1492:1556   */\n  tag_12\n  jump\t// in\ntag_38:\n    /* \"#utility.yul\":1482:1556   */\n  swap3\n  pop\n    /* \"#utility.yul\":1438:1566   */\n  pop\n    /* \"#utility.yul\":1605:1607   */\n  0x20\n    /* \"#utility.yul\":1631:1695   */\n  tag_39\n    /* \"#utility.yul\":1687:1694   */\n  dup6\n    /* \"#utility.yul\":1678:1684   */\n  dup3\n    /* \"#utility.yul\":1667:1676   */\n  dup7\n    /* \"#utility.yul\":1663:1685   */\n  add\n    /* \"#utility.yul\":1631:1695   */\n  tag_16\n  jump\t// in\ntag_39:\n    /* \"#utility.yul\":1621:1695   */\n  swap2\n  pop\n    /* \"#utility.yul\":1576:1705   */\n  pop\n    /* \"#utility.yul\":1205:1712   */\n  swap3\n  pop\n  swap3\n  swap1\n  pop\n  jump\t// out\n    /* \"Campaign.sol\":504:2726  contract Campaign {... */\ntag_6:\n  dataSize(sub_0)\n  dup1\n  dataOffset(sub_0)\n  0x00\n  codecopy\n  0x00\n  return\nstop\n\nsub_0: assembly {\n        /* \"Campaign.sol\":504:2726  contract Campaign {... */\n      mstore(0x40, 0x80)\n      jumpi(tag_1, lt(calldatasize, 0x04))\n      shr(0xe0, calldataload(0x00))\n      dup1\n      0x81d12c58\n      gt\n      tag_13\n      jumpi\n      dup1\n      0x81d12c58\n      eq\n      tag_7\n      jumpi\n      dup1\n      0x82fde093\n      eq\n      tag_8\n      jumpi\n      dup1\n      0x8a9cfd55\n      eq\n      tag_9\n      jumpi\n      dup1\n      0x937e09b1\n      eq\n      tag_10\n      jumpi\n      dup1\n      0xd7bb99ba\n      eq\n      tag_11\n      jumpi\n      dup1\n      0xd7d1bbdb\n      eq\n      tag_12\n      jumpi\n      jump(tag_1)\n    tag_13:\n      dup1\n      0x03441006\n      eq\n      tag_2\n      jumpi\n      dup1\n      0x0a144391\n      eq\n      tag_3\n      jumpi\n      dup1\n      0x3410452a\n      eq\n      tag_4\n      jumpi\n      dup1\n      0x481c6a75\n      eq\n      tag_5\n      jumpi\n      dup1\n      0x562a75d5\n      eq\n      tag_6\n      jumpi\n    tag_1:\n      0x00\n      dup1\n      revert\n        /* \"Campaign.sol\":2033:2348  function finalizeRequest(uint index) public restricted {... */\n    tag_2:\n      callvalue\n      dup1\n      iszero\n      tag_14\n      jumpi\n      0x00\n      dup1\n      revert\n    tag_14:\n      pop\n      tag_15\n      0x04\n      dup1\n      calldatasize\n      sub\n      dup2\n      add\n      swap1\n      tag_16\n      swap2\n      swap1\n      tag_17\n      jump\t// in\n    tag_16:\n      tag_18\n      jump\t// in\n    tag_15:\n      stop\n        /* \"Campaign.sol\":841:882  mapping(address => bool) public approvers */\n    tag_3:\n      callvalue\n      dup1\n      iszero\n      tag_19\n      jumpi\n      0x00\n      dup1\n      revert\n    tag_19:\n      pop\n      tag_20\n      0x04\n      dup1\n      calldatasize\n      sub\n      dup2\n      add\n      swap1\n      tag_21\n      swap2\n      swap1\n      tag_22\n      jump\t// in\n    tag_21:\n      tag_23\n      jump\t// in\n    tag_20:\n      mload(0x40)\n      tag_24\n      swap2\n      swap1\n      tag_25\n      jump\t// in\n    tag_24:\n      mload(0x40)\n      dup1\n      swap2\n      sub\n      swap1\n      return\n        /* \"Campaign.sol\":2627:2723  function getRequestsCount() public view returns (uint) {... */\n    tag_4:\n      callvalue\n      dup1\n      iszero\n      tag_26\n      jumpi\n      0x00\n      dup1\n      revert\n    tag_26:\n      pop\n      tag_27\n      tag_28\n      jump\t// in\n    tag_27:\n      mload(0x40)\n      tag_29\n      swap2\n      swap1\n      tag_30\n      jump\t// in\n    tag_29:\n      mload(0x40)\n      dup1\n      swap2\n      sub\n      swap1\n      return\n        /* \"Campaign.sol\":770:792  address public manager */\n    tag_5:\n      callvalue\n      dup1\n      iszero\n      tag_31\n      jumpi\n      0x00\n      dup1\n      revert\n    tag_31:\n      pop\n      tag_32\n      tag_33\n      jump\t// in\n    tag_32:\n      mload(0x40)\n      tag_34\n      swap2\n      swap1\n      tag_35\n      jump\t// in\n    tag_34:\n      mload(0x40)\n      dup1\n      swap2\n      sub\n      swap1\n      return\n        /* \"Campaign.sol\":2356:2619  function getSumary() public view returns (uint, uint, uint, uint, address) {... */\n    tag_6:\n      callvalue\n      dup1\n      iszero\n      tag_36\n      jumpi\n      0x00\n      dup1\n      revert\n    tag_36:\n      pop\n      tag_37\n      tag_38\n      jump\t// in\n    tag_37:\n      mload(0x40)\n      tag_39\n      swap6\n      swap5\n      swap4\n      swap3\n      swap2\n      swap1\n      tag_40\n      jump\t// in\n    tag_39:\n      mload(0x40)\n      dup1\n      swap2\n      sub\n      swap1\n      return\n        /* \"Campaign.sol\":736:761  Request[] public requests */\n    tag_7:\n      callvalue\n      dup1\n      iszero\n      tag_41\n      jumpi\n      0x00\n      dup1\n      revert\n    tag_41:\n      pop\n      tag_42\n      0x04\n      dup1\n      calldatasize\n      sub\n      dup2\n      add\n      swap1\n      tag_43\n      swap2\n      swap1\n      tag_17\n      jump\t// in\n    tag_43:\n      tag_44\n      jump\t// in\n    tag_42:\n      mload(0x40)\n      tag_45\n      swap6\n      swap5\n      swap4\n      swap3\n      swap2\n      swap1\n      tag_46\n      jump\t// in\n    tag_45:\n      mload(0x40)\n      dup1\n      swap2\n      sub\n      swap1\n      return\n        /* \"Campaign.sol\":891:917  uint public approversCount */\n    tag_8:\n      callvalue\n      dup1\n      iszero\n      tag_47\n      jumpi\n      0x00\n      dup1\n      revert\n    tag_47:\n      pop\n      tag_48\n      tag_49\n      jump\t// in\n    tag_48:\n      mload(0x40)\n      tag_50\n      swap2\n      swap1\n      tag_30\n      jump\t// in\n    tag_50:\n      mload(0x40)\n      dup1\n      swap2\n      sub\n      swap1\n      return\n        /* \"Campaign.sol\":1322:1738  function createRequest(... */\n    tag_9:\n      tag_51\n      0x04\n      dup1\n      calldatasize\n      sub\n      dup2\n      add\n      swap1\n      tag_52\n      swap2\n      swap1\n      tag_53\n      jump\t// in\n    tag_52:\n      tag_54\n      jump\t// in\n    tag_51:\n      stop\n        /* \"Campaign.sol\":801:832  uint public minimumContribution */\n    tag_10:\n      callvalue\n      dup1\n      iszero\n      tag_55\n      jumpi\n      0x00\n      dup1\n      revert\n    tag_55:\n      pop\n      tag_56\n      tag_57\n      jump\t// in\n    tag_56:\n      mload(0x40)\n      tag_58\n      swap2\n      swap1\n      tag_30\n      jump\t// in\n    tag_58:\n      mload(0x40)\n      dup1\n      swap2\n      sub\n      swap1\n      return\n        /* \"Campaign.sol\":1148:1314  function contribute() public payable {... */\n    tag_11:\n      tag_59\n      tag_60\n      jump\t// in\n    tag_59:\n      stop\n        /* \"Campaign.sol\":1746:2025  function approveRequest(uint index) public {... */\n    tag_12:\n      callvalue\n      dup1\n      iszero\n      tag_61\n      jumpi\n      0x00\n      dup1\n      revert\n    tag_61:\n      pop\n      tag_62\n      0x04\n      dup1\n      calldatasize\n      sub\n      dup2\n      add\n      swap1\n      tag_63\n      swap2\n      swap1\n      tag_17\n      jump\t// in\n    tag_63:\n      tag_64\n      jump\t// in\n    tag_62:\n      stop\n        /* \"Campaign.sol\":2033:2348  function finalizeRequest(uint index) public restricted {... */\n    tag_18:\n        /* \"Campaign.sol\":981:988  manager */\n      0x01\n      0x00\n      swap1\n      sload\n      swap1\n      0x0100\n      exp\n      swap1\n      div\n      0xffffffffffffffffffffffffffffffffffffffff\n      and\n        /* \"Campaign.sol\":967:988  msg.sender == manager */\n      0xffffffffffffffffffffffffffffffffffffffff\n      and\n        /* \"Campaign.sol\":967:977  msg.sender */\n      caller\n        /* \"Campaign.sol\":967:988  msg.sender == manager */\n      0xffffffffffffffffffffffffffffffffffffffff\n      and\n      eq\n        /* \"Campaign.sol\":959:989  require(msg.sender == manager) */\n      tag_66\n      jumpi\n      0x00\n      dup1\n      revert\n    tag_66:\n        /* \"Campaign.sol\":2099:2122  Request storage request */\n      0x00\n        /* \"Campaign.sol\":2125:2133  requests */\n      dup1\n        /* \"Campaign.sol\":2134:2139  index */\n      dup3\n        /* \"Campaign.sol\":2125:2140  requests[index] */\n      dup2\n      sload\n      dup2\n      lt\n      tag_68\n      jumpi\n      tag_69\n      tag_70\n      jump\t// in\n    tag_69:\n    tag_68:\n      swap1\n      0x00\n      mstore\n      keccak256(0x00, 0x20)\n      swap1\n      0x05\n      mul\n      add\n        /* \"Campaign.sol\":2099:2140  Request storage request = requests[index] */\n      swap1\n      pop\n        /* \"Campaign.sol\":2203:2204  2 */\n      0x02\n        /* \"Campaign.sol\":2186:2200  approversCount */\n      sload(0x04)\n        /* \"Campaign.sol\":2186:2204  approversCount / 2 */\n      tag_72\n      swap2\n      swap1\n      tag_73\n      jump\t// in\n    tag_72:\n        /* \"Campaign.sol\":2161:2168  request */\n      dup2\n        /* \"Campaign.sol\":2161:2182  request.approvalCount */\n      0x03\n      add\n      sload\n        /* \"Campaign.sol\":2161:2205  request.approvalCount > (approversCount / 2) */\n      gt\n        /* \"Campaign.sol\":2153:2206  require(request.approvalCount > (approversCount / 2)) */\n      tag_74\n      jumpi\n      0x00\n      dup1\n      revert\n    tag_74:\n        /* \"Campaign.sol\":2226:2233  request */\n      dup1\n        /* \"Campaign.sol\":2226:2242  request.complete */\n      0x02\n      add\n      0x14\n      swap1\n      sload\n      swap1\n      0x0100\n      exp\n      swap1\n      div\n      0xff\n      and\n        /* \"Campaign.sol\":2225:2242  !request.complete */\n      iszero\n        /* \"Campaign.sol\":2217:2243  require(!request.complete) */\n      tag_75\n      jumpi\n      0x00\n      dup1\n      revert\n    tag_75:\n        /* \"Campaign.sol\":2264:2271  request */\n      dup1\n        /* \"Campaign.sol\":2264:2281  request.recipient */\n      0x02\n      add\n      0x00\n      swap1\n      sload\n      swap1\n      0x0100\n      exp\n      swap1\n      div\n      0xffffffffffffffffffffffffffffffffffffffff\n      and\n        /* \"Campaign.sol\":2256:2291  payable(request.recipient).transfer */\n      0xffffffffffffffffffffffffffffffffffffffff\n      and\n        /* \"Campaign.sol\":2256:2306  payable(request.recipient).transfer(request.value) */\n      0x08fc\n        /* \"Campaign.sol\":2292:2299  request */\n      dup3\n        /* \"Campaign.sol\":2292:2305  request.value */\n      0x01\n      add\n      sload\n        /* \"Campaign.sol\":2256:2306  payable(request.recipient).transfer(request.value) */\n      swap1\n      dup2\n      iszero\n      mul\n      swap1\n      mload(0x40)\n      0x00\n      mload(0x40)\n      dup1\n      dup4\n      sub\n      dup2\n      dup6\n      dup9\n      dup9\n      call\n      swap4\n      pop\n      pop\n      pop\n      pop\n      iszero\n      dup1\n      iszero\n      tag_77\n      jumpi\n      returndatasize\n      0x00\n      dup1\n      returndatacopy\n      revert(0x00, returndatasize)\n    tag_77:\n      pop\n        /* \"Campaign.sol\":2336:2340  true */\n      0x01\n        /* \"Campaign.sol\":2317:2324  request */\n      dup2\n        /* \"Campaign.sol\":2317:2333  request.complete */\n      0x02\n      add\n      0x14\n        /* \"Campaign.sol\":2317:2340  request.complete = true */\n      0x0100\n      exp\n      dup2\n      sload\n      dup2\n      0xff\n      mul\n      not\n      and\n      swap1\n      dup4\n      iszero\n      iszero\n      mul\n      or\n      swap1\n      sstore\n      pop\n        /* \"Campaign.sol\":2088:2348  {... */\n      pop\n        /* \"Campaign.sol\":2033:2348  function finalizeRequest(uint index) public restricted {... */\n      pop\n      jump\t// out\n        /* \"Campaign.sol\":841:882  mapping(address => bool) public approvers */\n    tag_23:\n      mstore(0x20, 0x03)\n      dup1\n      0x00\n      mstore\n      keccak256(0x00, 0x40)\n      0x00\n      swap2\n      pop\n      sload\n      swap1\n      0x0100\n      exp\n      swap1\n      div\n      0xff\n      and\n      dup2\n      jump\t// out\n        /* \"Campaign.sol\":2627:2723  function getRequestsCount() public view returns (uint) {... */\n    tag_28:\n        /* \"Campaign.sol\":2676:2680  uint */\n      0x00\n        /* \"Campaign.sol\":2700:2708  requests */\n      dup1\n        /* \"Campaign.sol\":2700:2715  requests.length */\n      dup1\n      sload\n      swap1\n      pop\n        /* \"Campaign.sol\":2693:2715  return requests.length */\n      swap1\n      pop\n        /* \"Campaign.sol\":2627:2723  function getRequestsCount() public view returns (uint) {... */\n      swap1\n      jump\t// out\n        /* \"Campaign.sol\":770:792  address public manager */\n    tag_33:\n      0x01\n      0x00\n      swap1\n      sload\n      swap1\n      0x0100\n      exp\n      swap1\n      div\n      0xffffffffffffffffffffffffffffffffffffffff\n      and\n      dup2\n      jump\t// out\n        /* \"Campaign.sol\":2356:2619  function getSumary() public view returns (uint, uint, uint, uint, address) {... */\n    tag_38:\n        /* \"Campaign.sol\":2398:2402  uint */\n      0x00\n        /* \"Campaign.sol\":2404:2408  uint */\n      dup1\n        /* \"Campaign.sol\":2410:2414  uint */\n      0x00\n        /* \"Campaign.sol\":2416:2420  uint */\n      dup1\n        /* \"Campaign.sol\":2422:2429  address */\n      0x00\n        /* \"Campaign.sol\":2464:2483  minimumContribution */\n      sload(0x02)\n        /* \"Campaign.sol\":2498:2519  address(this).balance */\n      selfbalance\n        /* \"Campaign.sol\":2534:2542  requests */\n      0x00\n        /* \"Campaign.sol\":2534:2549  requests.length */\n      dup1\n      sload\n      swap1\n      pop\n        /* \"Campaign.sol\":2564:2578  approversCount */\n      sload(0x04)\n        /* \"Campaign.sol\":2593:2600  manager */\n      0x01\n      0x00\n      swap1\n      sload\n      swap1\n      0x0100\n      exp\n      swap1\n      div\n      0xffffffffffffffffffffffffffffffffffffffff\n      and\n        /* \"Campaign.sol\":2442:2611  return (... */\n      swap5\n      pop\n      swap5\n      pop\n      swap5\n      pop\n      swap5\n      pop\n      swap5\n      pop\n        /* \"Campaign.sol\":2356:2619  function getSumary() public view returns (uint, uint, uint, uint, address) {... */\n      swap1\n      swap2\n      swap3\n      swap4\n      swap5\n      jump\t// out\n        /* \"Campaign.sol\":736:761  Request[] public requests */\n    tag_44:\n      0x00\n      dup2\n      dup2\n      sload\n      dup2\n      lt\n      tag_80\n      jumpi\n      0x00\n      dup1\n      revert\n    tag_80:\n      swap1\n      0x00\n      mstore\n      keccak256(0x00, 0x20)\n      swap1\n      0x05\n      mul\n      add\n      0x00\n      swap2\n      pop\n      swap1\n      pop\n      dup1\n      0x00\n      add\n      dup1\n      sload\n      tag_82\n      swap1\n      tag_83\n      jump\t// in\n    tag_82:\n      dup1\n      0x1f\n      add\n      0x20\n      dup1\n      swap2\n      div\n      mul\n      0x20\n      add\n      mload(0x40)\n      swap1\n      dup2\n      add\n      0x40\n      mstore\n      dup1\n      swap3\n      swap2\n      swap1\n      dup2\n      dup2\n      mstore\n      0x20\n      add\n      dup3\n      dup1\n      sload\n      tag_84\n      swap1\n      tag_83\n      jump\t// in\n    tag_84:\n      dup1\n      iszero\n      tag_85\n      jumpi\n      dup1\n      0x1f\n      lt\n      tag_86\n      jumpi\n      0x0100\n      dup1\n      dup4\n      sload\n      div\n      mul\n      dup4\n      mstore\n      swap2\n      0x20\n      add\n      swap2\n      jump(tag_85)\n    tag_86:\n      dup3\n      add\n      swap2\n      swap1\n      0x00\n      mstore\n      keccak256(0x00, 0x20)\n      swap1\n    tag_87:\n      dup2\n      sload\n      dup2\n      mstore\n      swap1\n      0x01\n      add\n      swap1\n      0x20\n      add\n      dup1\n      dup4\n      gt\n      tag_87\n      jumpi\n      dup3\n      swap1\n      sub\n      0x1f\n      and\n      dup3\n      add\n      swap2\n    tag_85:\n      pop\n      pop\n      pop\n      pop\n      pop\n      swap1\n      dup1\n      0x01\n      add\n      sload\n      swap1\n      dup1\n      0x02\n      add\n      0x00\n      swap1\n      sload\n      swap1\n      0x0100\n      exp\n      swap1\n      div\n      0xffffffffffffffffffffffffffffffffffffffff\n      and\n      swap1\n      dup1\n      0x02\n      add\n      0x14\n      swap1\n      sload\n      swap1\n      0x0100\n      exp\n      swap1\n      div\n      0xff\n      and\n      swap1\n      dup1\n      0x03\n      add\n      sload\n      swap1\n      pop\n      dup6\n      jump\t// out\n        /* \"Campaign.sol\":891:917  uint public approversCount */\n    tag_49:\n      sload(0x04)\n      dup2\n      jump\t// out\n        /* \"Campaign.sol\":1322:1738  function createRequest(... */\n    tag_54:\n        /* \"Campaign.sol\":981:988  manager */\n      0x01\n      0x00\n      swap1\n      sload\n      swap1\n      0x0100\n      exp\n      swap1\n      div\n      0xffffffffffffffffffffffffffffffffffffffff\n      and\n        /* \"Campaign.sol\":967:988  msg.sender == manager */\n      0xffffffffffffffffffffffffffffffffffffffff\n      and\n        /* \"Campaign.sol\":967:977  msg.sender */\n      caller\n        /* \"Campaign.sol\":967:988  msg.sender == manager */\n      0xffffffffffffffffffffffffffffffffffffffff\n      and\n      eq\n        /* \"Campaign.sol\":959:989  require(msg.sender == manager) */\n      tag_89\n      jumpi\n      0x00\n      dup1\n      revert\n    tag_89:\n        /* \"Campaign.sol\":1482:1508  Request storage newRequest */\n      0x00\n        /* \"Campaign.sol\":1511:1519  requests */\n      dup1\n        /* \"Campaign.sol\":1511:1526  requests.push() */\n      0x01\n      dup2\n      0x01\n      dup2\n      sload\n      add\n      dup1\n      dup3\n      sstore\n      dup1\n      swap2\n      pop\n      pop\n      sub\n      swap1\n      0x00\n      mstore\n      keccak256(0x00, 0x20)\n      swap1\n      0x05\n      mul\n      add\n        /* \"Campaign.sol\":1482:1526  Request storage newRequest = requests.push() */\n      swap1\n      pop\n        /* \"Campaign.sol\":1564:1575  description */\n      dup4\n        /* \"Campaign.sol\":1539:1549  newRequest */\n      dup2\n        /* \"Campaign.sol\":1539:1561  newRequest.description */\n      0x00\n      add\n        /* \"Campaign.sol\":1539:1575  newRequest.description = description */\n      swap1\n      dup2\n      tag_92\n      swap2\n      swap1\n      tag_93\n      jump\t// in\n    tag_92:\n      pop\n        /* \"Campaign.sol\":1605:1610  value */\n      dup3\n        /* \"Campaign.sol\":1586:1596  newRequest */\n      dup2\n        /* \"Campaign.sol\":1586:1602  newRequest.value */\n      0x01\n      add\n        /* \"Campaign.sol\":1586:1610  newRequest.value = value */\n      dup2\n      swap1\n      sstore\n      pop\n        /* \"Campaign.sol\":1644:1653  recipient */\n      dup2\n        /* \"Campaign.sol\":1621:1631  newRequest */\n      dup2\n        /* \"Campaign.sol\":1621:1641  newRequest.recipient */\n      0x02\n      add\n      0x00\n        /* \"Campaign.sol\":1621:1653  newRequest.recipient = recipient */\n      0x0100\n      exp\n      dup2\n      sload\n      dup2\n      0xffffffffffffffffffffffffffffffffffffffff\n      mul\n      not\n      and\n      swap1\n      dup4\n      0xffffffffffffffffffffffffffffffffffffffff\n      and\n      mul\n      or\n      swap1\n      sstore\n      pop\n        /* \"Campaign.sol\":1686:1691  false */\n      0x00\n        /* \"Campaign.sol\":1664:1674  newRequest */\n      dup2\n        /* \"Campaign.sol\":1664:1683  newRequest.complete */\n      0x02\n      add\n      0x14\n        /* \"Campaign.sol\":1664:1691  newRequest.complete = false */\n      0x0100\n      exp\n      dup2\n      sload\n      dup2\n      0xff\n      mul\n      not\n      and\n      swap1\n      dup4\n      iszero\n      iszero\n      mul\n      or\n      swap1\n      sstore\n      pop\n        /* \"Campaign.sol\":1729:1730  0 */\n      0x00\n        /* \"Campaign.sol\":1702:1712  newRequest */\n      dup2\n        /* \"Campaign.sol\":1702:1726  newRequest.approvalCount */\n      0x03\n      add\n        /* \"Campaign.sol\":1702:1730  newRequest.approvalCount = 0 */\n      dup2\n      swap1\n      sstore\n      pop\n        /* \"Campaign.sol\":1471:1738  {... */\n      pop\n        /* \"Campaign.sol\":1322:1738  function createRequest(... */\n      pop\n      pop\n      pop\n      jump\t// out\n        /* \"Campaign.sol\":801:832  uint public minimumContribution */\n    tag_57:\n      sload(0x02)\n      dup2\n      jump\t// out\n        /* \"Campaign.sol\":1148:1314  function contribute() public payable {... */\n    tag_60:\n        /* \"Campaign.sol\":1216:1235  minimumContribution */\n      sload(0x02)\n        /* \"Campaign.sol\":1204:1213  msg.value */\n      callvalue\n        /* \"Campaign.sol\":1204:1235  msg.value > minimumContribution */\n      gt\n        /* \"Campaign.sol\":1196:1236  require(msg.value > minimumContribution) */\n      tag_95\n      jumpi\n      0x00\n      dup1\n      revert\n    tag_95:\n        /* \"Campaign.sol\":1273:1277  true */\n      0x01\n        /* \"Campaign.sol\":1249:1258  approvers */\n      0x03\n        /* \"Campaign.sol\":1249:1270  approvers[msg.sender] */\n      0x00\n        /* \"Campaign.sol\":1259:1269  msg.sender */\n      caller\n        /* \"Campaign.sol\":1249:1270  approvers[msg.sender] */\n      0xffffffffffffffffffffffffffffffffffffffff\n      and\n      0xffffffffffffffffffffffffffffffffffffffff\n      and\n      dup2\n      mstore\n      0x20\n      add\n      swap1\n      dup2\n      mstore\n      0x20\n      add\n      0x00\n      keccak256\n      0x00\n        /* \"Campaign.sol\":1249:1277  approvers[msg.sender] = true */\n      0x0100\n      exp\n      dup2\n      sload\n      dup2\n      0xff\n      mul\n      not\n      and\n      swap1\n      dup4\n      iszero\n      iszero\n      mul\n      or\n      swap1\n      sstore\n      pop\n        /* \"Campaign.sol\":1290:1304  approversCount */\n      0x04\n      0x00\n        /* \"Campaign.sol\":1290:1306  approversCount++ */\n      dup2\n      sload\n      dup1\n      swap3\n      swap2\n      swap1\n      tag_96\n      swap1\n      tag_97\n      jump\t// in\n    tag_96:\n      swap2\n      swap1\n      pop\n      sstore\n      pop\n        /* \"Campaign.sol\":1148:1314  function contribute() public payable {... */\n      jump\t// out\n        /* \"Campaign.sol\":1746:2025  function approveRequest(uint index) public {... */\n    tag_64:\n        /* \"Campaign.sol\":1800:1823  Request storage request */\n      0x00\n        /* \"Campaign.sol\":1826:1834  requests */\n      dup1\n        /* \"Campaign.sol\":1835:1840  index */\n      dup3\n        /* \"Campaign.sol\":1826:1841  requests[index] */\n      dup2\n      sload\n      dup2\n      lt\n      tag_99\n      jumpi\n      tag_100\n      tag_70\n      jump\t// in\n    tag_100:\n    tag_99:\n      swap1\n      0x00\n      mstore\n      keccak256(0x00, 0x20)\n      swap1\n      0x05\n      mul\n      add\n        /* \"Campaign.sol\":1800:1841  Request storage request = requests[index] */\n      swap1\n      pop\n        /* \"Campaign.sol\":1862:1871  approvers */\n      0x03\n        /* \"Campaign.sol\":1862:1883  approvers[msg.sender] */\n      0x00\n        /* \"Campaign.sol\":1872:1882  msg.sender */\n      caller\n        /* \"Campaign.sol\":1862:1883  approvers[msg.sender] */\n      0xffffffffffffffffffffffffffffffffffffffff\n      and\n      0xffffffffffffffffffffffffffffffffffffffff\n      and\n      dup2\n      mstore\n      0x20\n      add\n      swap1\n      dup2\n      mstore\n      0x20\n      add\n      0x00\n      keccak256\n      0x00\n      swap1\n      sload\n      swap1\n      0x0100\n      exp\n      swap1\n      div\n      0xff\n      and\n        /* \"Campaign.sol\":1854:1884  require(approvers[msg.sender]) */\n      tag_102\n      jumpi\n      0x00\n      dup1\n      revert\n    tag_102:\n        /* \"Campaign.sol\":1904:1911  request */\n      dup1\n        /* \"Campaign.sol\":1904:1921  request.approvals */\n      0x04\n      add\n        /* \"Campaign.sol\":1904:1933  request.approvals[msg.sender] */\n      0x00\n        /* \"Campaign.sol\":1922:1932  msg.sender */\n      caller\n        /* \"Campaign.sol\":1904:1933  request.approvals[msg.sender] */\n      0xffffffffffffffffffffffffffffffffffffffff\n      and\n      0xffffffffffffffffffffffffffffffffffffffff\n      and\n      dup2\n      mstore\n      0x20\n      add\n      swap1\n      dup2\n      mstore\n      0x20\n      add\n      0x00\n      keccak256\n      0x00\n      swap1\n      sload\n      swap1\n      0x0100\n      exp\n      swap1\n      div\n      0xff\n      and\n        /* \"Campaign.sol\":1903:1933  !request.approvals[msg.sender] */\n      iszero\n        /* \"Campaign.sol\":1895:1934  require(!request.approvals[msg.sender]) */\n      tag_103\n      jumpi\n      0x00\n      dup1\n      revert\n    tag_103:\n        /* \"Campaign.sol\":1979:1983  true */\n      0x01\n        /* \"Campaign.sol\":1947:1954  request */\n      dup2\n        /* \"Campaign.sol\":1947:1964  request.approvals */\n      0x04\n      add\n        /* \"Campaign.sol\":1947:1976  request.approvals[msg.sender] */\n      0x00\n        /* \"Campaign.sol\":1965:1975  msg.sender */\n      caller\n        /* \"Campaign.sol\":1947:1976  request.approvals[msg.sender] */\n      0xffffffffffffffffffffffffffffffffffffffff\n      and\n      0xffffffffffffffffffffffffffffffffffffffff\n      and\n      dup2\n      mstore\n      0x20\n      add\n      swap1\n      dup2\n      mstore\n      0x20\n      add\n      0x00\n      keccak256\n      0x00\n        /* \"Campaign.sol\":1947:1983  request.approvals[msg.sender] = true */\n      0x0100\n      exp\n      dup2\n      sload\n      dup2\n      0xff\n      mul\n      not\n      and\n      swap1\n      dup4\n      iszero\n      iszero\n      mul\n      or\n      swap1\n      sstore\n      pop\n        /* \"Campaign.sol\":1994:2001  request */\n      dup1\n        /* \"Campaign.sol\":1994:2015  request.approvalCount */\n      0x03\n      add\n      0x00\n        /* \"Campaign.sol\":1994:2017  request.approvalCount++ */\n      dup2\n      sload\n      dup1\n      swap3\n      swap2\n      swap1\n      tag_104\n      swap1\n      tag_97\n      jump\t// in\n    tag_104:\n      swap2\n      swap1\n      pop\n      sstore\n      pop\n        /* \"Campaign.sol\":1789:2025  {... */\n      pop\n        /* \"Campaign.sol\":1746:2025  function approveRequest(uint index) public {... */\n      pop\n      jump\t// out\n        /* \"#utility.yul\":7:82   */\n    tag_105:\n        /* \"#utility.yul\":40:46   */\n      0x00\n        /* \"#utility.yul\":73:75   */\n      0x40\n        /* \"#utility.yul\":67:76   */\n      mload\n        /* \"#utility.yul\":57:76   */\n      swap1\n      pop\n        /* \"#utility.yul\":7:82   */\n      swap1\n      jump\t// out\n        /* \"#utility.yul\":88:205   */\n    tag_106:\n        /* \"#utility.yul\":197:198   */\n      0x00\n        /* \"#utility.yul\":194:195   */\n      dup1\n        /* \"#utility.yul\":187:199   */\n      revert\n        /* \"#utility.yul\":211:328   */\n    tag_107:\n        /* \"#utility.yul\":320:321   */\n      0x00\n        /* \"#utility.yul\":317:318   */\n      dup1\n        /* \"#utility.yul\":310:322   */\n      revert\n        /* \"#utility.yul\":334:411   */\n    tag_108:\n        /* \"#utility.yul\":371:378   */\n      0x00\n        /* \"#utility.yul\":400:405   */\n      dup2\n        /* \"#utility.yul\":389:405   */\n      swap1\n      pop\n        /* \"#utility.yul\":334:411   */\n      swap2\n      swap1\n      pop\n      jump\t// out\n        /* \"#utility.yul\":417:539   */\n    tag_109:\n        /* \"#utility.yul\":490:514   */\n      tag_160\n        /* \"#utility.yul\":508:513   */\n      dup2\n        /* \"#utility.yul\":490:514   */\n      tag_108\n      jump\t// in\n    tag_160:\n        /* \"#utility.yul\":483:488   */\n      dup2\n        /* \"#utility.yul\":480:515   */\n      eq\n        /* \"#utility.yul\":470:533   */\n      tag_161\n      jumpi\n        /* \"#utility.yul\":529:530   */\n      0x00\n        /* \"#utility.yul\":526:527   */\n      dup1\n        /* \"#utility.yul\":519:531   */\n      revert\n        /* \"#utility.yul\":470:533   */\n    tag_161:\n        /* \"#utility.yul\":417:539   */\n      pop\n      jump\t// out\n        /* \"#utility.yul\":545:684   */\n    tag_110:\n        /* \"#utility.yul\":591:596   */\n      0x00\n        /* \"#utility.yul\":629:635   */\n      dup2\n        /* \"#utility.yul\":616:636   */\n      calldataload\n        /* \"#utility.yul\":607:636   */\n      swap1\n      pop\n        /* \"#utility.yul\":645:678   */\n      tag_163\n        /* \"#utility.yul\":672:677   */\n      dup2\n        /* \"#utility.yul\":645:678   */\n      tag_109\n      jump\t// in\n    tag_163:\n        /* \"#utility.yul\":545:684   */\n      swap3\n      swap2\n      pop\n      pop\n      jump\t// out\n        /* \"#utility.yul\":690:1019   */\n    tag_17:\n        /* \"#utility.yul\":749:755   */\n      0x00\n        /* \"#utility.yul\":798:800   */\n      0x20\n        /* \"#utility.yul\":786:795   */\n      dup3\n        /* \"#utility.yul\":777:784   */\n      dup5\n        /* \"#utility.yul\":773:796   */\n      sub\n        /* \"#utility.yul\":769:801   */\n      slt\n        /* \"#utility.yul\":766:885   */\n      iszero\n      tag_165\n      jumpi\n        /* \"#utility.yul\":804:883   */\n      tag_166\n      tag_106\n      jump\t// in\n    tag_166:\n        /* \"#utility.yul\":766:885   */\n    tag_165:\n        /* \"#utility.yul\":924:925   */\n      0x00\n        /* \"#utility.yul\":949:1002   */\n      tag_167\n        /* \"#utility.yul\":994:1001   */\n      dup5\n        /* \"#utility.yul\":985:991   */\n      dup3\n        /* \"#utility.yul\":974:983   */\n      dup6\n        /* \"#utility.yul\":970:992   */\n      add\n        /* \"#utility.yul\":949:1002   */\n      tag_110\n      jump\t// in\n    tag_167:\n        /* \"#utility.yul\":939:1002   */\n      swap2\n      pop\n        /* \"#utility.yul\":895:1012   */\n      pop\n        /* \"#utility.yul\":690:1019   */\n      swap3\n      swap2\n      pop\n      pop\n      jump\t// out\n        /* \"#utility.yul\":1025:1151   */\n    tag_111:\n        /* \"#utility.yul\":1062:1069   */\n      0x00\n        /* \"#utility.yul\":1102:1144   */\n      0xffffffffffffffffffffffffffffffffffffffff\n        /* \"#utility.yul\":1095:1100   */\n      dup3\n        /* \"#utility.yul\":1091:1145   */\n      and\n        /* \"#utility.yul\":1080:1145   */\n      swap1\n      pop\n        /* \"#utility.yul\":1025:1151   */\n      swap2\n      swap1\n      pop\n      jump\t// out\n        /* \"#utility.yul\":1157:1253   */\n    tag_112:\n        /* \"#utility.yul\":1194:1201   */\n      0x00\n        /* \"#utility.yul\":1223:1247   */\n      tag_170\n        /* \"#utility.yul\":1241:1246   */\n      dup3\n        /* \"#utility.yul\":1223:1247   */\n      tag_111\n      jump\t// in\n    tag_170:\n        /* \"#utility.yul\":1212:1247   */\n      swap1\n      pop\n        /* \"#utility.yul\":1157:1253   */\n      swap2\n      swap1\n      pop\n      jump\t// out\n        /* \"#utility.yul\":1259:1381   */\n    tag_113:\n        /* \"#utility.yul\":1332:1356   */\n      tag_172\n        /* \"#utility.yul\":1350:1355   */\n      dup2\n        /* \"#utility.yul\":1332:1356   */\n      tag_112\n      jump\t// in\n    tag_172:\n        /* \"#utility.yul\":1325:1330   */\n      dup2\n        /* \"#utility.yul\":1322:1357   */\n      eq\n        /* \"#utility.yul\":1312:1375   */\n      tag_173\n      jumpi\n        /* \"#utility.yul\":1371:1372   */\n      0x00\n        /* \"#utility.yul\":1368:1369   */\n      dup1\n        /* \"#utility.yul\":1361:1373   */\n      revert\n        /* \"#utility.yul\":1312:1375   */\n    tag_173:\n        /* \"#utility.yul\":1259:1381   */\n      pop\n      jump\t// out\n        /* \"#utility.yul\":1387:1526   */\n    tag_114:\n        /* \"#utility.yul\":1433:1438   */\n      0x00\n        /* \"#utility.yul\":1471:1477   */\n      dup2\n        /* \"#utility.yul\":1458:1478   */\n      calldataload\n        /* \"#utility.yul\":1449:1478   */\n      swap1\n      pop\n        /* \"#utility.yul\":1487:1520   */\n      tag_175\n        /* \"#utility.yul\":1514:1519   */\n      dup2\n        /* \"#utility.yul\":1487:1520   */\n      tag_113\n      jump\t// in\n    tag_175:\n        /* \"#utility.yul\":1387:1526   */\n      swap3\n      swap2\n      pop\n      pop\n      jump\t// out\n        /* \"#utility.yul\":1532:1861   */\n    tag_22:\n        /* \"#utility.yul\":1591:1597   */\n      0x00\n        /* \"#utility.yul\":1640:1642   */\n      0x20\n        /* \"#utility.yul\":1628:1637   */\n      dup3\n        /* \"#utility.yul\":1619:1626   */\n      dup5\n        /* \"#utility.yul\":1615:1638   */\n      sub\n        /* \"#utility.yul\":1611:1643   */\n      slt\n        /* \"#utility.yul\":1608:1727   */\n      iszero\n      tag_177\n      jumpi\n        /* \"#utility.yul\":1646:1725   */\n      tag_178\n      tag_106\n      jump\t// in\n    tag_178:\n        /* \"#utility.yul\":1608:1727   */\n    tag_177:\n        /* \"#utility.yul\":1766:1767   */\n      0x00\n        /* \"#utility.yul\":1791:1844   */\n      tag_179\n        /* \"#utility.yul\":1836:1843   */\n      dup5\n        /* \"#utility.yul\":1827:1833   */\n      dup3\n        /* \"#utility.yul\":1816:1825   */\n      dup6\n        /* \"#utility.yul\":1812:1834   */\n      add\n        /* \"#utility.yul\":1791:1844   */\n      tag_114\n      jump\t// in\n    tag_179:\n        /* \"#utility.yul\":1781:1844   */\n      swap2\n      pop\n        /* \"#utility.yul\":1737:1854   */\n      pop\n        /* \"#utility.yul\":1532:1861   */\n      swap3\n      swap2\n      pop\n      pop\n      jump\t// out\n        /* \"#utility.yul\":1867:1957   */\n    tag_115:\n        /* \"#utility.yul\":1901:1908   */\n      0x00\n        /* \"#utility.yul\":1944:1949   */\n      dup2\n        /* \"#utility.yul\":1937:1950   */\n      iszero\n        /* \"#utility.yul\":1930:1951   */\n      iszero\n        /* \"#utility.yul\":1919:1951   */\n      swap1\n      pop\n        /* \"#utility.yul\":1867:1957   */\n      swap2\n      swap1\n      pop\n      jump\t// out\n        /* \"#utility.yul\":1963:2072   */\n    tag_116:\n        /* \"#utility.yul\":2044:2065   */\n      tag_182\n        /* \"#utility.yul\":2059:2064   */\n      dup2\n        /* \"#utility.yul\":2044:2065   */\n      tag_115\n      jump\t// in\n    tag_182:\n        /* \"#utility.yul\":2039:2042   */\n      dup3\n        /* \"#utility.yul\":2032:2066   */\n      mstore\n        /* \"#utility.yul\":1963:2072   */\n      pop\n      pop\n      jump\t// out\n        /* \"#utility.yul\":2078:2288   */\n    tag_25:\n        /* \"#utility.yul\":2165:2169   */\n      0x00\n        /* \"#utility.yul\":2203:2205   */\n      0x20\n        /* \"#utility.yul\":2192:2201   */\n      dup3\n        /* \"#utility.yul\":2188:2206   */\n      add\n        /* \"#utility.yul\":2180:2206   */\n      swap1\n      pop\n        /* \"#utility.yul\":2216:2281   */\n      tag_184\n        /* \"#utility.yul\":2278:2279   */\n      0x00\n        /* \"#utility.yul\":2267:2276   */\n      dup4\n        /* \"#utility.yul\":2263:2280   */\n      add\n        /* \"#utility.yul\":2254:2260   */\n      dup5\n        /* \"#utility.yul\":2216:2281   */\n      tag_116\n      jump\t// in\n    tag_184:\n        /* \"#utility.yul\":2078:2288   */\n      swap3\n      swap2\n      pop\n      pop\n      jump\t// out\n        /* \"#utility.yul\":2294:2412   */\n    tag_117:\n        /* \"#utility.yul\":2381:2405   */\n      tag_186\n        /* \"#utility.yul\":2399:2404   */\n      dup2\n        /* \"#utility.yul\":2381:2405   */\n      tag_108\n      jump\t// in\n    tag_186:\n        /* \"#utility.yul\":2376:2379   */\n      dup3\n        /* \"#utility.yul\":2369:2406   */\n      mstore\n        /* \"#utility.yul\":2294:2412   */\n      pop\n      pop\n      jump\t// out\n        /* \"#utility.yul\":2418:2640   */\n    tag_30:\n        /* \"#utility.yul\":2511:2515   */\n      0x00\n        /* \"#utility.yul\":2549:2551   */\n      0x20\n        /* \"#utility.yul\":2538:2547   */\n      dup3\n        /* \"#utility.yul\":2534:2552   */\n      add\n        /* \"#utility.yul\":2526:2552   */\n      swap1\n      pop\n        /* \"#utility.yul\":2562:2633   */\n      tag_188\n        /* \"#utility.yul\":2630:2631   */\n      0x00\n        /* \"#utility.yul\":2619:2628   */\n      dup4\n        /* \"#utility.yul\":2615:2632   */\n      add\n        /* \"#utility.yul\":2606:2612   */\n      dup5\n        /* \"#utility.yul\":2562:2633   */\n      tag_117\n      jump\t// in\n    tag_188:\n        /* \"#utility.yul\":2418:2640   */\n      swap3\n      swap2\n      pop\n      pop\n      jump\t// out\n        /* \"#utility.yul\":2646:2764   */\n    tag_118:\n        /* \"#utility.yul\":2733:2757   */\n      tag_190\n        /* \"#utility.yul\":2751:2756   */\n      dup2\n        /* \"#utility.yul\":2733:2757   */\n      tag_112\n      jump\t// in\n    tag_190:\n        /* \"#utility.yul\":2728:2731   */\n      dup3\n        /* \"#utility.yul\":2721:2758   */\n      mstore\n        /* \"#utility.yul\":2646:2764   */\n      pop\n      pop\n      jump\t// out\n        /* \"#utility.yul\":2770:2992   */\n    tag_35:\n        /* \"#utility.yul\":2863:2867   */\n      0x00\n        /* \"#utility.yul\":2901:2903   */\n      0x20\n        /* \"#utility.yul\":2890:2899   */\n      dup3\n        /* \"#utility.yul\":2886:2904   */\n      add\n        /* \"#utility.yul\":2878:2904   */\n      swap1\n      pop\n        /* \"#utility.yul\":2914:2985   */\n      tag_192\n        /* \"#utility.yul\":2982:2983   */\n      0x00\n        /* \"#utility.yul\":2971:2980   */\n      dup4\n        /* \"#utility.yul\":2967:2984   */\n      add\n        /* \"#utility.yul\":2958:2964   */\n      dup5\n        /* \"#utility.yul\":2914:2985   */\n      tag_118\n      jump\t// in\n    tag_192:\n        /* \"#utility.yul\":2770:2992   */\n      swap3\n      swap2\n      pop\n      pop\n      jump\t// out\n        /* \"#utility.yul\":2998:3662   */\n    tag_40:\n        /* \"#utility.yul\":3203:3207   */\n      0x00\n        /* \"#utility.yul\":3241:3244   */\n      0xa0\n        /* \"#utility.yul\":3230:3239   */\n      dup3\n        /* \"#utility.yul\":3226:3245   */\n      add\n        /* \"#utility.yul\":3218:3245   */\n      swap1\n      pop\n        /* \"#utility.yul\":3255:3326   */\n      tag_194\n        /* \"#utility.yul\":3323:3324   */\n      0x00\n        /* \"#utility.yul\":3312:3321   */\n      dup4\n        /* \"#utility.yul\":3308:3325   */\n      add\n        /* \"#utility.yul\":3299:3305   */\n      dup9\n        /* \"#utility.yul\":3255:3326   */\n      tag_117\n      jump\t// in\n    tag_194:\n        /* \"#utility.yul\":3336:3408   */\n      tag_195\n        /* \"#utility.yul\":3404:3406   */\n      0x20\n        /* \"#utility.yul\":3393:3402   */\n      dup4\n        /* \"#utility.yul\":3389:3407   */\n      add\n        /* \"#utility.yul\":3380:3386   */\n      dup8\n        /* \"#utility.yul\":3336:3408   */\n      tag_117\n      jump\t// in\n    tag_195:\n        /* \"#utility.yul\":3418:3490   */\n      tag_196\n        /* \"#utility.yul\":3486:3488   */\n      0x40\n        /* \"#utility.yul\":3475:3484   */\n      dup4\n        /* \"#utility.yul\":3471:3489   */\n      add\n        /* \"#utility.yul\":3462:3468   */\n      dup7\n        /* \"#utility.yul\":3418:3490   */\n      tag_117\n      jump\t// in\n    tag_196:\n        /* \"#utility.yul\":3500:3572   */\n      tag_197\n        /* \"#utility.yul\":3568:3570   */\n      0x60\n        /* \"#utility.yul\":3557:3566   */\n      dup4\n        /* \"#utility.yul\":3553:3571   */\n      add\n        /* \"#utility.yul\":3544:3550   */\n      dup6\n        /* \"#utility.yul\":3500:3572   */\n      tag_117\n      jump\t// in\n    tag_197:\n        /* \"#utility.yul\":3582:3655   */\n      tag_198\n        /* \"#utility.yul\":3650:3653   */\n      0x80\n        /* \"#utility.yul\":3639:3648   */\n      dup4\n        /* \"#utility.yul\":3635:3654   */\n      add\n        /* \"#utility.yul\":3626:3632   */\n      dup5\n        /* \"#utility.yul\":3582:3655   */\n      tag_118\n      jump\t// in\n    tag_198:\n        /* \"#utility.yul\":2998:3662   */\n      swap7\n      swap6\n      pop\n      pop\n      pop\n      pop\n      pop\n      pop\n      jump\t// out\n        /* \"#utility.yul\":3668:3767   */\n    tag_119:\n        /* \"#utility.yul\":3720:3726   */\n      0x00\n        /* \"#utility.yul\":3754:3759   */\n      dup2\n        /* \"#utility.yul\":3748:3760   */\n      mload\n        /* \"#utility.yul\":3738:3760   */\n      swap1\n      pop\n        /* \"#utility.yul\":3668:3767   */\n      swap2\n      swap1\n      pop\n      jump\t// out\n        /* \"#utility.yul\":3773:3942   */\n    tag_120:\n        /* \"#utility.yul\":3857:3868   */\n      0x00\n        /* \"#utility.yul\":3891:3897   */\n      dup3\n        /* \"#utility.yul\":3886:3889   */\n      dup3\n        /* \"#utility.yul\":3879:3898   */\n      mstore\n        /* \"#utility.yul\":3931:3935   */\n      0x20\n        /* \"#utility.yul\":3926:3929   */\n      dup3\n        /* \"#utility.yul\":3922:3936   */\n      add\n        /* \"#utility.yul\":3907:3936   */\n      swap1\n      pop\n        /* \"#utility.yul\":3773:3942   */\n      swap3\n      swap2\n      pop\n      pop\n      jump\t// out\n        /* \"#utility.yul\":3948:4194   */\n    tag_121:\n        /* \"#utility.yul\":4029:4030   */\n      0x00\n        /* \"#utility.yul\":4039:4152   */\n    tag_202:\n        /* \"#utility.yul\":4053:4059   */\n      dup4\n        /* \"#utility.yul\":4050:4051   */\n      dup2\n        /* \"#utility.yul\":4047:4060   */\n      lt\n        /* \"#utility.yul\":4039:4152   */\n      iszero\n      tag_204\n      jumpi\n        /* \"#utility.yul\":4138:4139   */\n      dup1\n        /* \"#utility.yul\":4133:4136   */\n      dup3\n        /* \"#utility.yul\":4129:4140   */\n      add\n        /* \"#utility.yul\":4123:4141   */\n      mload\n        /* \"#utility.yul\":4119:4120   */\n      dup2\n        /* \"#utility.yul\":4114:4117   */\n      dup5\n        /* \"#utility.yul\":4110:4121   */\n      add\n        /* \"#utility.yul\":4103:4142   */\n      mstore\n        /* \"#utility.yul\":4075:4077   */\n      0x20\n        /* \"#utility.yul\":4072:4073   */\n      dup2\n        /* \"#utility.yul\":4068:4078   */\n      add\n        /* \"#utility.yul\":4063:4078   */\n      swap1\n      pop\n        /* \"#utility.yul\":4039:4152   */\n      jump(tag_202)\n    tag_204:\n        /* \"#utility.yul\":4186:4187   */\n      0x00\n        /* \"#utility.yul\":4177:4183   */\n      dup5\n        /* \"#utility.yul\":4172:4175   */\n      dup5\n        /* \"#utility.yul\":4168:4184   */\n      add\n        /* \"#utility.yul\":4161:4188   */\n      mstore\n        /* \"#utility.yul\":4010:4194   */\n      pop\n        /* \"#utility.yul\":3948:4194   */\n      pop\n      pop\n      pop\n      jump\t// out\n        /* \"#utility.yul\":4200:4302   */\n    tag_122:\n        /* \"#utility.yul\":4241:4247   */\n      0x00\n        /* \"#utility.yul\":4292:4294   */\n      0x1f\n        /* \"#utility.yul\":4288:4295   */\n      not\n        /* \"#utility.yul\":4283:4285   */\n      0x1f\n        /* \"#utility.yul\":4276:4281   */\n      dup4\n        /* \"#utility.yul\":4272:4286   */\n      add\n        /* \"#utility.yul\":4268:4296   */\n      and\n        /* \"#utility.yul\":4258:4296   */\n      swap1\n      pop\n        /* \"#utility.yul\":4200:4302   */\n      swap2\n      swap1\n      pop\n      jump\t// out\n        /* \"#utility.yul\":4308:4685   */\n    tag_123:\n        /* \"#utility.yul\":4396:4399   */\n      0x00\n        /* \"#utility.yul\":4424:4463   */\n      tag_207\n        /* \"#utility.yul\":4457:4462   */\n      dup3\n        /* \"#utility.yul\":4424:4463   */\n      tag_119\n      jump\t// in\n    tag_207:\n        /* \"#utility.yul\":4479:4550   */\n      tag_208\n        /* \"#utility.yul\":4543:4549   */\n      dup2\n        /* \"#utility.yul\":4538:4541   */\n      dup6\n        /* \"#utility.yul\":4479:4550   */\n      tag_120\n      jump\t// in\n    tag_208:\n        /* \"#utility.yul\":4472:4550   */\n      swap4\n      pop\n        /* \"#utility.yul\":4559:4624   */\n      tag_209\n        /* \"#utility.yul\":4617:4623   */\n      dup2\n        /* \"#utility.yul\":4612:4615   */\n      dup6\n        /* \"#utility.yul\":4605:4609   */\n      0x20\n        /* \"#utility.yul\":4598:4603   */\n      dup7\n        /* \"#utility.yul\":4594:4610   */\n      add\n        /* \"#utility.yul\":4559:4624   */\n      tag_121\n      jump\t// in\n    tag_209:\n        /* \"#utility.yul\":4649:4678   */\n      tag_210\n        /* \"#utility.yul\":4671:4677   */\n      dup2\n        /* \"#utility.yul\":4649:4678   */\n      tag_122\n      jump\t// in\n    tag_210:\n        /* \"#utility.yul\":4644:4647   */\n      dup5\n        /* \"#utility.yul\":4640:4679   */\n      add\n        /* \"#utility.yul\":4633:4679   */\n      swap2\n      pop\n        /* \"#utility.yul\":4400:4685   */\n      pop\n        /* \"#utility.yul\":4308:4685   */\n      swap3\n      swap2\n      pop\n      pop\n      jump\t// out\n        /* \"#utility.yul\":4691:5434   */\n    tag_46:\n        /* \"#utility.yul\":4910:4914   */\n      0x00\n        /* \"#utility.yul\":4948:4951   */\n      0xa0\n        /* \"#utility.yul\":4937:4946   */\n      dup3\n        /* \"#utility.yul\":4933:4952   */\n      add\n        /* \"#utility.yul\":4925:4952   */\n      swap1\n      pop\n        /* \"#utility.yul\":4998:5007   */\n      dup2\n        /* \"#utility.yul\":4992:4996   */\n      dup2\n        /* \"#utility.yul\":4988:5008   */\n      sub\n        /* \"#utility.yul\":4984:4985   */\n      0x00\n        /* \"#utility.yul\":4973:4982   */\n      dup4\n        /* \"#utility.yul\":4969:4986   */\n      add\n        /* \"#utility.yul\":4962:5009   */\n      mstore\n        /* \"#utility.yul\":5026:5104   */\n      tag_212\n        /* \"#utility.yul\":5099:5103   */\n      dup2\n        /* \"#utility.yul\":5090:5096   */\n      dup9\n        /* \"#utility.yul\":5026:5104   */\n      tag_123\n      jump\t// in\n    tag_212:\n        /* \"#utility.yul\":5018:5104   */\n      swap1\n      pop\n        /* \"#utility.yul\":5114:5186   */\n      tag_213\n        /* \"#utility.yul\":5182:5184   */\n      0x20\n        /* \"#utility.yul\":5171:5180   */\n      dup4\n        /* \"#utility.yul\":5167:5185   */\n      add\n        /* \"#utility.yul\":5158:5164   */\n      dup8\n        /* \"#utility.yul\":5114:5186   */\n      tag_117\n      jump\t// in\n    tag_213:\n        /* \"#utility.yul\":5196:5268   */\n      tag_214\n        /* \"#utility.yul\":5264:5266   */\n      0x40\n        /* \"#utility.yul\":5253:5262   */\n      dup4\n        /* \"#utility.yul\":5249:5267   */\n      add\n        /* \"#utility.yul\":5240:5246   */\n      dup7\n        /* \"#utility.yul\":5196:5268   */\n      tag_118\n      jump\t// in\n    tag_214:\n        /* \"#utility.yul\":5278:5344   */\n      tag_215\n        /* \"#utility.yul\":5340:5342   */\n      0x60\n        /* \"#utility.yul\":5329:5338   */\n      dup4\n        /* \"#utility.yul\":5325:5343   */\n      add\n        /* \"#utility.yul\":5316:5322   */\n      dup6\n        /* \"#utility.yul\":5278:5344   */\n      tag_116\n      jump\t// in\n    tag_215:\n        /* \"#utility.yul\":5354:5427   */\n      tag_216\n        /* \"#utility.yul\":5422:5425   */\n      0x80\n        /* \"#utility.yul\":5411:5420   */\n      dup4\n        /* \"#utility.yul\":5407:5426   */\n      add\n        /* \"#utility.yul\":5398:5404   */\n      dup5\n        /* \"#utility.yul\":5354:5427   */\n      tag_117\n      jump\t// in\n    tag_216:\n        /* \"#utility.yul\":4691:5434   */\n      swap7\n      swap6\n      pop\n      pop\n      pop\n      pop\n      pop\n      pop\n      jump\t// out\n        /* \"#utility.yul\":5440:5557   */\n    tag_124:\n        /* \"#utility.yul\":5549:5550   */\n      0x00\n        /* \"#utility.yul\":5546:5547   */\n      dup1\n        /* \"#utility.yul\":5539:5551   */\n      revert\n        /* \"#utility.yul\":5563:5680   */\n    tag_125:\n        /* \"#utility.yul\":5672:5673   */\n      0x00\n        /* \"#utility.yul\":5669:5670   */\n      dup1\n        /* \"#utility.yul\":5662:5674   */\n      revert\n        /* \"#utility.yul\":5686:5866   */\n    tag_126:\n        /* \"#utility.yul\":5734:5811   */\n      0x4e487b7100000000000000000000000000000000000000000000000000000000\n        /* \"#utility.yul\":5731:5732   */\n      0x00\n        /* \"#utility.yul\":5724:5812   */\n      mstore\n        /* \"#utility.yul\":5831:5835   */\n      0x41\n        /* \"#utility.yul\":5828:5829   */\n      0x04\n        /* \"#utility.yul\":5821:5836   */\n      mstore\n        /* \"#utility.yul\":5855:5859   */\n      0x24\n        /* \"#utility.yul\":5852:5853   */\n      0x00\n        /* \"#utility.yul\":5845:5860   */\n      revert\n        /* \"#utility.yul\":5872:6153   */\n    tag_127:\n        /* \"#utility.yul\":5955:5982   */\n      tag_221\n        /* \"#utility.yul\":5977:5981   */\n      dup3\n        /* \"#utility.yul\":5955:5982   */\n      tag_122\n      jump\t// in\n    tag_221:\n        /* \"#utility.yul\":5947:5953   */\n      dup2\n        /* \"#utility.yul\":5943:5983   */\n      add\n        /* \"#utility.yul\":6085:6091   */\n      dup2\n        /* \"#utility.yul\":6073:6083   */\n      dup2\n        /* \"#utility.yul\":6070:6092   */\n      lt\n        /* \"#utility.yul\":6049:6067   */\n      0xffffffffffffffff\n        /* \"#utility.yul\":6037:6047   */\n      dup3\n        /* \"#utility.yul\":6034:6068   */\n      gt\n        /* \"#utility.yul\":6031:6093   */\n      or\n        /* \"#utility.yul\":6028:6116   */\n      iszero\n      tag_222\n      jumpi\n        /* \"#utility.yul\":6096:6114   */\n      tag_223\n      tag_126\n      jump\t// in\n    tag_223:\n        /* \"#utility.yul\":6028:6116   */\n    tag_222:\n        /* \"#utility.yul\":6136:6146   */\n      dup1\n        /* \"#utility.yul\":6132:6134   */\n      0x40\n        /* \"#utility.yul\":6125:6147   */\n      mstore\n        /* \"#utility.yul\":5915:6153   */\n      pop\n        /* \"#utility.yul\":5872:6153   */\n      pop\n      pop\n      jump\t// out\n        /* \"#utility.yul\":6159:6288   */\n    tag_128:\n        /* \"#utility.yul\":6193:6199   */\n      0x00\n        /* \"#utility.yul\":6220:6240   */\n      tag_225\n      tag_105\n      jump\t// in\n    tag_225:\n        /* \"#utility.yul\":6210:6240   */\n      swap1\n      pop\n        /* \"#utility.yul\":6249:6282   */\n      tag_226\n        /* \"#utility.yul\":6277:6281   */\n      dup3\n        /* \"#utility.yul\":6269:6275   */\n      dup3\n        /* \"#utility.yul\":6249:6282   */\n      tag_127\n      jump\t// in\n    tag_226:\n        /* \"#utility.yul\":6159:6288   */\n      swap2\n      swap1\n      pop\n      jump\t// out\n        /* \"#utility.yul\":6294:6602   */\n    tag_129:\n        /* \"#utility.yul\":6356:6360   */\n      0x00\n        /* \"#utility.yul\":6446:6464   */\n      0xffffffffffffffff\n        /* \"#utility.yul\":6438:6444   */\n      dup3\n        /* \"#utility.yul\":6435:6465   */\n      gt\n        /* \"#utility.yul\":6432:6488   */\n      iszero\n      tag_228\n      jumpi\n        /* \"#utility.yul\":6468:6486   */\n      tag_229\n      tag_126\n      jump\t// in\n    tag_229:\n        /* \"#utility.yul\":6432:6488   */\n    tag_228:\n        /* \"#utility.yul\":6506:6535   */\n      tag_230\n        /* \"#utility.yul\":6528:6534   */\n      dup3\n        /* \"#utility.yul\":6506:6535   */\n      tag_122\n      jump\t// in\n    tag_230:\n        /* \"#utility.yul\":6498:6535   */\n      swap1\n      pop\n        /* \"#utility.yul\":6590:6594   */\n      0x20\n        /* \"#utility.yul\":6584:6588   */\n      dup2\n        /* \"#utility.yul\":6580:6595   */\n      add\n        /* \"#utility.yul\":6572:6595   */\n      swap1\n      pop\n        /* \"#utility.yul\":6294:6602   */\n      swap2\n      swap1\n      pop\n      jump\t// out\n        /* \"#utility.yul\":6608:6754   */\n    tag_130:\n        /* \"#utility.yul\":6705:6711   */\n      dup3\n        /* \"#utility.yul\":6700:6703   */\n      dup2\n        /* \"#utility.yul\":6695:6698   */\n      dup4\n        /* \"#utility.yul\":6682:6712   */\n      calldatacopy\n        /* \"#utility.yul\":6746:6747   */\n      0x00\n        /* \"#utility.yul\":6737:6743   */\n      dup4\n        /* \"#utility.yul\":6732:6735   */\n      dup4\n        /* \"#utility.yul\":6728:6744   */\n      add\n        /* \"#utility.yul\":6721:6748   */\n      mstore\n        /* \"#utility.yul\":6608:6754   */\n      pop\n      pop\n      pop\n      jump\t// out\n        /* \"#utility.yul\":6760:7185   */\n    tag_131:\n        /* \"#utility.yul\":6838:6843   */\n      0x00\n        /* \"#utility.yul\":6863:6929   */\n      tag_233\n        /* \"#utility.yul\":6879:6928   */\n      tag_234\n        /* \"#utility.yul\":6921:6927   */\n      dup5\n        /* \"#utility.yul\":6879:6928   */\n      tag_129\n      jump\t// in\n    tag_234:\n        /* \"#utility.yul\":6863:6929   */\n      tag_128\n      jump\t// in\n    tag_233:\n        /* \"#utility.yul\":6854:6929   */\n      swap1\n      pop\n        /* \"#utility.yul\":6952:6958   */\n      dup3\n        /* \"#utility.yul\":6945:6950   */\n      dup2\n        /* \"#utility.yul\":6938:6959   */\n      mstore\n        /* \"#utility.yul\":6990:6994   */\n      0x20\n        /* \"#utility.yul\":6983:6988   */\n      dup2\n        /* \"#utility.yul\":6979:6995   */\n      add\n        /* \"#utility.yul\":7028:7031   */\n      dup5\n        /* \"#utility.yul\":7019:7025   */\n      dup5\n        /* \"#utility.yul\":7014:7017   */\n      dup5\n        /* \"#utility.yul\":7010:7026   */\n      add\n        /* \"#utility.yul\":7007:7032   */\n      gt\n        /* \"#utility.yul\":7004:7116   */\n      iszero\n      tag_235\n      jumpi\n        /* \"#utility.yul\":7035:7114   */\n      tag_236\n      tag_125\n      jump\t// in\n    tag_236:\n        /* \"#utility.yul\":7004:7116   */\n    tag_235:\n        /* \"#utility.yul\":7125:7179   */\n      tag_237\n        /* \"#utility.yul\":7172:7178   */\n      dup5\n        /* \"#utility.yul\":7167:7170   */\n      dup3\n        /* \"#utility.yul\":7162:7165   */\n      dup6\n        /* \"#utility.yul\":7125:7179   */\n      tag_130\n      jump\t// in\n    tag_237:\n        /* \"#utility.yul\":6844:7185   */\n      pop\n        /* \"#utility.yul\":6760:7185   */\n      swap4\n      swap3\n      pop\n      pop\n      pop\n      jump\t// out\n        /* \"#utility.yul\":7205:7545   */\n    tag_132:\n        /* \"#utility.yul\":7261:7266   */\n      0x00\n        /* \"#utility.yul\":7310:7313   */\n      dup3\n        /* \"#utility.yul\":7303:7307   */\n      0x1f\n        /* \"#utility.yul\":7295:7301   */\n      dup4\n        /* \"#utility.yul\":7291:7308   */\n      add\n        /* \"#utility.yul\":7287:7314   */\n      slt\n        /* \"#utility.yul\":7277:7399   */\n      tag_239\n      jumpi\n        /* \"#utility.yul\":7318:7397   */\n      tag_240\n      tag_124\n      jump\t// in\n    tag_240:\n        /* \"#utility.yul\":7277:7399   */\n    tag_239:\n        /* \"#utility.yul\":7435:7441   */\n      dup2\n        /* \"#utility.yul\":7422:7442   */\n      calldataload\n        /* \"#utility.yul\":7460:7539   */\n      tag_241\n        /* \"#utility.yul\":7535:7538   */\n      dup5\n        /* \"#utility.yul\":7527:7533   */\n      dup3\n        /* \"#utility.yul\":7520:7524   */\n      0x20\n        /* \"#utility.yul\":7512:7518   */\n      dup7\n        /* \"#utility.yul\":7508:7525   */\n      add\n        /* \"#utility.yul\":7460:7539   */\n      tag_131\n      jump\t// in\n    tag_241:\n        /* \"#utility.yul\":7451:7539   */\n      swap2\n      pop\n        /* \"#utility.yul\":7267:7545   */\n      pop\n        /* \"#utility.yul\":7205:7545   */\n      swap3\n      swap2\n      pop\n      pop\n      jump\t// out\n        /* \"#utility.yul\":7551:7655   */\n    tag_133:\n        /* \"#utility.yul\":7596:7603   */\n      0x00\n        /* \"#utility.yul\":7625:7649   */\n      tag_243\n        /* \"#utility.yul\":7643:7648   */\n      dup3\n        /* \"#utility.yul\":7625:7649   */\n      tag_111\n      jump\t// in\n    tag_243:\n        /* \"#utility.yul\":7614:7649   */\n      swap1\n      pop\n        /* \"#utility.yul\":7551:7655   */\n      swap2\n      swap1\n      pop\n      jump\t// out\n        /* \"#utility.yul\":7661:7799   */\n    tag_134:\n        /* \"#utility.yul\":7742:7774   */\n      tag_245\n        /* \"#utility.yul\":7768:7773   */\n      dup2\n        /* \"#utility.yul\":7742:7774   */\n      tag_133\n      jump\t// in\n    tag_245:\n        /* \"#utility.yul\":7735:7740   */\n      dup2\n        /* \"#utility.yul\":7732:7775   */\n      eq\n        /* \"#utility.yul\":7722:7793   */\n      tag_246\n      jumpi\n        /* \"#utility.yul\":7789:7790   */\n      0x00\n        /* \"#utility.yul\":7786:7787   */\n      dup1\n        /* \"#utility.yul\":7779:7791   */\n      revert\n        /* \"#utility.yul\":7722:7793   */\n    tag_246:\n        /* \"#utility.yul\":7661:7799   */\n      pop\n      jump\t// out\n        /* \"#utility.yul\":7805:7960   */\n    tag_135:\n        /* \"#utility.yul\":7859:7864   */\n      0x00\n        /* \"#utility.yul\":7897:7903   */\n      dup2\n        /* \"#utility.yul\":7884:7904   */\n      calldataload\n        /* \"#utility.yul\":7875:7904   */\n      swap1\n      pop\n        /* \"#utility.yul\":7913:7954   */\n      tag_248\n        /* \"#utility.yul\":7948:7953   */\n      dup2\n        /* \"#utility.yul\":7913:7954   */\n      tag_134\n      jump\t// in\n    tag_248:\n        /* \"#utility.yul\":7805:7960   */\n      swap3\n      swap2\n      pop\n      pop\n      jump\t// out\n        /* \"#utility.yul\":7966:8781   */\n    tag_53:\n        /* \"#utility.yul\":8061:8067   */\n      0x00\n        /* \"#utility.yul\":8069:8075   */\n      dup1\n        /* \"#utility.yul\":8077:8083   */\n      0x00\n        /* \"#utility.yul\":8126:8128   */\n      0x60\n        /* \"#utility.yul\":8114:8123   */\n      dup5\n        /* \"#utility.yul\":8105:8112   */\n      dup7\n        /* \"#utility.yul\":8101:8124   */\n      sub\n        /* \"#utility.yul\":8097:8129   */\n      slt\n        /* \"#utility.yul\":8094:8213   */\n      iszero\n      tag_250\n      jumpi\n        /* \"#utility.yul\":8132:8211   */\n      tag_251\n      tag_106\n      jump\t// in\n    tag_251:\n        /* \"#utility.yul\":8094:8213   */\n    tag_250:\n        /* \"#utility.yul\":8280:8281   */\n      0x00\n        /* \"#utility.yul\":8269:8278   */\n      dup5\n        /* \"#utility.yul\":8265:8282   */\n      add\n        /* \"#utility.yul\":8252:8283   */\n      calldataload\n        /* \"#utility.yul\":8310:8328   */\n      0xffffffffffffffff\n        /* \"#utility.yul\":8302:8308   */\n      dup2\n        /* \"#utility.yul\":8299:8329   */\n      gt\n        /* \"#utility.yul\":8296:8413   */\n      iszero\n      tag_252\n      jumpi\n        /* \"#utility.yul\":8332:8411   */\n      tag_253\n      tag_107\n      jump\t// in\n    tag_253:\n        /* \"#utility.yul\":8296:8413   */\n    tag_252:\n        /* \"#utility.yul\":8437:8500   */\n      tag_254\n        /* \"#utility.yul\":8492:8499   */\n      dup7\n        /* \"#utility.yul\":8483:8489   */\n      dup3\n        /* \"#utility.yul\":8472:8481   */\n      dup8\n        /* \"#utility.yul\":8468:8490   */\n      add\n        /* \"#utility.yul\":8437:8500   */\n      tag_132\n      jump\t// in\n    tag_254:\n        /* \"#utility.yul\":8427:8500   */\n      swap4\n      pop\n        /* \"#utility.yul\":8223:8510   */\n      pop\n        /* \"#utility.yul\":8549:8551   */\n      0x20\n        /* \"#utility.yul\":8575:8628   */\n      tag_255\n        /* \"#utility.yul\":8620:8627   */\n      dup7\n        /* \"#utility.yul\":8611:8617   */\n      dup3\n        /* \"#utility.yul\":8600:8609   */\n      dup8\n        /* \"#utility.yul\":8596:8618   */\n      add\n        /* \"#utility.yul\":8575:8628   */\n      tag_110\n      jump\t// in\n    tag_255:\n        /* \"#utility.yul\":8565:8628   */\n      swap3\n      pop\n        /* \"#utility.yul\":8520:8638   */\n      pop\n        /* \"#utility.yul\":8677:8679   */\n      0x40\n        /* \"#utility.yul\":8703:8764   */\n      tag_256\n        /* \"#utility.yul\":8756:8763   */\n      dup7\n        /* \"#utility.yul\":8747:8753   */\n      dup3\n        /* \"#utility.yul\":8736:8745   */\n      dup8\n        /* \"#utility.yul\":8732:8754   */\n      add\n        /* \"#utility.yul\":8703:8764   */\n      tag_135\n      jump\t// in\n    tag_256:\n        /* \"#utility.yul\":8693:8764   */\n      swap2\n      pop\n        /* \"#utility.yul\":8648:8774   */\n      pop\n        /* \"#utility.yul\":7966:8781   */\n      swap3\n      pop\n      swap3\n      pop\n      swap3\n      jump\t// out\n        /* \"#utility.yul\":8787:8967   */\n    tag_70:\n        /* \"#utility.yul\":8835:8912   */\n      0x4e487b7100000000000000000000000000000000000000000000000000000000\n        /* \"#utility.yul\":8832:8833   */\n      0x00\n        /* \"#utility.yul\":8825:8913   */\n      mstore\n        /* \"#utility.yul\":8932:8936   */\n      0x32\n        /* \"#utility.yul\":8929:8930   */\n      0x04\n        /* \"#utility.yul\":8922:8937   */\n      mstore\n        /* \"#utility.yul\":8956:8960   */\n      0x24\n        /* \"#utility.yul\":8953:8954   */\n      0x00\n        /* \"#utility.yul\":8946:8961   */\n      revert\n        /* \"#utility.yul\":8973:9153   */\n    tag_136:\n        /* \"#utility.yul\":9021:9098   */\n      0x4e487b7100000000000000000000000000000000000000000000000000000000\n        /* \"#utility.yul\":9018:9019   */\n      0x00\n        /* \"#utility.yul\":9011:9099   */\n      mstore\n        /* \"#utility.yul\":9118:9122   */\n      0x12\n        /* \"#utility.yul\":9115:9116   */\n      0x04\n        /* \"#utility.yul\":9108:9123   */\n      mstore\n        /* \"#utility.yul\":9142:9146   */\n      0x24\n        /* \"#utility.yul\":9139:9140   */\n      0x00\n        /* \"#utility.yul\":9132:9147   */\n      revert\n        /* \"#utility.yul\":9159:9339   */\n    tag_137:\n        /* \"#utility.yul\":9207:9284   */\n      0x4e487b7100000000000000000000000000000000000000000000000000000000\n        /* \"#utility.yul\":9204:9205   */\n      0x00\n        /* \"#utility.yul\":9197:9285   */\n      mstore\n        /* \"#utility.yul\":9304:9308   */\n      0x11\n        /* \"#utility.yul\":9301:9302   */\n      0x04\n        /* \"#utility.yul\":9294:9309   */\n      mstore\n        /* \"#utility.yul\":9328:9332   */\n      0x24\n        /* \"#utility.yul\":9325:9326   */\n      0x00\n        /* \"#utility.yul\":9318:9333   */\n      revert\n        /* \"#utility.yul\":9345:9530   */\n    tag_73:\n        /* \"#utility.yul\":9385:9386   */\n      0x00\n        /* \"#utility.yul\":9402:9422   */\n      tag_261\n        /* \"#utility.yul\":9420:9421   */\n      dup3\n        /* \"#utility.yul\":9402:9422   */\n      tag_108\n      jump\t// in\n    tag_261:\n        /* \"#utility.yul\":9397:9422   */\n      swap2\n      pop\n        /* \"#utility.yul\":9436:9456   */\n      tag_262\n        /* \"#utility.yul\":9454:9455   */\n      dup4\n        /* \"#utility.yul\":9436:9456   */\n      tag_108\n      jump\t// in\n    tag_262:\n        /* \"#utility.yul\":9431:9456   */\n      swap3\n      pop\n        /* \"#utility.yul\":9475:9476   */\n      dup3\n        /* \"#utility.yul\":9465:9500   */\n      tag_263\n      jumpi\n        /* \"#utility.yul\":9480:9498   */\n      tag_264\n      tag_136\n      jump\t// in\n    tag_264:\n        /* \"#utility.yul\":9465:9500   */\n    tag_263:\n        /* \"#utility.yul\":9522:9523   */\n      dup3\n        /* \"#utility.yul\":9519:9520   */\n      dup3\n        /* \"#utility.yul\":9515:9524   */\n      div\n        /* \"#utility.yul\":9510:9524   */\n      swap1\n      pop\n        /* \"#utility.yul\":9345:9530   */\n      swap3\n      swap2\n      pop\n      pop\n      jump\t// out\n        /* \"#utility.yul\":9536:9716   */\n    tag_138:\n        /* \"#utility.yul\":9584:9661   */\n      0x4e487b7100000000000000000000000000000000000000000000000000000000\n        /* \"#utility.yul\":9581:9582   */\n      0x00\n        /* \"#utility.yul\":9574:9662   */\n      mstore\n        /* \"#utility.yul\":9681:9685   */\n      0x22\n        /* \"#utility.yul\":9678:9679   */\n      0x04\n        /* \"#utility.yul\":9671:9686   */\n      mstore\n        /* \"#utility.yul\":9705:9709   */\n      0x24\n        /* \"#utility.yul\":9702:9703   */\n      0x00\n        /* \"#utility.yul\":9695:9710   */\n      revert\n        /* \"#utility.yul\":9722:10042   */\n    tag_83:\n        /* \"#utility.yul\":9766:9772   */\n      0x00\n        /* \"#utility.yul\":9803:9804   */\n      0x02\n        /* \"#utility.yul\":9797:9801   */\n      dup3\n        /* \"#utility.yul\":9793:9805   */\n      div\n        /* \"#utility.yul\":9783:9805   */\n      swap1\n      pop\n        /* \"#utility.yul\":9850:9851   */\n      0x01\n        /* \"#utility.yul\":9844:9848   */\n      dup3\n        /* \"#utility.yul\":9840:9852   */\n      and\n        /* \"#utility.yul\":9871:9889   */\n      dup1\n        /* \"#utility.yul\":9861:9942   */\n      tag_267\n      jumpi\n        /* \"#utility.yul\":9927:9931   */\n      0x7f\n        /* \"#utility.yul\":9919:9925   */\n      dup3\n        /* \"#utility.yul\":9915:9932   */\n      and\n        /* \"#utility.yul\":9905:9932   */\n      swap2\n      pop\n        /* \"#utility.yul\":9861:9942   */\n    tag_267:\n        /* \"#utility.yul\":9989:9991   */\n      0x20\n        /* \"#utility.yul\":9981:9987   */\n      dup3\n        /* \"#utility.yul\":9978:9992   */\n      lt\n        /* \"#utility.yul\":9958:9976   */\n      dup2\n        /* \"#utility.yul\":9955:9993   */\n      sub\n        /* \"#utility.yul\":9952:10036   */\n      tag_268\n      jumpi\n        /* \"#utility.yul\":10008:10026   */\n      tag_269\n      tag_138\n      jump\t// in\n    tag_269:\n        /* \"#utility.yul\":9952:10036   */\n    tag_268:\n        /* \"#utility.yul\":9773:10042   */\n      pop\n        /* \"#utility.yul\":9722:10042   */\n      swap2\n      swap1\n      pop\n      jump\t// out\n        /* \"#utility.yul\":10048:10189   */\n    tag_139:\n        /* \"#utility.yul\":10097:10101   */\n      0x00\n        /* \"#utility.yul\":10120:10123   */\n      dup2\n        /* \"#utility.yul\":10112:10123   */\n      swap1\n      pop\n        /* \"#utility.yul\":10143:10146   */\n      dup2\n        /* \"#utility.yul\":10140:10141   */\n      0x00\n        /* \"#utility.yul\":10133:10147   */\n      mstore\n        /* \"#utility.yul\":10177:10181   */\n      0x20\n        /* \"#utility.yul\":10174:10175   */\n      0x00\n        /* \"#utility.yul\":10164:10182   */\n      keccak256\n        /* \"#utility.yul\":10156:10182   */\n      swap1\n      pop\n        /* \"#utility.yul\":10048:10189   */\n      swap2\n      swap1\n      pop\n      jump\t// out\n        /* \"#utility.yul\":10195:10288   */\n    tag_140:\n        /* \"#utility.yul\":10232:10238   */\n      0x00\n        /* \"#utility.yul\":10279:10281   */\n      0x20\n        /* \"#utility.yul\":10274:10276   */\n      0x1f\n        /* \"#utility.yul\":10267:10272   */\n      dup4\n        /* \"#utility.yul\":10263:10277   */\n      add\n        /* \"#utility.yul\":10259:10282   */\n      div\n        /* \"#utility.yul\":10249:10282   */\n      swap1\n      pop\n        /* \"#utility.yul\":10195:10288   */\n      swap2\n      swap1\n      pop\n      jump\t// out\n        /* \"#utility.yul\":10294:10401   */\n    tag_141:\n        /* \"#utility.yul\":10338:10346   */\n      0x00\n        /* \"#utility.yul\":10388:10393   */\n      dup3\n        /* \"#utility.yul\":10382:10386   */\n      dup3\n        /* \"#utility.yul\":10378:10394   */\n      shl\n        /* \"#utility.yul\":10357:10394   */\n      swap1\n      pop\n        /* \"#utility.yul\":10294:10401   */\n      swap3\n      swap2\n      pop\n      pop\n      jump\t// out\n        /* \"#utility.yul\":10407:10800   */\n    tag_142:\n        /* \"#utility.yul\":10476:10482   */\n      0x00\n        /* \"#utility.yul\":10526:10527   */\n      0x08\n        /* \"#utility.yul\":10514:10524   */\n      dup4\n        /* \"#utility.yul\":10510:10528   */\n      mul\n        /* \"#utility.yul\":10549:10646   */\n      tag_274\n        /* \"#utility.yul\":10579:10645   */\n      0xffffffffffffffffffffffffffffffffffffffffffffffffffffffffffffffff\n        /* \"#utility.yul\":10568:10577   */\n      dup3\n        /* \"#utility.yul\":10549:10646   */\n      tag_141\n      jump\t// in\n    tag_274:\n        /* \"#utility.yul\":10667:10706   */\n      tag_275\n        /* \"#utility.yul\":10697:10705   */\n      dup7\n        /* \"#utility.yul\":10686:10695   */\n      dup4\n        /* \"#utility.yul\":10667:10706   */\n      tag_141\n      jump\t// in\n    tag_275:\n        /* \"#utility.yul\":10655:10706   */\n      swap6\n      pop\n        /* \"#utility.yul\":10739:10743   */\n      dup1\n        /* \"#utility.yul\":10735:10744   */\n      not\n        /* \"#utility.yul\":10728:10733   */\n      dup5\n        /* \"#utility.yul\":10724:10745   */\n      and\n        /* \"#utility.yul\":10715:10745   */\n      swap4\n      pop\n        /* \"#utility.yul\":10788:10792   */\n      dup1\n        /* \"#utility.yul\":10778:10786   */\n      dup7\n        /* \"#utility.yul\":10774:10793   */\n      and\n        /* \"#utility.yul\":10767:10772   */\n      dup5\n        /* \"#utility.yul\":10764:10794   */\n      or\n        /* \"#utility.yul\":10754:10794   */\n      swap3\n      pop\n        /* \"#utility.yul\":10483:10800   */\n      pop\n      pop\n        /* \"#utility.yul\":10407:10800   */\n      swap4\n      swap3\n      pop\n      pop\n      pop\n      jump\t// out\n        /* \"#utility.yul\":10806:10866   */\n    tag_143:\n        /* \"#utility.yul\":10834:10837   */\n      0x00\n        /* \"#utility.yul\":10855:10860   */\n      dup2\n        /* \"#utility.yul\":10848:10860   */\n      swap1\n      pop\n        /* \"#utility.yul\":10806:10866   */\n      swap2\n      swap1\n      pop\n      jump\t// out\n        /* \"#utility.yul\":10872:11014   */\n    tag_144:\n        /* \"#utility.yul\":10922:10931   */\n      0x00\n        /* \"#utility.yul\":10955:11008   */\n      tag_278\n        /* \"#utility.yul\":10973:11007   */\n      tag_279\n        /* \"#utility.yul\":10982:11006   */\n      tag_280\n        /* \"#utility.yul\":11000:11005   */\n      dup5\n        /* \"#utility.yul\":10982:11006   */\n      tag_108\n      jump\t// in\n    tag_280:\n        /* \"#utility.yul\":10973:11007   */\n      tag_143\n      jump\t// in\n    tag_279:\n        /* \"#utility.yul\":10955:11008   */\n      tag_108\n      jump\t// in\n    tag_278:\n        /* \"#utility.yul\":10942:11008   */\n      swap1\n      pop\n        /* \"#utility.yul\":10872:11014   */\n      swap2\n      swap1\n      pop\n      jump\t// out\n        /* \"#utility.yul\":11020:11095   */\n    tag_145:\n        /* \"#utility.yul\":11063:11066   */\n      0x00\n        /* \"#utility.yul\":11084:11089   */\n      dup2\n        /* \"#utility.yul\":11077:11089   */\n      swap1\n      pop\n        /* \"#utility.yul\":11020:11095   */\n      swap2\n      swap1\n      pop\n      jump\t// out\n        /* \"#utility.yul\":11101:11370   */\n    tag_146:\n        /* \"#utility.yul\":11211:11250   */\n      tag_283\n        /* \"#utility.yul\":11242:11249   */\n      dup4\n        /* \"#utility.yul\":11211:11250   */\n      tag_144\n      jump\t// in\n    tag_283:\n        /* \"#utility.yul\":11272:11363   */\n      tag_284\n        /* \"#utility.yul\":11321:11362   */\n      tag_285\n        /* \"#utility.yul\":11345:11361   */\n      dup3\n        /* \"#utility.yul\":11321:11362   */\n      tag_145\n      jump\t// in\n    tag_285:\n        /* \"#utility.yul\":11313:11319   */\n      dup5\n        /* \"#utility.yul\":11306:11310   */\n      dup5\n        /* \"#utility.yul\":11300:11311   */\n      sload\n        /* \"#utility.yul\":11272:11363   */\n      tag_142\n      jump\t// in\n    tag_284:\n        /* \"#utility.yul\":11266:11270   */\n      dup3\n        /* \"#utility.yul\":11259:11364   */\n      sstore\n        /* \"#utility.yul\":11177:11370   */\n      pop\n        /* \"#utility.yul\":11101:11370   */\n      pop\n      pop\n      pop\n      jump\t// out\n        /* \"#utility.yul\":11376:11449   */\n    tag_147:\n        /* \"#utility.yul\":11421:11424   */\n      0x00\n        /* \"#utility.yul\":11376:11449   */\n      swap1\n      jump\t// out\n        /* \"#utility.yul\":11455:11644   */\n    tag_148:\n        /* \"#utility.yul\":11532:11564   */\n      tag_288\n      tag_147\n      jump\t// in\n    tag_288:\n        /* \"#utility.yul\":11573:11638   */\n      tag_289\n        /* \"#utility.yul\":11631:11637   */\n      dup2\n        /* \"#utility.yul\":11623:11629   */\n      dup5\n        /* \"#utility.yul\":11617:11621   */\n      dup5\n        /* \"#utility.yul\":11573:11638   */\n      tag_146\n      jump\t// in\n    tag_289:\n        /* \"#utility.yul\":11508:11644   */\n      pop\n        /* \"#utility.yul\":11455:11644   */\n      pop\n      pop\n      jump\t// out\n        /* \"#utility.yul\":11650:11836   */\n    tag_149:\n        /* \"#utility.yul\":11710:11830   */\n    tag_291:\n        /* \"#utility.yul\":11727:11730   */\n      dup2\n        /* \"#utility.yul\":11720:11725   */\n      dup2\n        /* \"#utility.yul\":11717:11731   */\n      lt\n        /* \"#utility.yul\":11710:11830   */\n      iszero\n      tag_293\n      jumpi\n        /* \"#utility.yul\":11781:11820   */\n      tag_294\n        /* \"#utility.yul\":11818:11819   */\n      0x00\n        /* \"#utility.yul\":11811:11816   */\n      dup3\n        /* \"#utility.yul\":11781:11820   */\n      tag_148\n      jump\t// in\n    tag_294:\n        /* \"#utility.yul\":11754:11755   */\n      0x01\n        /* \"#utility.yul\":11747:11752   */\n      dup2\n        /* \"#utility.yul\":11743:11756   */\n      add\n        /* \"#utility.yul\":11734:11756   */\n      swap1\n      pop\n        /* \"#utility.yul\":11710:11830   */\n      jump(tag_291)\n    tag_293:\n        /* \"#utility.yul\":11650:11836   */\n      pop\n      pop\n      jump\t// out\n        /* \"#utility.yul\":11842:12385   */\n    tag_150:\n        /* \"#utility.yul\":11943:11945   */\n      0x1f\n        /* \"#utility.yul\":11938:11941   */\n      dup3\n        /* \"#utility.yul\":11935:11946   */\n      gt\n        /* \"#utility.yul\":11932:12378   */\n      iszero\n      tag_296\n      jumpi\n        /* \"#utility.yul\":11977:12015   */\n      tag_297\n        /* \"#utility.yul\":12009:12014   */\n      dup2\n        /* \"#utility.yul\":11977:12015   */\n      tag_139\n      jump\t// in\n    tag_297:\n        /* \"#utility.yul\":12061:12090   */\n      tag_298\n        /* \"#utility.yul\":12079:12089   */\n      dup5\n        /* \"#utility.yul\":12061:12090   */\n      tag_140\n      jump\t// in\n    tag_298:\n        /* \"#utility.yul\":12051:12059   */\n      dup2\n        /* \"#utility.yul\":12047:12091   */\n      add\n        /* \"#utility.yul\":12244:12246   */\n      0x20\n        /* \"#utility.yul\":12232:12242   */\n      dup6\n        /* \"#utility.yul\":12229:12247   */\n      lt\n        /* \"#utility.yul\":12226:12275   */\n      iszero\n      tag_299\n      jumpi\n        /* \"#utility.yul\":12265:12273   */\n      dup2\n        /* \"#utility.yul\":12250:12273   */\n      swap1\n      pop\n        /* \"#utility.yul\":12226:12275   */\n    tag_299:\n        /* \"#utility.yul\":12288:12368   */\n      tag_300\n        /* \"#utility.yul\":12344:12366   */\n      tag_301\n        /* \"#utility.yul\":12362:12365   */\n      dup6\n        /* \"#utility.yul\":12344:12366   */\n      tag_140\n      jump\t// in\n    tag_301:\n        /* \"#utility.yul\":12334:12342   */\n      dup4\n        /* \"#utility.yul\":12330:12367   */\n      add\n        /* \"#utility.yul\":12317:12328   */\n      dup3\n        /* \"#utility.yul\":12288:12368   */\n      tag_149\n      jump\t// in\n    tag_300:\n        /* \"#utility.yul\":11947:12378   */\n      pop\n      pop\n        /* \"#utility.yul\":11932:12378   */\n    tag_296:\n        /* \"#utility.yul\":11842:12385   */\n      pop\n      pop\n      pop\n      jump\t// out\n        /* \"#utility.yul\":12391:12508   */\n    tag_151:\n        /* \"#utility.yul\":12445:12453   */\n      0x00\n        /* \"#utility.yul\":12495:12500   */\n      dup3\n        /* \"#utility.yul\":12489:12493   */\n      dup3\n        /* \"#utility.yul\":12485:12501   */\n      shr\n        /* \"#utility.yul\":12464:12501   */\n      swap1\n      pop\n        /* \"#utility.yul\":12391:12508   */\n      swap3\n      swap2\n      pop\n      pop\n      jump\t// out\n        /* \"#utility.yul\":12514:12683   */\n    tag_152:\n        /* \"#utility.yul\":12558:12564   */\n      0x00\n        /* \"#utility.yul\":12591:12642   */\n      tag_304\n        /* \"#utility.yul\":12639:12640   */\n      0x00\n        /* \"#utility.yul\":12635:12641   */\n      not\n        /* \"#utility.yul\":12627:12632   */\n      dup5\n        /* \"#utility.yul\":12624:12625   */\n      0x08\n        /* \"#utility.yul\":12620:12633   */\n      mul\n        /* \"#utility.yul\":12591:12642   */\n      tag_151\n      jump\t// in\n    tag_304:\n        /* \"#utility.yul\":12587:12643   */\n      not\n        /* \"#utility.yul\":12672:12676   */\n      dup1\n        /* \"#utility.yul\":12666:12670   */\n      dup4\n        /* \"#utility.yul\":12662:12677   */\n      and\n        /* \"#utility.yul\":12652:12677   */\n      swap2\n      pop\n        /* \"#utility.yul\":12565:12683   */\n      pop\n        /* \"#utility.yul\":12514:12683   */\n      swap3\n      swap2\n      pop\n      pop\n      jump\t// out\n        /* \"#utility.yul\":12688:12983   */\n    tag_153:\n        /* \"#utility.yul\":12764:12768   */\n      0x00\n        /* \"#utility.yul\":12910:12939   */\n      tag_306\n        /* \"#utility.yul\":12935:12938   */\n      dup4\n        /* \"#utility.yul\":12929:12933   */\n      dup4\n        /* \"#utility.yul\":12910:12939   */\n      tag_152\n      jump\t// in\n    tag_306:\n        /* \"#utility.yul\":12902:12939   */\n      swap2\n      pop\n        /* \"#utility.yul\":12972:12975   */\n      dup3\n        /* \"#utility.yul\":12969:12970   */\n      0x02\n        /* \"#utility.yul\":12965:12976   */\n      mul\n        /* \"#utility.yul\":12959:12963   */\n      dup3\n        /* \"#utility.yul\":12956:12977   */\n      or\n        /* \"#utility.yul\":12948:12977   */\n      swap1\n      pop\n        /* \"#utility.yul\":12688:12983   */\n      swap3\n      swap2\n      pop\n      pop\n      jump\t// out\n        /* \"#utility.yul\":12988:14383   */\n    tag_93:\n        /* \"#utility.yul\":13105:13142   */\n      tag_308\n        /* \"#utility.yul\":13138:13141   */\n      dup3\n        /* \"#utility.yul\":13105:13142   */\n      tag_119\n      jump\t// in\n    tag_308:\n        /* \"#utility.yul\":13207:13225   */\n      0xffffffffffffffff\n        /* \"#utility.yul\":13199:13205   */\n      dup2\n        /* \"#utility.yul\":13196:13226   */\n      gt\n        /* \"#utility.yul\":13193:13249   */\n      iszero\n      tag_309\n      jumpi\n        /* \"#utility.yul\":13229:13247   */\n      tag_310\n      tag_126\n      jump\t// in\n    tag_310:\n        /* \"#utility.yul\":13193:13249   */\n    tag_309:\n        /* \"#utility.yul\":13273:13311   */\n      tag_311\n        /* \"#utility.yul\":13305:13309   */\n      dup3\n        /* \"#utility.yul\":13299:13310   */\n      sload\n        /* \"#utility.yul\":13273:13311   */\n      tag_83\n      jump\t// in\n    tag_311:\n        /* \"#utility.yul\":13358:13425   */\n      tag_312\n        /* \"#utility.yul\":13418:13424   */\n      dup3\n        /* \"#utility.yul\":13410:13416   */\n      dup3\n        /* \"#utility.yul\":13404:13408   */\n      dup6\n        /* \"#utility.yul\":13358:13425   */\n      tag_150\n      jump\t// in\n    tag_312:\n        /* \"#utility.yul\":13452:13453   */\n      0x00\n        /* \"#utility.yul\":13476:13480   */\n      0x20\n        /* \"#utility.yul\":13463:13480   */\n      swap1\n      pop\n        /* \"#utility.yul\":13508:13510   */\n      0x1f\n        /* \"#utility.yul\":13500:13506   */\n      dup4\n        /* \"#utility.yul\":13497:13511   */\n      gt\n        /* \"#utility.yul\":13525:13526   */\n      0x01\n        /* \"#utility.yul\":13520:14138   */\n      dup2\n      eq\n      tag_314\n      jumpi\n        /* \"#utility.yul\":14182:14183   */\n      0x00\n        /* \"#utility.yul\":14199:14205   */\n      dup5\n        /* \"#utility.yul\":14196:14273   */\n      iszero\n      tag_315\n      jumpi\n        /* \"#utility.yul\":14248:14257   */\n      dup3\n        /* \"#utility.yul\":14243:14246   */\n      dup8\n        /* \"#utility.yul\":14239:14258   */\n      add\n        /* \"#utility.yul\":14233:14259   */\n      mload\n        /* \"#utility.yul\":14224:14259   */\n      swap1\n      pop\n        /* \"#utility.yul\":14196:14273   */\n    tag_315:\n        /* \"#utility.yul\":14299:14366   */\n      tag_316\n        /* \"#utility.yul\":14359:14365   */\n      dup6\n        /* \"#utility.yul\":14352:14357   */\n      dup3\n        /* \"#utility.yul\":14299:14366   */\n      tag_153\n      jump\t// in\n    tag_316:\n        /* \"#utility.yul\":14293:14297   */\n      dup7\n        /* \"#utility.yul\":14286:14367   */\n      sstore\n        /* \"#utility.yul\":14155:14377   */\n      pop\n        /* \"#utility.yul\":13490:14377   */\n      jump(tag_313)\n        /* \"#utility.yul\":13520:14138   */\n    tag_314:\n        /* \"#utility.yul\":13572:13576   */\n      0x1f\n        /* \"#utility.yul\":13568:13577   */\n      not\n        /* \"#utility.yul\":13560:13566   */\n      dup5\n        /* \"#utility.yul\":13556:13578   */\n      and\n        /* \"#utility.yul\":13606:13643   */\n      tag_317\n        /* \"#utility.yul\":13638:13642   */\n      dup7\n        /* \"#utility.yul\":13606:13643   */\n      tag_139\n      jump\t// in\n    tag_317:\n        /* \"#utility.yul\":13665:13666   */\n      0x00\n        /* \"#utility.yul\":13679:13887   */\n    tag_318:\n        /* \"#utility.yul\":13693:13700   */\n      dup3\n        /* \"#utility.yul\":13690:13691   */\n      dup2\n        /* \"#utility.yul\":13687:13701   */\n      lt\n        /* \"#utility.yul\":13679:13887   */\n      iszero\n      tag_320\n      jumpi\n        /* \"#utility.yul\":13772:13781   */\n      dup5\n        /* \"#utility.yul\":13767:13770   */\n      dup10\n        /* \"#utility.yul\":13763:13782   */\n      add\n        /* \"#utility.yul\":13757:13783   */\n      mload\n        /* \"#utility.yul\":13749:13755   */\n      dup3\n        /* \"#utility.yul\":13742:13784   */\n      sstore\n        /* \"#utility.yul\":13823:13824   */\n      0x01\n        /* \"#utility.yul\":13815:13821   */\n      dup3\n        /* \"#utility.yul\":13811:13825   */\n      add\n        /* \"#utility.yul\":13801:13825   */\n      swap2\n      pop\n        /* \"#utility.yul\":13870:13872   */\n      0x20\n        /* \"#utility.yul\":13859:13868   */\n      dup6\n        /* \"#utility.yul\":13855:13873   */\n      add\n        /* \"#utility.yul\":13842:13873   */\n      swap5\n      pop\n        /* \"#utility.yul\":13716:13720   */\n      0x20\n        /* \"#utility.yul\":13713:13714   */\n      dup2\n        /* \"#utility.yul\":13709:13721   */\n      add\n        /* \"#utility.yul\":13704:13721   */\n      swap1\n      pop\n        /* \"#utility.yul\":13679:13887   */\n      jump(tag_318)\n    tag_320:\n        /* \"#utility.yul\":13915:13921   */\n      dup7\n        /* \"#utility.yul\":13906:13913   */\n      dup4\n        /* \"#utility.yul\":13903:13922   */\n      lt\n        /* \"#utility.yul\":13900:14079   */\n      iszero\n      tag_321\n      jumpi\n        /* \"#utility.yul\":13973:13982   */\n      dup5\n        /* \"#utility.yul\":13968:13971   */\n      dup10\n        /* \"#utility.yul\":13964:13983   */\n      add\n        /* \"#utility.yul\":13958:13984   */\n      mload\n        /* \"#utility.yul\":14016:14064   */\n      tag_322\n        /* \"#utility.yul\":14058:14062   */\n      0x1f\n        /* \"#utility.yul\":14050:14056   */\n      dup10\n        /* \"#utility.yul\":14046:14063   */\n      and\n        /* \"#utility.yul\":14035:14044   */\n      dup3\n        /* \"#utility.yul\":14016:14064   */\n      tag_152\n      jump\t// in\n    tag_322:\n        /* \"#utility.yul\":14008:14014   */\n      dup4\n        /* \"#utility.yul\":14001:14065   */\n      sstore\n        /* \"#utility.yul\":13923:14079   */\n      pop\n        /* \"#utility.yul\":13900:14079   */\n    tag_321:\n        /* \"#utility.yul\":14125:14126   */\n      0x01\n        /* \"#utility.yul\":14121:14122   */\n      0x02\n        /* \"#utility.yul\":14113:14119   */\n      dup9\n        /* \"#utility.yul\":14109:14123   */\n      mul\n        /* \"#utility.yul\":14105:14127   */\n      add\n        /* \"#utility.yul\":14099:14103   */\n      dup9\n        /* \"#utility.yul\":14092:14128   */\n      sstore\n        /* \"#utility.yul\":13527:14138   */\n      pop\n      pop\n      pop\n        /* \"#utility.yul\":13490:14377   */\n    tag_313:\n      pop\n        /* \"#utility.yul\":13080:14383   */\n      pop\n      pop\n      pop\n        /* \"#utility.yul\":12988:14383   */\n      pop\n      pop\n      jump\t// out\n        /* \"#utility.yul\":14389:14622   */\n    tag_97:\n        /* \"#utility.yul\":14428:14431   */\n      0x00\n        /* \"#utility.yul\":14451:14475   */\n      tag_324\n        /* \"#utility.yul\":14469:14474   */\n      dup3\n        /* \"#utility.yul\":14451:14475   */\n      tag_108\n      jump\t// in\n    tag_324:\n        /* \"#utility.yul\":14442:14475   */\n      swap2\n      pop\n        /* \"#utility.yul\":14497:14563   */\n      0xffffffffffffffffffffffffffffffffffffffffffffffffffffffffffffffff\n        /* \"#utility.yul\":14490:14495   */\n      dup3\n        /* \"#utility.yul\":14487:14564   */\n      sub\n        /* \"#utility.yul\":14484:14587   */\n      tag_325\n      jumpi\n        /* \"#utility.yul\":14567:14585   */\n      tag_326\n      tag_137\n      jump\t// in\n    tag_326:\n        /* \"#utility.yul\":14484:14587   */\n    tag_325:\n        /* \"#utility.yul\":14614:14615   */\n      0x01\n        /* \"#utility.yul\":14607:14612   */\n      dup3\n        /* \"#utility.yul\":14603:14616   */\n      add\n        /* \"#utility.yul\":14596:14616   */\n      swap1\n      pop\n        /* \"#utility.yul\":14389:14622   */\n      swap2\n      swap1\n      pop\n      jump\t// out\n\n    auxdata: 0xa26469706673582212206032819d515396884cc023a103d145b2e152ccfd2f89affc5fa64d4bf9fac89d64736f6c63430008150033\n}\n","bytecode":{"linkReferences":{},"object":"608060405234801562000010575f80fd5b50604051620011da380380620011da833981810160405281019062000036919062000122565b8060015f6101000a81548173ffffffffffffffffffffffffffffffffffffffff021916908373ffffffffffffffffffffffffffffffffffffffff16021790555081600281905550505062000167565b5f80fd5b5f819050919050565b6200009d8162000089565b8114620000a8575f80fd5b50565b5f81519050620000bb8162000092565b92915050565b5f73ffffffffffffffffffffffffffffffffffffffff82169050919050565b5f620000ec82620000c1565b9050919050565b620000fe81620000e0565b811462000109575f80fd5b50565b5f815190506200011c81620000f3565b92915050565b5f80604083850312156200013b576200013a62000085565b5b5f6200014a85828601620000ab565b92505060206200015d858286016200010c565b9150509250929050565b61106580620001755f395ff3fe60806040526004361061009b575f3560e01c806381d12c581161006357806381d12c581461018557806382fde093146101c55780638a9cfd55146101ef578063937e09b11461020b578063d7bb99ba14610235578063d7d1bbdb1461023f5761009b565b8063034410061461009f5780630a144391146100c75780633410452a14610103578063481c6a751461012d578063562a75d514610157575b5f80fd5b3480156100aa575f80fd5b506100c560048036038101906100c0919061082f565b610267565b005b3480156100d2575f80fd5b506100ed60048036038101906100e891906108b4565b6103a5565b6040516100fa91906108f9565b60405180910390f35b34801561010e575f80fd5b506101176103c2565b6040516101249190610921565b60405180910390f35b348015610138575f80fd5b506101416103cd565b60405161014e9190610949565b60405180910390f35b348015610162575f80fd5b5061016b6103f2565b60405161017c959493929190610962565b60405180910390f35b348015610190575f80fd5b506101ab60048036038101906101a6919061082f565b610436565b6040516101bc959493929190610a3d565b60405180910390f35b3480156101d0575f80fd5b506101d9610528565b6040516101e69190610921565b60405180910390f35b61020960048036038101906102049190610bfc565b61052e565b005b348015610216575f80fd5b5061021f61062d565b60405161022c9190610921565b60405180910390f35b61023d610633565b005b34801561024a575f80fd5b506102656004803603810190610260919061082f565b6106ae565b005b60015f9054906101000a900473ffffffffffffffffffffffffffffffffffffffff1673ffffffffffffffffffffffffffffffffffffffff163373ffffffffffffffffffffffffffffffffffffffff16146102bf575f80fd5b5f8082815481106102d3576102d2610c68565b5b905f5260205f209060050201905060026004546102f09190610cef565b8160030154116102fe575f80fd5b8060020160149054906101000a900460ff1615610319575f80fd5b806002015f9054906101000a900473ffffffffffffffffffffffffffffffffffffffff1673ffffffffffffffffffffffffffffffffffffffff166108fc826001015490811502906040515f60405180830381858888f19350505050158015610383573d5f803e3d5ffd5b5060018160020160146101000a81548160ff0219169083151502179055505050565b6003602052805f5260405f205f915054906101000a900460ff1681565b5f8080549050905090565b60015f9054906101000a900473ffffffffffffffffffffffffffffffffffffffff1681565b5f805f805f600254475f8054905060045460015f9054906101000a900473ffffffffffffffffffffffffffffffffffffffff16945094509450945094509091929394565b5f8181548110610444575f80fd5b905f5260205f2090600502015f91509050805f01805461046390610d4c565b80601f016020809104026020016040519081016040528092919081815260200182805461048f90610d4c565b80156104da5780601f106104b1576101008083540402835291602001916104da565b820191905f5260205f20905b8154815290600101906020018083116104bd57829003601f168201915b505050505090806001015490806002015f9054906101000a900473ffffffffffffffffffffffffffffffffffffffff16908060020160149054906101000a900460ff16908060030154905085565b60045481565b60015f9054906101000a900473ffffffffffffffffffffffffffffffffffffffff1673ffffffffffffffffffffffffffffffffffffffff163373ffffffffffffffffffffffffffffffffffffffff1614610586575f80fd5b5f8060018160018154018082558091505003905f5260205f209060050201905083815f0190816105b69190610f19565b5082816001018190555081816002015f6101000a81548173ffffffffffffffffffffffffffffffffffffffff021916908373ffffffffffffffffffffffffffffffffffffffff1602179055505f8160020160146101000a81548160ff0219169083151502179055505f816003018190555050505050565b60025481565b6002543411610640575f80fd5b600160035f3373ffffffffffffffffffffffffffffffffffffffff1673ffffffffffffffffffffffffffffffffffffffff1681526020019081526020015f205f6101000a81548160ff02191690831515021790555060045f8154809291906106a790610fe8565b9190505550565b5f8082815481106106c2576106c1610c68565b5b905f5260205f209060050201905060035f3373ffffffffffffffffffffffffffffffffffffffff1673ffffffffffffffffffffffffffffffffffffffff1681526020019081526020015f205f9054906101000a900460ff16610722575f80fd5b806004015f3373ffffffffffffffffffffffffffffffffffffffff1673ffffffffffffffffffffffffffffffffffffffff1681526020019081526020015f205f9054906101000a900460ff1615610777575f80fd5b6001816004015f3373ffffffffffffffffffffffffffffffffffffffff1673ffffffffffffffffffffffffffffffffffffffff1681526020019081526020015f205f6101000a81548160ff021916908315150217905550806003015f8154809291906107e290610fe8565b91905055505050565b5f604051905090565b5f80fd5b5f80fd5b5f819050919050565b61080e816107fc565b8114610818575f80fd5b50565b5f8135905061082981610805565b92915050565b5f60208284031215610844576108436107f4565b5b5f6108518482850161081b565b91505092915050565b5f73ffffffffffffffffffffffffffffffffffffffff82169050919050565b5f6108838261085a565b9050919050565b61089381610879565b811461089d575f80fd5b50565b5f813590506108ae8161088a565b92915050565b5f602082840312156108c9576108c86107f4565b5b5f6108d6848285016108a0565b91505092915050565b5f8115159050919050565b6108f3816108df565b82525050565b5f60208201905061090c5f8301846108ea565b92915050565b61091b816107fc565b82525050565b5f6020820190506109345f830184610912565b92915050565b61094381610879565b82525050565b5f60208201905061095c5f83018461093a565b92915050565b5f60a0820190506109755f830188610912565b6109826020830187610912565b61098f6040830186610912565b61099c6060830185610912565b6109a9608083018461093a565b9695505050505050565b5f81519050919050565b5f82825260208201905092915050565b5f5b838110156109ea5780820151818401526020810190506109cf565b5f8484015250505050565b5f601f19601f8301169050919050565b5f610a0f826109b3565b610a1981856109bd565b9350610a298185602086016109cd565b610a32816109f5565b840191505092915050565b5f60a0820190508181035f830152610a558188610a05565b9050610a646020830187610912565b610a71604083018661093a565b610a7e60608301856108ea565b610a8b6080830184610912565b9695505050505050565b5f80fd5b5f80fd5b7f4e487b71000000000000000000000000000000000000000000000000000000005f52604160045260245ffd5b610ad3826109f5565b810181811067ffffffffffffffff82111715610af257610af1610a9d565b5b80604052505050565b5f610b046107eb565b9050610b108282610aca565b919050565b5f67ffffffffffffffff821115610b2f57610b2e610a9d565b5b610b38826109f5565b9050602081019050919050565b828183375f83830152505050565b5f610b65610b6084610b15565b610afb565b905082815260208101848484011115610b8157610b80610a99565b5b610b8c848285610b45565b509392505050565b5f82601f830112610ba857610ba7610a95565b5b8135610bb8848260208601610b53565b91505092915050565b5f610bcb8261085a565b9050919050565b610bdb81610bc1565b8114610be5575f80fd5b50565b5f81359050610bf681610bd2565b92915050565b5f805f60608486031215610c1357610c126107f4565b5b5f84013567ffffffffffffffff811115610c3057610c2f6107f8565b5b610c3c86828701610b94565b9350506020610c4d8682870161081b565b9250506040610c5e86828701610be8565b9150509250925092565b7f4e487b71000000000000000000000000000000000000000000000000000000005f52603260045260245ffd5b7f4e487b71000000000000000000000000000000000000000000000000000000005f52601260045260245ffd5b7f4e487b71000000000000000000000000000000000000000000000000000000005f52601160045260245ffd5b5f610cf9826107fc565b9150610d04836107fc565b925082610d1457610d13610c95565b5b828204905092915050565b7f4e487b71000000000000000000000000000000000000000000000000000000005f52602260045260245ffd5b5f6002820490506001821680610d6357607f821691505b602082108103610d7657610d75610d1f565b5b50919050565b5f819050815f5260205f209050919050565b5f6020601f8301049050919050565b5f82821b905092915050565b5f60088302610dd87fffffffffffffffffffffffffffffffffffffffffffffffffffffffffffffffff82610d9d565b610de28683610d9d565b95508019841693508086168417925050509392505050565b5f819050919050565b5f610e1d610e18610e13846107fc565b610dfa565b6107fc565b9050919050565b5f819050919050565b610e3683610e03565b610e4a610e4282610e24565b848454610da9565b825550505050565b5f90565b610e5e610e52565b610e69818484610e2d565b505050565b5b81811015610e8c57610e815f82610e56565b600181019050610e6f565b5050565b601f821115610ed157610ea281610d7c565b610eab84610d8e565b81016020851015610eba578190505b610ece610ec685610d8e565b830182610e6e565b50505b505050565b5f82821c905092915050565b5f610ef15f1984600802610ed6565b1980831691505092915050565b5f610f098383610ee2565b9150826002028217905092915050565b610f22826109b3565b67ffffffffffffffff811115610f3b57610f3a610a9d565b5b610f458254610d4c565b610f50828285610e90565b5f60209050601f831160018114610f81575f8415610f6f578287015190505b610f798582610efe565b865550610fe0565b601f198416610f8f86610d7c565b5f5b82811015610fb657848901518255600182019150602085019450602081019050610f91565b86831015610fd35784890151610fcf601f891682610ee2565b8355505b6001600288020188555050505b505050505050565b5f610ff2826107fc565b91507fffffffffffffffffffffffffffffffffffffffffffffffffffffffffffffffff820361102457611023610cc2565b5b60018201905091905056fea26469706673582212206032819d515396884cc023a103d145b2e152ccfd2f89affc5fa64d4bf9fac89d64736f6c63430008150033","opcodes":"PUSH1 0x80 PUSH1 0x40 MSTORE CALLVALUE DUP1 ISZERO PUSH3 0x10 JUMPI PUSH0 DUP1 REVERT JUMPDEST POP PUSH1 0x40 MLOAD PUSH3 0x11DA CODESIZE SUB DUP1 PUSH3 0x11DA DUP4 CODECOPY DUP2 DUP2 ADD PUSH1 0x40 MSTORE DUP2 ADD SWAP1 PUSH3 0x36 SWAP2 SWAP1 PUSH3 0x122 JUMP JUMPDEST DUP1 PUSH1 0x1 PUSH0 PUSH2 0x100 EXP DUP2 SLOAD DUP2 PUSH20 0xFFFFFFFFFFFFFFFFFFFFFFFFFFFFFFFFFFFFFFFF MUL NOT AND SWAP1 DUP4 PUSH20 0xFFFFFFFFFFFFFFFFFFFFFFFFFFFFFFFFFFFFFFFF AND MUL OR SWAP1 SSTORE POP DUP2 PUSH1 0x2 DUP2 SWAP1 SSTORE POP POP POP PUSH3 0x167 JUMP JUMPDEST PUSH0 DUP1 REVERT JUMPDEST PUSH0 DUP2 SWAP1 POP SWAP2 SWAP1 POP JUMP JUMPDEST PUSH3 0x9D DUP2 PUSH3 0x89 JUMP JUMPDEST DUP2 EQ PUSH3 0xA8 JUMPI PUSH0 DUP1 REVERT JUMPDEST POP JUMP JUMPDEST PUSH0 DUP2 MLOAD SWAP1 POP PUSH3 0xBB DUP2 PUSH3 0x92 JUMP JUMPDEST SWAP3 SWAP2 POP POP JUMP JUMPDEST PUSH0 PUSH20 0xFFFFFFFFFFFFFFFFFFFFFFFFFFFFFFFFFFFFFFFF DUP3 AND SWAP1 POP SWAP2 SWAP1 POP JUMP JUMPDEST PUSH0 PUSH3 0xEC DUP3 PUSH3 0xC1 JUMP JUMPDEST SWAP1 POP SWAP2 SWAP1 POP JUMP JUMPDEST PUSH3 0xFE DUP2 PUSH3 0xE0 JUMP JUMPDEST DUP2 EQ PUSH3 0x109 JUMPI PUSH0 DUP1 REVERT JUMPDEST POP JUMP JUMPDEST PUSH0 DUP2 MLOAD SWAP1 POP PUSH3 0x11C DUP2 PUSH3 0xF3 JUMP JUMPDEST SWAP3 SWAP2 POP POP JUMP JUMPDEST PUSH0 DUP1 PUSH1 0x40 DUP4 DUP6 SUB SLT ISZERO PUSH3 0x13B JUMPI PUSH3 0x13A PUSH3 0x85 JUMP JUMPDEST JUMPDEST PUSH0 PUSH3 0x14A DUP6 DUP3 DUP7 ADD PUSH3 0xAB JUMP JUMPDEST SWAP3 POP POP PUSH1 0x20 PUSH3 0x15D DUP6 DUP3 DUP7 ADD PUSH3 0x10C JUMP JUMPDEST SWAP2 POP POP SWAP3 POP SWAP3 SWAP1 POP JUMP JUMPDEST PUSH2 0x1065 DUP1 PUSH3 0x175 PUSH0 CODECOPY PUSH0 RETURN INVALID PUSH1 0x80 PUSH1 0x40 MSTORE PUSH1 0x4 CALLDATASIZE LT PUSH2 0x9B JUMPI PUSH0 CALLDATALOAD PUSH1 0xE0 SHR DUP1 PUSH4 0x81D12C58 GT PUSH2 0x63 JUMPI DUP1 PUSH4 0x81D12C58 EQ PUSH2 0x185 JUMPI DUP1 PUSH4 0x82FDE093 EQ PUSH2 0x1C5 JUMPI DUP1 PUSH4 0x8A9CFD55 EQ PUSH2 0x1EF JUMPI DUP1 PUSH4 0x937E09B1 EQ PUSH2 0x20B JUMPI DUP1 PUSH4 0xD7BB99BA EQ PUSH2 0x235 JUMPI DUP1 PUSH4 0xD7D1BBDB EQ PUSH2 0x23F JUMPI PUSH2 0x9B JUMP JUMPDEST DUP1 PUSH4 0x3441006 EQ PUSH2 0x9F JUMPI DUP1 PUSH4 0xA144391 EQ PUSH2 0xC7 JUMPI DUP1 PUSH4 0x3410452A EQ PUSH2 0x103 JUMPI DUP1 PUSH4 0x481C6A75 EQ PUSH2 0x12D JUMPI DUP1 PUSH4 0x562A75D5 EQ PUSH2 0x157 JUMPI JUMPDEST PUSH0 DUP1 REVERT JUMPDEST CALLVALUE DUP1 ISZERO PUSH2 0xAA JUMPI PUSH0 DUP1 REVERT JUMPDEST POP PUSH2 0xC5 PUSH1 0x4 DUP1 CALLDATASIZE SUB DUP2 ADD SWAP1 PUSH2 0xC0 SWAP2 SWAP1 PUSH2 0x82F JUMP JUMPDEST PUSH2 0x267 JUMP JUMPDEST STOP JUMPDEST CALLVALUE DUP1 ISZERO PUSH2 0xD2 JUMPI PUSH0 DUP1 REVERT JUMPDEST POP PUSH2 0xED PUSH1 0x4 DUP1 CALLDATASIZE SUB DUP2 ADD SWAP1 PUSH2 0xE8 SWAP2 SWAP1 PUSH2 0x8B4 JUMP JUMPDEST PUSH2 0x3A5 JUMP JUMPDEST PUSH1 0x40 MLOAD PUSH2 0xFA SWAP2 SWAP1 PUSH2 0x8F9 JUMP JUMPDEST PUSH1 0x40 MLOAD DUP1 SWAP2 SUB SWAP1 RETURN JUMPDEST CALLVALUE DUP1 ISZERO PUSH2 0x10E JUMPI PUSH0 DUP1 REVERT JUMPDEST POP PUSH2 0x117 PUSH2 0x3C2 JUMP JUMPDEST PUSH1 0x40 MLOAD PUSH2 0x124 SWAP2 SWAP1 PUSH2 0x921 JUMP JUMPDEST PUSH1 0x40 MLOAD DUP1 SWAP2 SUB SWAP1 RETURN JUMPDEST CALLVALUE DUP1 ISZERO PUSH2 0x138 JUMPI PUSH0 DUP1 REVERT JUMPDEST POP PUSH2 0x141 PUSH2 0x3CD JUMP JUMPDEST PUSH1 0x40 MLOAD PUSH2 0x14E SWAP2 SWAP1 PUSH2 0x949 JUMP JUMPDEST PUSH1 0x40 MLOAD DUP1 SWAP2 SUB SWAP1 RETURN JUMPDEST CALLVALUE DUP1 ISZERO PUSH2 0x162 JUMPI PUSH0 DUP1 REVERT JUMPDEST POP PUSH2 0x16B PUSH2 0x3F2 JUMP JUMPDEST PUSH1 0x40 MLOAD PUSH2 0x17C SWAP6 SWAP5 SWAP4 SWAP3 SWAP2 SWAP1 PUSH2 0x962 JUMP JUMPDEST PUSH1 0x40 MLOAD DUP1 SWAP2 SUB SWAP1 RETURN JUMPDEST CALLVALUE DUP1 ISZERO PUSH2 0x190 JUMPI PUSH0 DUP1 REVERT JUMPDEST POP PUSH2 0x1AB PUSH1 0x4 DUP1 CALLDATASIZE SUB DUP2 ADD SWAP1 PUSH2 0x1A6 SWAP2 SWAP1 PUSH2 0x82F JUMP JUMPDEST PUSH2 0x436 JUMP JUMPDEST PUSH1 0x40 MLOAD PUSH2 0x1BC SWAP6 SWAP5 SWAP4 SWAP3 SWAP2 SWAP1 PUSH2 0xA3D JUMP JUMPDEST PUSH1 0x40 MLOAD DUP1 SWAP2 SUB SWAP1 RETURN JUMPDEST CALLVALUE DUP1 ISZERO PUSH2 0x1D0 JUMPI PUSH0 DUP1 REVERT JUMPDEST POP PUSH2 0x1D9 PUSH2 0x528 JUMP JUMPDEST PUSH1 0x40 MLOAD PUSH2 0x1E6 SWAP2 SWAP1 PUSH2 0x921 JUMP JUMPDEST PUSH1 0x40 MLOAD DUP1 SWAP2 SUB SWAP1 RETURN JUMPDEST PUSH2 0x209 PUSH1 0x4 DUP1 CALLDATASIZE SUB DUP2 ADD SWAP1 PUSH2 0x204 SWAP2 SWAP1 PUSH2 0xBFC JUMP JUMPDEST PUSH2 0x52E JUMP JUMPDEST STOP JUMPDEST CALLVALUE DUP1 ISZERO PUSH2 0x216 JUMPI PUSH0 DUP1 REVERT JUMPDEST POP PUSH2 0x21F PUSH2 0x62D JUMP JUMPDEST PUSH1 0x40 MLOAD PUSH2 0x22C SWAP2 SWAP1 PUSH2 0x921 JUMP JUMPDEST PUSH1 0x40 MLOAD DUP1 SWAP2 SUB SWAP1 RETURN JUMPDEST PUSH2 0x23D PUSH2 0x633 JUMP JUMPDEST STOP JUMPDEST CALLVALUE DUP1 ISZERO PUSH2 0x24A JUMPI PUSH0 DUP1 REVERT JUMPDEST POP PUSH2 0x265 PUSH1 0x4 DUP1 CALLDATASIZE SUB DUP2 ADD SWAP1 PUSH2 0x260 SWAP2 SWAP1 PUSH2 0x82F JUMP JUMPDEST PUSH2 0x6AE JUMP JUMPDEST STOP JUMPDEST PUSH1 0x1 PUSH0 SWAP1 SLOAD SWAP1 PUSH2 0x100 EXP SWAP1 DIV PUSH20 0xFFFFFFFFFFFFFFFFFFFFFFFFFFFFFFFFFFFFFFFF AND PUSH20 0xFFFFFFFFFFFFFFFFFFFFFFFFFFFFFFFFFFFFFFFF AND CALLER PUSH20 0xFFFFFFFFFFFFFFFFFFFFFFFFFFFFFFFFFFFFFFFF AND EQ PUSH2 0x2BF JUMPI PUSH0 DUP1 REVERT JUMPDEST PUSH0 DUP1 DUP3 DUP2 SLOAD DUP2 LT PUSH2 0x2D3 JUMPI PUSH2 0x2D2 PUSH2 0xC68 JUMP JUMPDEST JUMPDEST SWAP1 PUSH0 MSTORE PUSH1 0x20 PUSH0 KECCAK256 SWAP1 PUSH1 0x5 MUL ADD SWAP1 POP PUSH1 0x2 PUSH1 0x4 SLOAD PUSH2 0x2F0 SWAP2 SWAP1 PUSH2 0xCEF JUMP JUMPDEST DUP2 PUSH1 0x3 ADD SLOAD GT PUSH2 0x2FE JUMPI PUSH0 DUP1 REVERT JUMPDEST DUP1 PUSH1 0x2 ADD PUSH1 0x14 SWAP1 SLOAD SWAP1 PUSH2 0x100 EXP SWAP1 DIV PUSH1 0xFF AND ISZERO PUSH2 0x319 JUMPI PUSH0 DUP1 REVERT JUMPDEST DUP1 PUSH1 0x2 ADD PUSH0 SWAP1 SLOAD SWAP1 PUSH2 0x100 EXP SWAP1 DIV PUSH20 0xFFFFFFFFFFFFFFFFFFFFFFFFFFFFFFFFFFFFFFFF AND PUSH20 0xFFFFFFFFFFFFFFFFFFFFFFFFFFFFFFFFFFFFFFFF AND PUSH2 0x8FC DUP3 PUSH1 0x1 ADD SLOAD SWAP1 DUP2 ISZERO MUL SWAP1 PUSH1 0x40 MLOAD PUSH0 PUSH1 0x40 MLOAD DUP1 DUP4 SUB DUP2 DUP6 DUP9 DUP9 CALL SWAP4 POP POP POP POP ISZERO DUP1 ISZERO PUSH2 0x383 JUMPI RETURNDATASIZE PUSH0 DUP1 RETURNDATACOPY RETURNDATASIZE PUSH0 REVERT JUMPDEST POP PUSH1 0x1 DUP2 PUSH1 0x2 ADD PUSH1 0x14 PUSH2 0x100 EXP DUP2 SLOAD DUP2 PUSH1 0xFF MUL NOT AND SWAP1 DUP4 ISZERO ISZERO MUL OR SWAP1 SSTORE POP POP POP JUMP JUMPDEST PUSH1 0x3 PUSH1 0x20 MSTORE DUP1 PUSH0 MSTORE PUSH1 0x40 PUSH0 KECCAK256 PUSH0 SWAP2 POP SLOAD SWAP1 PUSH2 0x100 EXP SWAP1 DIV PUSH1 0xFF AND DUP2 JUMP JUMPDEST PUSH0 DUP1 DUP1 SLOAD SWAP1 POP SWAP1 POP SWAP1 JUMP JUMPDEST PUSH1 0x1 PUSH0 SWAP1 SLOAD SWAP1 PUSH2 0x100 EXP SWAP1 DIV PUSH20 0xFFFFFFFFFFFFFFFFFFFFFFFFFFFFFFFFFFFFFFFF AND DUP2 JUMP JUMPDEST PUSH0 DUP1 PUSH0 DUP1 PUSH0 PUSH1 0x2 SLOAD SELFBALANCE PUSH0 DUP1 SLOAD SWAP1 POP PUSH1 0x4 SLOAD PUSH1 0x1 PUSH0 SWAP1 SLOAD SWAP1 PUSH2 0x100 EXP SWAP1 DIV PUSH20 0xFFFFFFFFFFFFFFFFFFFFFFFFFFFFFFFFFFFFFFFF AND SWAP5 POP SWAP5 POP SWAP5 POP SWAP5 POP SWAP5 POP SWAP1 SWAP2 SWAP3 SWAP4 SWAP5 JUMP JUMPDEST PUSH0 DUP2 DUP2 SLOAD DUP2 LT PUSH2 0x444 JUMPI PUSH0 DUP1 REVERT JUMPDEST SWAP1 PUSH0 MSTORE PUSH1 0x20 PUSH0 KECCAK256 SWAP1 PUSH1 0x5 MUL ADD PUSH0 SWAP2 POP SWAP1 POP DUP1 PUSH0 ADD DUP1 SLOAD PUSH2 0x463 SWAP1 PUSH2 0xD4C JUMP JUMPDEST DUP1 PUSH1 0x1F ADD PUSH1 0x20 DUP1 SWAP2 DIV MUL PUSH1 0x20 ADD PUSH1 0x40 MLOAD SWAP1 DUP2 ADD PUSH1 0x40 MSTORE DUP1 SWAP3 SWAP2 SWAP1 DUP2 DUP2 MSTORE PUSH1 0x20 ADD DUP3 DUP1 SLOAD PUSH2 0x48F SWAP1 PUSH2 0xD4C JUMP JUMPDEST DUP1 ISZERO PUSH2 0x4DA JUMPI DUP1 PUSH1 0x1F LT PUSH2 0x4B1 JUMPI PUSH2 0x100 DUP1 DUP4 SLOAD DIV MUL DUP4 MSTORE SWAP2 PUSH1 0x20 ADD SWAP2 PUSH2 0x4DA JUMP JUMPDEST DUP3 ADD SWAP2 SWAP1 PUSH0 MSTORE PUSH1 0x20 PUSH0 KECCAK256 SWAP1 JUMPDEST DUP2 SLOAD DUP2 MSTORE SWAP1 PUSH1 0x1 ADD SWAP1 PUSH1 0x20 ADD DUP1 DUP4 GT PUSH2 0x4BD JUMPI DUP3 SWAP1 SUB PUSH1 0x1F AND DUP3 ADD SWAP2 JUMPDEST POP POP POP POP POP SWAP1 DUP1 PUSH1 0x1 ADD SLOAD SWAP1 DUP1 PUSH1 0x2 ADD PUSH0 SWAP1 SLOAD SWAP1 PUSH2 0x100 EXP SWAP1 DIV PUSH20 0xFFFFFFFFFFFFFFFFFFFFFFFFFFFFFFFFFFFFFFFF AND SWAP1 DUP1 PUSH1 0x2 ADD PUSH1 0x14 SWAP1 SLOAD SWAP1 PUSH2 0x100 EXP SWAP1 DIV PUSH1 0xFF AND SWAP1 DUP1 PUSH1 0x3 ADD SLOAD SWAP1 POP DUP6 JUMP JUMPDEST PUSH1 0x4 SLOAD DUP2 JUMP JUMPDEST PUSH1 0x1 PUSH0 SWAP1 SLOAD SWAP1 PUSH2 0x100 EXP SWAP1 DIV PUSH20 0xFFFFFFFFFFFFFFFFFFFFFFFFFFFFFFFFFFFFFFFF AND PUSH20 0xFFFFFFFFFFFFFFFFFFFFFFFFFFFFFFFFFFFFFFFF AND CALLER PUSH20 0xFFFFFFFFFFFFFFFFFFFFFFFFFFFFFFFFFFFFFFFF AND EQ PUSH2 0x586 JUMPI PUSH0 DUP1 REVERT JUMPDEST PUSH0 DUP1 PUSH1 0x1 DUP2 PUSH1 0x1 DUP2 SLOAD ADD DUP1 DUP3 SSTORE DUP1 SWAP2 POP POP SUB SWAP1 PUSH0 MSTORE PUSH1 0x20 PUSH0 KECCAK256 SWAP1 PUSH1 0x5 MUL ADD SWAP1 POP DUP4 DUP2 PUSH0 ADD SWAP1 DUP2 PUSH2 0x5B6 SWAP2 SWAP1 PUSH2 0xF19 JUMP JUMPDEST POP DUP3 DUP2 PUSH1 0x1 ADD DUP2 SWAP1 SSTORE POP DUP2 DUP2 PUSH1 0x2 ADD PUSH0 PUSH2 0x100 EXP DUP2 SLOAD DUP2 PUSH20 0xFFFFFFFFFFFFFFFFFFFFFFFFFFFFFFFFFFFFFFFF MUL NOT AND SWAP1 DUP4 PUSH20 0xFFFFFFFFFFFFFFFFFFFFFFFFFFFFFFFFFFFFFFFF AND MUL OR SWAP1 SSTORE POP PUSH0 DUP2 PUSH1 0x2 ADD PUSH1 0x14 PUSH2 0x100 EXP DUP2 SLOAD DUP2 PUSH1 0xFF MUL NOT AND SWAP1 DUP4 ISZERO ISZERO MUL OR SWAP1 SSTORE POP PUSH0 DUP2 PUSH1 0x3 ADD DUP2 SWAP1 SSTORE POP POP POP POP POP JUMP JUMPDEST PUSH1 0x2 SLOAD DUP2 JUMP JUMPDEST PUSH1 0x2 SLOAD CALLVALUE GT PUSH2 0x640 JUMPI PUSH0 DUP1 REVERT JUMPDEST PUSH1 0x1 PUSH1 0x3 PUSH0 CALLER PUSH20 0xFFFFFFFFFFFFFFFFFFFFFFFFFFFFFFFFFFFFFFFF AND PUSH20 0xFFFFFFFFFFFFFFFFFFFFFFFFFFFFFFFFFFFFFFFF AND DUP2 MSTORE PUSH1 0x20 ADD SWAP1 DUP2 MSTORE PUSH1 0x20 ADD PUSH0 KECCAK256 PUSH0 PUSH2 0x100 EXP DUP2 SLOAD DUP2 PUSH1 0xFF MUL NOT AND SWAP1 DUP4 ISZERO ISZERO MUL OR SWAP1 SSTORE POP PUSH1 0x4 PUSH0 DUP2 SLOAD DUP1 SWAP3 SWAP2 SWAP1 PUSH2 0x6A7 SWAP1 PUSH2 0xFE8 JUMP JUMPDEST SWAP2 SWAP1 POP SSTORE POP JUMP JUMPDEST PUSH0 DUP1 DUP3 DUP2 SLOAD DUP2 LT PUSH2 0x6C2 JUMPI PUSH2 0x6C1 PUSH2 0xC68 JUMP JUMPDEST JUMPDEST SWAP1 PUSH0 MSTORE PUSH1 0x20 PUSH0 KECCAK256 SWAP1 PUSH1 0x5 MUL ADD SWAP1 POP PUSH1 0x3 PUSH0 CALLER PUSH20 0xFFFFFFFFFFFFFFFFFFFFFFFFFFFFFFFFFFFFFFFF AND PUSH20 0xFFFFFFFFFFFFFFFFFFFFFFFFFFFFFFFFFFFFFFFF AND DUP2 MSTORE PUSH1 0x20 ADD SWAP1 DUP2 MSTORE PUSH1 0x20 ADD PUSH0 KECCAK256 PUSH0 SWAP1 SLOAD SWAP1 PUSH2 0x100 EXP SWAP1 DIV PUSH1 0xFF AND PUSH2 0x722 JUMPI PUSH0 DUP1 REVERT JUMPDEST DUP1 PUSH1 0x4 ADD PUSH0 CALLER PUSH20 0xFFFFFFFFFFFFFFFFFFFFFFFFFFFFFFFFFFFFFFFF AND PUSH20 0xFFFFFFFFFFFFFFFFFFFFFFFFFFFFFFFFFFFFFFFF AND DUP2 MSTORE PUSH1 0x20 ADD SWAP1 DUP2 MSTORE PUSH1 0x20 ADD PUSH0 KECCAK256 PUSH0 SWAP1 SLOAD SWAP1 PUSH2 0x100 EXP SWAP1 DIV PUSH1 0xFF AND ISZERO PUSH2 0x777 JUMPI PUSH0 DUP1 REVERT JUMPDEST PUSH1 0x1 DUP2 PUSH1 0x4 ADD PUSH0 CALLER PUSH20 0xFFFFFFFFFFFFFFFFFFFFFFFFFFFFFFFFFFFFFFFF AND PUSH20 0xFFFFFFFFFFFFFFFFFFFFFFFFFFFFFFFFFFFFFFFF AND DUP2 MSTORE PUSH1 0x20 ADD SWAP1 DUP2 MSTORE PUSH1 0x20 ADD PUSH0 KECCAK256 PUSH0 PUSH2 0x100 EXP DUP2 SLOAD DUP2 PUSH1 0xFF MUL NOT AND SWAP1 DUP4 ISZERO ISZERO MUL OR SWAP1 SSTORE POP DUP1 PUSH1 0x3 ADD PUSH0 DUP2 SLOAD DUP1 SWAP3 SWAP2 SWAP1 PUSH2 0x7E2 SWAP1 PUSH2 0xFE8 JUMP JUMPDEST SWAP2 SWAP1 POP SSTORE POP POP POP JUMP JUMPDEST PUSH0 PUSH1 0x40 MLOAD SWAP1 POP SWAP1 JUMP JUMPDEST PUSH0 DUP1 REVERT JUMPDEST PUSH0 DUP1 REVERT JUMPDEST PUSH0 DUP2 SWAP1 POP SWAP2 SWAP1 POP JUMP JUMPDEST PUSH2 0x80E DUP2 PUSH2 0x7FC JUMP JUMPDEST DUP2 EQ PUSH2 0x818 JUMPI PUSH0 DUP1 REVERT JUMPDEST POP JUMP JUMPDEST PUSH0 DUP2 CALLDATALOAD SWAP1 POP PUSH2 0x829 DUP2 PUSH2 0x805 JUMP JUMPDEST SWAP3 SWAP2 POP POP JUMP JUMPDEST PUSH0 PUSH1 0x20 DUP3 DUP5 SUB SLT ISZERO PUSH2 0x844 JUMPI PUSH2 0x843 PUSH2 0x7F4 JUMP JUMPDEST JUMPDEST PUSH0 PUSH2 0x851 DUP5 DUP3 DUP6 ADD PUSH2 0x81B JUMP JUMPDEST SWAP2 POP POP SWAP3 SWAP2 POP POP JUMP JUMPDEST PUSH0 PUSH20 0xFFFFFFFFFFFFFFFFFFFFFFFFFFFFFFFFFFFFFFFF DUP3 AND SWAP1 POP SWAP2 SWAP1 POP JUMP JUMPDEST PUSH0 PUSH2 0x883 DUP3 PUSH2 0x85A JUMP JUMPDEST SWAP1 POP SWAP2 SWAP1 POP JUMP JUMPDEST PUSH2 0x893 DUP2 PUSH2 0x879 JUMP JUMPDEST DUP2 EQ PUSH2 0x89D JUMPI PUSH0 DUP1 REVERT JUMPDEST POP JUMP JUMPDEST PUSH0 DUP2 CALLDATALOAD SWAP1 POP PUSH2 0x8AE DUP2 PUSH2 0x88A JUMP JUMPDEST SWAP3 SWAP2 POP POP JUMP JUMPDEST PUSH0 PUSH1 0x20 DUP3 DUP5 SUB SLT ISZERO PUSH2 0x8C9 JUMPI PUSH2 0x8C8 PUSH2 0x7F4 JUMP JUMPDEST JUMPDEST PUSH0 PUSH2 0x8D6 DUP5 DUP3 DUP6 ADD PUSH2 0x8A0 JUMP JUMPDEST SWAP2 POP POP SWAP3 SWAP2 POP POP JUMP JUMPDEST PUSH0 DUP2 ISZERO ISZERO SWAP1 POP SWAP2 SWAP1 POP JUMP JUMPDEST PUSH2 0x8F3 DUP2 PUSH2 0x8DF JUMP JUMPDEST DUP3 MSTORE POP POP JUMP JUMPDEST PUSH0 PUSH1 0x20 DUP3 ADD SWAP1 POP PUSH2 0x90C PUSH0 DUP4 ADD DUP5 PUSH2 0x8EA JUMP JUMPDEST SWAP3 SWAP2 POP POP JUMP JUMPDEST PUSH2 0x91B DUP2 PUSH2 0x7FC JUMP JUMPDEST DUP3 MSTORE POP POP JUMP JUMPDEST PUSH0 PUSH1 0x20 DUP3 ADD SWAP1 POP PUSH2 0x934 PUSH0 DUP4 ADD DUP5 PUSH2 0x912 JUMP JUMPDEST SWAP3 SWAP2 POP POP JUMP JUMPDEST PUSH2 0x943 DUP2 PUSH2 0x879 JUMP JUMPDEST DUP3 MSTORE POP POP JUMP JUMPDEST PUSH0 PUSH1 0x20 DUP3 ADD SWAP1 POP PUSH2 0x95C PUSH0 DUP4 ADD DUP5 PUSH2 0x93A JUMP JUMPDEST SWAP3 SWAP2 POP POP JUMP JUMPDEST PUSH0 PUSH1 0xA0 DUP3 ADD SWAP1 POP PUSH2 0x975 PUSH0 DUP4 ADD DUP9 PUSH2 0x912 JUMP JUMPDEST PUSH2 0x982 PUSH1 0x20 DUP4 ADD DUP8 PUSH2 0x912 JUMP JUMPDEST PUSH2 0x98F PUSH1 0x40 DUP4 ADD DUP7 PUSH2 0x912 JUMP JUMPDEST PUSH2 0x99C PUSH1 0x60 DUP4 ADD DUP6 PUSH2 0x912 JUMP JUMPDEST PUSH2 0x9A9 PUSH1 0x80 DUP4 ADD DUP5 PUSH2 0x93A JUMP JUMPDEST SWAP7 SWAP6 POP POP POP POP POP POP JUMP JUMPDEST PUSH0 DUP2 MLOAD SWAP1 POP SWAP2 SWAP1 POP JUMP JUMPDEST PUSH0 DUP3 DUP3 MSTORE PUSH1 0x20 DUP3 ADD SWAP1 POP SWAP3 SWAP2 POP POP JUMP JUMPDEST PUSH0 JUMPDEST DUP4 DUP2 LT ISZERO PUSH2 0x9EA JUMPI DUP1 DUP3 ADD MLOAD DUP2 DUP5 ADD MSTORE PUSH1 0x20 DUP2 ADD SWAP1 POP PUSH2 0x9CF JUMP JUMPDEST PUSH0 DUP5 DUP5 ADD MSTORE POP POP POP POP JUMP JUMPDEST PUSH0 PUSH1 0x1F NOT PUSH1 0x1F DUP4 ADD AND SWAP1 POP SWAP2 SWAP1 POP JUMP JUMPDEST PUSH0 PUSH2 0xA0F DUP3 PUSH2 0x9B3 JUMP JUMPDEST PUSH2 0xA19 DUP2 DUP6 PUSH2 0x9BD JUMP JUMPDEST SWAP4 POP PUSH2 0xA29 DUP2 DUP6 PUSH1 0x20 DUP7 ADD PUSH2 0x9CD JUMP JUMPDEST PUSH2 0xA32 DUP2 PUSH2 0x9F5 JUMP JUMPDEST DUP5 ADD SWAP2 POP POP SWAP3 SWAP2 POP POP JUMP JUMPDEST PUSH0 PUSH1 0xA0 DUP3 ADD SWAP1 POP DUP2 DUP2 SUB PUSH0 DUP4 ADD MSTORE PUSH2 0xA55 DUP2 DUP9 PUSH2 0xA05 JUMP JUMPDEST SWAP1 POP PUSH2 0xA64 PUSH1 0x20 DUP4 ADD DUP8 PUSH2 0x912 JUMP JUMPDEST PUSH2 0xA71 PUSH1 0x40 DUP4 ADD DUP7 PUSH2 0x93A JUMP JUMPDEST PUSH2 0xA7E PUSH1 0x60 DUP4 ADD DUP6 PUSH2 0x8EA JUMP JUMPDEST PUSH2 0xA8B PUSH1 0x80 DUP4 ADD DUP5 PUSH2 0x912 JUMP JUMPDEST SWAP7 SWAP6 POP POP POP POP POP POP JUMP JUMPDEST PUSH0 DUP1 REVERT JUMPDEST PUSH0 DUP1 REVERT JUMPDEST PUSH32 0x4E487B7100000000000000000000000000000000000000000000000000000000 PUSH0 MSTORE PUSH1 0x41 PUSH1 0x4 MSTORE PUSH1 0x24 PUSH0 REVERT JUMPDEST PUSH2 0xAD3 DUP3 PUSH2 0x9F5 JUMP JUMPDEST DUP2 ADD DUP2 DUP2 LT PUSH8 0xFFFFFFFFFFFFFFFF DUP3 GT OR ISZERO PUSH2 0xAF2 JUMPI PUSH2 0xAF1 PUSH2 0xA9D JUMP JUMPDEST JUMPDEST DUP1 PUSH1 0x40 MSTORE POP POP POP JUMP JUMPDEST PUSH0 PUSH2 0xB04 PUSH2 0x7EB JUMP JUMPDEST SWAP1 POP PUSH2 0xB10 DUP3 DUP3 PUSH2 0xACA JUMP JUMPDEST SWAP2 SWAP1 POP JUMP JUMPDEST PUSH0 PUSH8 0xFFFFFFFFFFFFFFFF DUP3 GT ISZERO PUSH2 0xB2F JUMPI PUSH2 0xB2E PUSH2 0xA9D JUMP JUMPDEST JUMPDEST PUSH2 0xB38 DUP3 PUSH2 0x9F5 JUMP JUMPDEST SWAP1 POP PUSH1 0x20 DUP2 ADD SWAP1 POP SWAP2 SWAP1 POP JUMP JUMPDEST DUP3 DUP2 DUP4 CALLDATACOPY PUSH0 DUP4 DUP4 ADD MSTORE POP POP POP JUMP JUMPDEST PUSH0 PUSH2 0xB65 PUSH2 0xB60 DUP5 PUSH2 0xB15 JUMP JUMPDEST PUSH2 0xAFB JUMP JUMPDEST SWAP1 POP DUP3 DUP2 MSTORE PUSH1 0x20 DUP2 ADD DUP5 DUP5 DUP5 ADD GT ISZERO PUSH2 0xB81 JUMPI PUSH2 0xB80 PUSH2 0xA99 JUMP JUMPDEST JUMPDEST PUSH2 0xB8C DUP5 DUP3 DUP6 PUSH2 0xB45 JUMP JUMPDEST POP SWAP4 SWAP3 POP POP POP JUMP JUMPDEST PUSH0 DUP3 PUSH1 0x1F DUP4 ADD SLT PUSH2 0xBA8 JUMPI PUSH2 0xBA7 PUSH2 0xA95 JUMP JUMPDEST JUMPDEST DUP2 CALLDATALOAD PUSH2 0xBB8 DUP5 DUP3 PUSH1 0x20 DUP7 ADD PUSH2 0xB53 JUMP JUMPDEST SWAP2 POP POP SWAP3 SWAP2 POP POP JUMP JUMPDEST PUSH0 PUSH2 0xBCB DUP3 PUSH2 0x85A JUMP JUMPDEST SWAP1 POP SWAP2 SWAP1 POP JUMP JUMPDEST PUSH2 0xBDB DUP2 PUSH2 0xBC1 JUMP JUMPDEST DUP2 EQ PUSH2 0xBE5 JUMPI PUSH0 DUP1 REVERT JUMPDEST POP JUMP JUMPDEST PUSH0 DUP2 CALLDATALOAD SWAP1 POP PUSH2 0xBF6 DUP2 PUSH2 0xBD2 JUMP JUMPDEST SWAP3 SWAP2 POP POP JUMP JUMPDEST PUSH0 DUP1 PUSH0 PUSH1 0x60 DUP5 DUP7 SUB SLT ISZERO PUSH2 0xC13 JUMPI PUSH2 0xC12 PUSH2 0x7F4 JUMP JUMPDEST JUMPDEST PUSH0 DUP5 ADD CALLDATALOAD PUSH8 0xFFFFFFFFFFFFFFFF DUP2 GT ISZERO PUSH2 0xC30 JUMPI PUSH2 0xC2F PUSH2 0x7F8 JUMP JUMPDEST JUMPDEST PUSH2 0xC3C DUP7 DUP3 DUP8 ADD PUSH2 0xB94 JUMP JUMPDEST SWAP4 POP POP PUSH1 0x20 PUSH2 0xC4D DUP7 DUP3 DUP8 ADD PUSH2 0x81B JUMP JUMPDEST SWAP3 POP POP PUSH1 0x40 PUSH2 0xC5E DUP7 DUP3 DUP8 ADD PUSH2 0xBE8 JUMP JUMPDEST SWAP2 POP POP SWAP3 POP SWAP3 POP SWAP3 JUMP JUMPDEST PUSH32 0x4E487B7100000000000000000000000000000000000000000000000000000000 PUSH0 MSTORE PUSH1 0x32 PUSH1 0x4 MSTORE PUSH1 0x24 PUSH0 REVERT JUMPDEST PUSH32 0x4E487B7100000000000000000000000000000000000000000000000000000000 PUSH0 MSTORE PUSH1 0x12 PUSH1 0x4 MSTORE PUSH1 0x24 PUSH0 REVERT JUMPDEST PUSH32 0x4E487B7100000000000000000000000000000000000000000000000000000000 PUSH0 MSTORE PUSH1 0x11 PUSH1 0x4 MSTORE PUSH1 0x24 PUSH0 REVERT JUMPDEST PUSH0 PUSH2 0xCF9 DUP3 PUSH2 0x7FC JUMP JUMPDEST SWAP2 POP PUSH2 0xD04 DUP4 PUSH2 0x7FC JUMP JUMPDEST SWAP3 POP DUP3 PUSH2 0xD14 JUMPI PUSH2 0xD13 PUSH2 0xC95 JUMP JUMPDEST JUMPDEST DUP3 DUP3 DIV SWAP1 POP SWAP3 SWAP2 POP POP JUMP JUMPDEST PUSH32 0x4E487B7100000000000000000000000000000000000000000000000000000000 PUSH0 MSTORE PUSH1 0x22 PUSH1 0x4 MSTORE PUSH1 0x24 PUSH0 REVERT JUMPDEST PUSH0 PUSH1 0x2 DUP3 DIV SWAP1 POP PUSH1 0x1 DUP3 AND DUP1 PUSH2 0xD63 JUMPI PUSH1 0x7F DUP3 AND SWAP2 POP JUMPDEST PUSH1 0x20 DUP3 LT DUP2 SUB PUSH2 0xD76 JUMPI PUSH2 0xD75 PUSH2 0xD1F JUMP JUMPDEST JUMPDEST POP SWAP2 SWAP1 POP JUMP JUMPDEST PUSH0 DUP2 SWAP1 POP DUP2 PUSH0 MSTORE PUSH1 0x20 PUSH0 KECCAK256 SWAP1 POP SWAP2 SWAP1 POP JUMP JUMPDEST PUSH0 PUSH1 0x20 PUSH1 0x1F DUP4 ADD DIV SWAP1 POP SWAP2 SWAP1 POP JUMP JUMPDEST PUSH0 DUP3 DUP3 SHL SWAP1 POP SWAP3 SWAP2 POP POP JUMP JUMPDEST PUSH0 PUSH1 0x8 DUP4 MUL PUSH2 0xDD8 PUSH32 0xFFFFFFFFFFFFFFFFFFFFFFFFFFFFFFFFFFFFFFFFFFFFFFFFFFFFFFFFFFFFFFFF DUP3 PUSH2 0xD9D JUMP JUMPDEST PUSH2 0xDE2 DUP7 DUP4 PUSH2 0xD9D JUMP JUMPDEST SWAP6 POP DUP1 NOT DUP5 AND SWAP4 POP DUP1 DUP7 AND DUP5 OR SWAP3 POP POP POP SWAP4 SWAP3 POP POP POP JUMP JUMPDEST PUSH0 DUP2 SWAP1 POP SWAP2 SWAP1 POP JUMP JUMPDEST PUSH0 PUSH2 0xE1D PUSH2 0xE18 PUSH2 0xE13 DUP5 PUSH2 0x7FC JUMP JUMPDEST PUSH2 0xDFA JUMP JUMPDEST PUSH2 0x7FC JUMP JUMPDEST SWAP1 POP SWAP2 SWAP1 POP JUMP JUMPDEST PUSH0 DUP2 SWAP1 POP SWAP2 SWAP1 POP JUMP JUMPDEST PUSH2 0xE36 DUP4 PUSH2 0xE03 JUMP JUMPDEST PUSH2 0xE4A PUSH2 0xE42 DUP3 PUSH2 0xE24 JUMP JUMPDEST DUP5 DUP5 SLOAD PUSH2 0xDA9 JUMP JUMPDEST DUP3 SSTORE POP POP POP POP JUMP JUMPDEST PUSH0 SWAP1 JUMP JUMPDEST PUSH2 0xE5E PUSH2 0xE52 JUMP JUMPDEST PUSH2 0xE69 DUP2 DUP5 DUP5 PUSH2 0xE2D JUMP JUMPDEST POP POP POP JUMP JUMPDEST JUMPDEST DUP2 DUP2 LT ISZERO PUSH2 0xE8C JUMPI PUSH2 0xE81 PUSH0 DUP3 PUSH2 0xE56 JUMP JUMPDEST PUSH1 0x1 DUP2 ADD SWAP1 POP PUSH2 0xE6F JUMP JUMPDEST POP POP JUMP JUMPDEST PUSH1 0x1F DUP3 GT ISZERO PUSH2 0xED1 JUMPI PUSH2 0xEA2 DUP2 PUSH2 0xD7C JUMP JUMPDEST PUSH2 0xEAB DUP5 PUSH2 0xD8E JUMP JUMPDEST DUP2 ADD PUSH1 0x20 DUP6 LT ISZERO PUSH2 0xEBA JUMPI DUP2 SWAP1 POP JUMPDEST PUSH2 0xECE PUSH2 0xEC6 DUP6 PUSH2 0xD8E JUMP JUMPDEST DUP4 ADD DUP3 PUSH2 0xE6E JUMP JUMPDEST POP POP JUMPDEST POP POP POP JUMP JUMPDEST PUSH0 DUP3 DUP3 SHR SWAP1 POP SWAP3 SWAP2 POP POP JUMP JUMPDEST PUSH0 PUSH2 0xEF1 PUSH0 NOT DUP5 PUSH1 0x8 MUL PUSH2 0xED6 JUMP JUMPDEST NOT DUP1 DUP4 AND SWAP2 POP POP SWAP3 SWAP2 POP POP JUMP JUMPDEST PUSH0 PUSH2 0xF09 DUP4 DUP4 PUSH2 0xEE2 JUMP JUMPDEST SWAP2 POP DUP3 PUSH1 0x2 MUL DUP3 OR SWAP1 POP SWAP3 SWAP2 POP POP JUMP JUMPDEST PUSH2 0xF22 DUP3 PUSH2 0x9B3 JUMP JUMPDEST PUSH8 0xFFFFFFFFFFFFFFFF DUP2 GT ISZERO PUSH2 0xF3B JUMPI PUSH2 0xF3A PUSH2 0xA9D JUMP JUMPDEST JUMPDEST PUSH2 0xF45 DUP3 SLOAD PUSH2 0xD4C JUMP JUMPDEST PUSH2 0xF50 DUP3 DUP3 DUP6 PUSH2 0xE90 JUMP JUMPDEST PUSH0 PUSH1 0x20 SWAP1 POP PUSH1 0x1F DUP4 GT PUSH1 0x1 DUP2 EQ PUSH2 0xF81 JUMPI PUSH0 DUP5 ISZERO PUSH2 0xF6F JUMPI DUP3 DUP8 ADD MLOAD SWAP1 POP JUMPDEST PUSH2 0xF79 DUP6 DUP3 PUSH2 0xEFE JUMP JUMPDEST DUP7 SSTORE POP PUSH2 0xFE0 JUMP JUMPDEST PUSH1 0x1F NOT DUP5 AND PUSH2 0xF8F DUP7 PUSH2 0xD7C JUMP JUMPDEST PUSH0 JUMPDEST DUP3 DUP2 LT ISZERO PUSH2 0xFB6 JUMPI DUP5 DUP10 ADD MLOAD DUP3 SSTORE PUSH1 0x1 DUP3 ADD SWAP2 POP PUSH1 0x20 DUP6 ADD SWAP5 POP PUSH1 0x20 DUP2 ADD SWAP1 POP PUSH2 0xF91 JUMP JUMPDEST DUP7 DUP4 LT ISZERO PUSH2 0xFD3 JUMPI DUP5 DUP10 ADD MLOAD PUSH2 0xFCF PUSH1 0x1F DUP10 AND DUP3 PUSH2 0xEE2 JUMP JUMPDEST DUP4 SSTORE POP JUMPDEST PUSH1 0x1 PUSH1 0x2 DUP9 MUL ADD DUP9 SSTORE POP POP POP JUMPDEST POP POP POP POP POP POP JUMP JUMPDEST PUSH0 PUSH2 0xFF2 DUP3 PUSH2 0x7FC JUMP JUMPDEST SWAP2 POP PUSH32 0xFFFFFFFFFFFFFFFFFFFFFFFFFFFFFFFFFFFFFFFFFFFFFFFFFFFFFFFFFFFFFFFF DUP3 SUB PUSH2 0x1024 JUMPI PUSH2 0x1023 PUSH2 0xCC2 JUMP JUMPDEST JUMPDEST PUSH1 0x1 DUP3 ADD SWAP1 POP SWAP2 SWAP1 POP JUMP INVALID LOG2 PUSH5 0x6970667358 0x22 SLT KECCAK256 PUSH1 0x32 DUP2 SWAP14 MLOAD MSTORE8 SWAP7 DUP9 0x4C 0xC0 0x23 LOG1 SUB 0xD1 GASLIMIT 0xB2 0xE1 MSTORE 0xCC REVERT 0x2F DUP10 0xAF 0xFC PUSH0 0xA6 0x4D 0x4B 0xF9 STATICCALL 0xC8 SWAP14 PUSH5 0x736F6C6343 STOP ADDMOD ISZERO STOP CALLER "},"gasEstimates":{"creation":{"codeDepositCost":"839400","executionCost":"infinite","totalCost":"infinite"},"external":{"approveRequest(uint256)":"infinite","approvers(address)":"2856","approversCount()":"2447","contribute()":"51036","createRequest(string,uint256,address)":"infinite","finalizeRequest(uint256)":"infinite","getRequestsCount()":"2485","getSumary()":"infinite","manager()":"2575","minimumContribution()":"2491","requests(uint256)":"infinite"}},"methodIdentifiers":{"approveRequest(uint256)":"d7d1bbdb","approvers(address)":"0a144391","approversCount()":"82fde093","contribute()":"d7bb99ba","createRequest(string,uint256,address)":"8a9cfd55","finalizeRequest(uint256)":"03441006","getRequestsCount()":"3410452a","getSumary()":"562a75d5","manager()":"481c6a75","minimumContribution()":"937e09b1","requests(uint256)":"81d12c58"}},"storageLayout":{"storage":[{"astId":61,"contract":"Campaign.sol:Campaign","label":"requests","offset":0,"slot":"0","type":"t_array(t_struct(Request)57_storage)dyn_storage"},{"astId":63,"contract":"Campaign.sol:Campaign","label":"manager","offset":0,"slot":"1","type":"t_address"},{"astId":65,"contract":"Campaign.sol:Campaign","label":"minimumContribution","offset":0,"slot":"2","type":"t_uint256"},{"astId":69,"contract":"Campaign.sol:Campaign","label":"approvers","offset":0,"slot":"3","type":"t_mapping(t_address,t_bool)"},{"astId":71,"contract":"Campaign.sol:Campaign","label":"approversCount","offset":0,"slot":"4","type":"t_uint256"}],"types":{"t_address":{"encoding":"inplace","label":"address","numberOfBytes":"20"},"t_array(t_struct(Request)57_storage)dyn_storage":{"base":"t_struct(Request)57_storage","encoding":"dynamic_array","label":"struct Campaign.Request[]","numberOfBytes":"32"},"t_bool":{"encoding":"inplace","label":"bool","numberOfBytes":"1"},"t_mapping(t_address,t_bool)":{"encoding":"mapping","key":"t_address","label":"mapping(address => bool)","numberOfBytes":"32","value":"t_bool"},"t_string_storage":{"encoding":"bytes","label":"string","numberOfBytes":"32"},"t_struct(Request)57_storage":{"encoding":"inplace","label":"struct Campaign.Request","members":[{"astId":44,"contract":"Campaign.sol:Campaign","label":"description","offset":0,"slot":"0","type":"t_string_storage"},{"astId":46,"contract":"Campaign.sol:Campaign","label":"value","offset":0,"slot":"1","type":"t_uint256"},{"astId":48,"contract":"Campaign.sol:Campaign","label":"recipient","offset":0,"slot":"2","type":"t_address"},{"astId":50,"contract":"Campaign.sol:Campaign","label":"complete","offset":20,"slot":"2","type":"t_bool"},{"astId":52,"contract":"Campaign.sol:Campaign","label":"approvalCount","offset":0,"slot":"3","type":"t_uint256"},{"astId":56,"contract":"Campaign.sol:Campaign","label":"approvals","offset":0,"slot":"4","type":"t_mapping(t_address,t_bool)"}],"numberOfBytes":"160"},"t_uint256":{"encoding":"inplace","label":"uint256","numberOfBytes":"32"}}},"userdoc":{"kind":"user","methods":{},"version":1}}