{
  "contractName": "Campaign",
  "abi": [
    {
      "inputs": [
        {
          "internalType": "uint256",
          "name": "_minimum",
          "type": "uint256"
        },
        {
          "internalType": "address",
          "name": "_creator",
          "type": "address"
        }
      ],
      "stateMutability": "nonpayable",
      "type": "constructor"
    },
    {
      "inputs": [
        {
          "internalType": "address",
          "name": "",
          "type": "address"
        }
      ],
      "name": "approvers",
      "outputs": [
        {
          "internalType": "bool",
          "name": "",
          "type": "bool"
        }
      ],
      "stateMutability": "view",
      "type": "function",
      "constant": true
    },
    {
      "inputs": [],
      "name": "approversCount",
      "outputs": [
        {
          "internalType": "uint256",
          "name": "",
          "type": "uint256"
        }
      ],
      "stateMutability": "view",
      "type": "function",
      "constant": true
    },
    {
      "inputs": [],
      "name": "manager",
      "outputs": [
        {
          "internalType": "address",
          "name": "",
          "type": "address"
        }
      ],
      "stateMutability": "view",
      "type": "function",
      "constant": true
    },
    {
      "inputs": [],
      "name": "minimumContribution",
      "outputs": [
        {
          "internalType": "uint256",
          "name": "",
          "type": "uint256"
        }
      ],
      "stateMutability": "view",
      "type": "function",
      "constant": true
    },
    {
      "inputs": [
        {
          "internalType": "uint256",
          "name": "",
          "type": "uint256"
        }
      ],
      "name": "requests",
      "outputs": [
        {
          "internalType": "string",
          "name": "description",
          "type": "string"
        },
        {
          "internalType": "uint256",
          "name": "value",
          "type": "uint256"
        },
        {
          "internalType": "address",
          "name": "recipient",
          "type": "address"
        },
        {
          "internalType": "bool",
          "name": "complete",
          "type": "bool"
        },
        {
          "internalType": "uint256",
          "name": "approvalCount",
          "type": "uint256"
        }
      ],
      "stateMutability": "view",
      "type": "function",
      "constant": true
    },
    {
      "inputs": [],
      "name": "contribute",
      "outputs": [],
      "stateMutability": "payable",
      "type": "function",
      "payable": true
    },
    {
      "inputs": [
        {
          "internalType": "string",
          "name": "_description",
          "type": "string"
        },
        {
          "internalType": "uint256",
          "name": "_value",
          "type": "uint256"
        },
        {
          "internalType": "address",
          "name": "_recipient",
          "type": "address"
        }
      ],
      "name": "createRequest",
      "outputs": [],
      "stateMutability": "nonpayable",
      "type": "function"
    },
    {
      "inputs": [
        {
          "internalType": "uint256",
          "name": "_index",
          "type": "uint256"
        }
      ],
      "name": "approveRequest",
      "outputs": [],
      "stateMutability": "nonpayable",
      "type": "function"
    },
    {
      "inputs": [
        {
          "internalType": "uint256",
          "name": "_index",
          "type": "uint256"
        }
      ],
      "name": "finalizeRequest",
      "outputs": [],
      "stateMutability": "nonpayable",
      "type": "function"
    },
    {
      "inputs": [],
      "name": "getSummary",
      "outputs": [
        {
          "internalType": "uint256",
          "name": "",
          "type": "uint256"
        },
        {
          "internalType": "uint256",
          "name": "",
          "type": "uint256"
        },
        {
          "internalType": "uint256",
          "name": "",
          "type": "uint256"
        },
        {
          "internalType": "uint256",
          "name": "",
          "type": "uint256"
        },
        {
          "internalType": "address",
          "name": "",
          "type": "address"
        }
      ],
      "stateMutability": "view",
      "type": "function",
      "constant": true
    },
    {
      "inputs": [],
      "name": "getRequestsCount",
      "outputs": [
        {
          "internalType": "uint256",
          "name": "",
          "type": "uint256"
        }
      ],
      "stateMutability": "view",
      "type": "function",
      "constant": true
    }
  ],
  "bytecode": "0x608060405234801562000010575f80fd5b50604051620011ab380380620011ab833981810160405281019062000036919062000122565b8060015f6101000a81548173ffffffffffffffffffffffffffffffffffffffff021916908373ffffffffffffffffffffffffffffffffffffffff16021790555081600281905550505062000167565b5f80fd5b5f819050919050565b6200009d8162000089565b8114620000a8575f80fd5b50565b5f81519050620000bb8162000092565b92915050565b5f73ffffffffffffffffffffffffffffffffffffffff82169050919050565b5f620000ec82620000c1565b9050919050565b620000fe81620000e0565b811462000109575f80fd5b50565b5f815190506200011c81620000f3565b92915050565b5f80604083850312156200013b576200013a62000085565b5b5f6200014a85828601620000ab565b92505060206200015d858286016200010c565b9150509250929050565b61103680620001755f395ff3fe60806040526004361061009b575f3560e01c806381d12c581161006357806381d12c581461018557806382fde093146101c55780638a9cfd55146101ef578063937e09b114610217578063d7bb99ba14610241578063d7d1bbdb1461024b5761009b565b8063034410061461009f5780630a144391146100c75780633410452a146101035780634051ddac1461012d578063481c6a751461015b575b5f80fd5b3480156100aa575f80fd5b506100c560048036038101906100c0919061083b565b610273565b005b3480156100d2575f80fd5b506100ed60048036038101906100e891906108c0565b6103b1565b6040516100fa9190610905565b60405180910390f35b34801561010e575f80fd5b506101176103ce565b604051610124919061092d565b60405180910390f35b348015610138575f80fd5b506101416103d9565b604051610152959493929190610955565b60405180910390f35b348015610166575f80fd5b5061016f61041d565b60405161017c91906109a6565b60405180910390f35b348015610190575f80fd5b506101ab60048036038101906101a6919061083b565b610442565b6040516101bc959493929190610a49565b60405180910390f35b3480156101d0575f80fd5b506101d9610534565b6040516101e6919061092d565b60405180910390f35b3480156101fa575f80fd5b5061021560048036038101906102109190610bcd565b61053a565b005b348015610222575f80fd5b5061022b610639565b604051610238919061092d565b60405180910390f35b61024961063f565b005b348015610256575f80fd5b50610271600480360381019061026c919061083b565b6106ba565b005b60015f9054906101000a900473ffffffffffffffffffffffffffffffffffffffff1673ffffffffffffffffffffffffffffffffffffffff163373ffffffffffffffffffffffffffffffffffffffff16146102cb575f80fd5b5f8082815481106102df576102de610c39565b5b905f5260205f209060050201905060026004546102fc9190610cc0565b81600301541161030a575f80fd5b8060020160149054906101000a900460ff1615610325575f80fd5b806002015f9054906101000a900473ffffffffffffffffffffffffffffffffffffffff1673ffffffffffffffffffffffffffffffffffffffff166108fc826001015490811502906040515f60405180830381858888f1935050505015801561038f573d5f803e3d5ffd5b5060018160020160146101000a81548160ff0219169083151502179055505050565b6003602052805f5260405f205f915054906101000a900460ff1681565b5f8080549050905090565b5f805f805f600254475f8054905060045460015f9054906101000a900473ffffffffffffffffffffffffffffffffffffffff16945094509450945094509091929394565b60015f9054906101000a900473ffffffffffffffffffffffffffffffffffffffff1681565b5f8181548110610450575f80fd5b905f5260205f2090600502015f91509050805f01805461046f90610d1d565b80601f016020809104026020016040519081016040528092919081815260200182805461049b90610d1d565b80156104e65780601f106104bd576101008083540402835291602001916104e6565b820191905f5260205f20905b8154815290600101906020018083116104c957829003601f168201915b505050505090806001015490806002015f9054906101000a900473ffffffffffffffffffffffffffffffffffffffff16908060020160149054906101000a900460ff16908060030154905085565b60045481565b60015f9054906101000a900473ffffffffffffffffffffffffffffffffffffffff1673ffffffffffffffffffffffffffffffffffffffff163373ffffffffffffffffffffffffffffffffffffffff1614610592575f80fd5b5f8060018160018154018082558091505003905f5260205f209060050201905083815f0190816105c29190610eea565b5082816001018190555081816002015f6101000a81548173ffffffffffffffffffffffffffffffffffffffff021916908373ffffffffffffffffffffffffffffffffffffffff1602179055505f8160020160146101000a81548160ff0219169083151502179055505f816003018190555050505050565b60025481565b600254341161064c575f80fd5b600160035f3373ffffffffffffffffffffffffffffffffffffffff1673ffffffffffffffffffffffffffffffffffffffff1681526020019081526020015f205f6101000a81548160ff02191690831515021790555060045f8154809291906106b390610fb9565b9190505550565b5f8082815481106106ce576106cd610c39565b5b905f5260205f209060050201905060035f3373ffffffffffffffffffffffffffffffffffffffff1673ffffffffffffffffffffffffffffffffffffffff1681526020019081526020015f205f9054906101000a900460ff1661072e575f80fd5b806004015f3373ffffffffffffffffffffffffffffffffffffffff1673ffffffffffffffffffffffffffffffffffffffff1681526020019081526020015f205f9054906101000a900460ff1615610783575f80fd5b6001816004015f3373ffffffffffffffffffffffffffffffffffffffff1673ffffffffffffffffffffffffffffffffffffffff1681526020019081526020015f205f6101000a81548160ff021916908315150217905550806003015f8154809291906107ee90610fb9565b91905055505050565b5f604051905090565b5f80fd5b5f80fd5b5f819050919050565b61081a81610808565b8114610824575f80fd5b50565b5f8135905061083581610811565b92915050565b5f602082840312156108505761084f610800565b5b5f61085d84828501610827565b91505092915050565b5f73ffffffffffffffffffffffffffffffffffffffff82169050919050565b5f61088f82610866565b9050919050565b61089f81610885565b81146108a9575f80fd5b50565b5f813590506108ba81610896565b92915050565b5f602082840312156108d5576108d4610800565b5b5f6108e2848285016108ac565b91505092915050565b5f8115159050919050565b6108ff816108eb565b82525050565b5f6020820190506109185f8301846108f6565b92915050565b61092781610808565b82525050565b5f6020820190506109405f83018461091e565b92915050565b61094f81610885565b82525050565b5f60a0820190506109685f83018861091e565b610975602083018761091e565b610982604083018661091e565b61098f606083018561091e565b61099c6080830184610946565b9695505050505050565b5f6020820190506109b95f830184610946565b92915050565b5f81519050919050565b5f82825260208201905092915050565b5f5b838110156109f65780820151818401526020810190506109db565b5f8484015250505050565b5f601f19601f8301169050919050565b5f610a1b826109bf565b610a2581856109c9565b9350610a358185602086016109d9565b610a3e81610a01565b840191505092915050565b5f60a0820190508181035f830152610a618188610a11565b9050610a70602083018761091e565b610a7d6040830186610946565b610a8a60608301856108f6565b610a97608083018461091e565b9695505050505050565b5f80fd5b5f80fd5b7f4e487b71000000000000000000000000000000000000000000000000000000005f52604160045260245ffd5b610adf82610a01565b810181811067ffffffffffffffff82111715610afe57610afd610aa9565b5b80604052505050565b5f610b106107f7565b9050610b1c8282610ad6565b919050565b5f67ffffffffffffffff821115610b3b57610b3a610aa9565b5b610b4482610a01565b9050602081019050919050565b828183375f83830152505050565b5f610b71610b6c84610b21565b610b07565b905082815260208101848484011115610b8d57610b8c610aa5565b5b610b98848285610b51565b509392505050565b5f82601f830112610bb457610bb3610aa1565b5b8135610bc4848260208601610b5f565b91505092915050565b5f805f60608486031215610be457610be3610800565b5b5f84013567ffffffffffffffff811115610c0157610c00610804565b5b610c0d86828701610ba0565b9350506020610c1e86828701610827565b9250506040610c2f868287016108ac565b9150509250925092565b7f4e487b71000000000000000000000000000000000000000000000000000000005f52603260045260245ffd5b7f4e487b71000000000000000000000000000000000000000000000000000000005f52601260045260245ffd5b7f4e487b71000000000000000000000000000000000000000000000000000000005f52601160045260245ffd5b5f610cca82610808565b9150610cd583610808565b925082610ce557610ce4610c66565b5b828204905092915050565b7f4e487b71000000000000000000000000000000000000000000000000000000005f52602260045260245ffd5b5f6002820490506001821680610d3457607f821691505b602082108103610d4757610d46610cf0565b5b50919050565b5f819050815f5260205f209050919050565b5f6020601f8301049050919050565b5f82821b905092915050565b5f60088302610da97fffffffffffffffffffffffffffffffffffffffffffffffffffffffffffffffff82610d6e565b610db38683610d6e565b95508019841693508086168417925050509392505050565b5f819050919050565b5f610dee610de9610de484610808565b610dcb565b610808565b9050919050565b5f819050919050565b610e0783610dd4565b610e1b610e1382610df5565b848454610d7a565b825550505050565b5f90565b610e2f610e23565b610e3a818484610dfe565b505050565b5b81811015610e5d57610e525f82610e27565b600181019050610e40565b5050565b601f821115610ea257610e7381610d4d565b610e7c84610d5f565b81016020851015610e8b578190505b610e9f610e9785610d5f565b830182610e3f565b50505b505050565b5f82821c905092915050565b5f610ec25f1984600802610ea7565b1980831691505092915050565b5f610eda8383610eb3565b9150826002028217905092915050565b610ef3826109bf565b67ffffffffffffffff811115610f0c57610f0b610aa9565b5b610f168254610d1d565b610f21828285610e61565b5f60209050601f831160018114610f52575f8415610f40578287015190505b610f4a8582610ecf565b865550610fb1565b601f198416610f6086610d4d565b5f5b82811015610f8757848901518255600182019150602085019450602081019050610f62565b86831015610fa45784890151610fa0601f891682610eb3565b8355505b6001600288020188555050505b505050505050565b5f610fc382610808565b91507fffffffffffffffffffffffffffffffffffffffffffffffffffffffffffffffff8203610ff557610ff4610c93565b5b60018201905091905056fea2646970667358221220294f4fc88e3aec88787d03766128ee53e2e0be37bd4a69c57899a276882f028d64736f6c63430008150033",
  "immutableReferences": {},
  "source": "// SPDX-License-Identifier: GPL-3.0\r\n\r\npragma solidity ^0.8.21;\r\n\r\ncontract Campaign {\r\n    struct Request {\r\n        string description;\r\n        uint value;\r\n        address recipient;\r\n        bool complete;\r\n        uint approvalCount;\r\n        mapping(address => bool) approvals;\r\n    }\r\n\r\n    Request[] public requests;\r\n\r\n    address public manager;\r\n\r\n    uint public minimumContribution;\r\n\r\n    mapping(address => bool) public approvers;\r\n\r\n    uint public approversCount;\r\n\r\n    modifier restricted() {\r\n        require(msg.sender == manager);\r\n\r\n        _;\r\n    }\r\n\r\n    constructor(uint _minimum, address _creator) {\r\n        manager = _creator;\r\n\r\n        minimumContribution = _minimum;\r\n    }\r\n\r\n    function contribute() public payable {\r\n        require(msg.value > minimumContribution);\r\n\r\n        approvers[msg.sender] = true;\r\n\r\n        approversCount++;\r\n    }\r\n\r\n    function createRequest(\r\n        string memory _description,\r\n        uint _value,\r\n        address _recipient\r\n    ) public restricted {\r\n        Request storage newRequest = requests.push();\r\n\r\n        newRequest.description = _description;\r\n        newRequest.value = _value;\r\n        newRequest.recipient = _recipient;\r\n        newRequest.complete = false;\r\n        newRequest.approvalCount = 0;\r\n    }\r\n\r\n    function approveRequest(uint _index) public {\r\n        Request storage request = requests[_index];\r\n\r\n        require(approvers[msg.sender]);\r\n        require(!request.approvals[msg.sender]);\r\n\r\n        request.approvals[msg.sender] = true;\r\n        request.approvalCount++;\r\n    }\r\n\r\n    function finalizeRequest(uint _index) public restricted {\r\n        Request storage request = requests[_index];\r\n\r\n        require(request.approvalCount > (approversCount / 2));\r\n        require(!request.complete);\r\n\r\n        payable(request.recipient).transfer(request.value);\r\n        request.complete = true;\r\n    }\r\n\r\n    function getSummary()\r\n        public\r\n        view\r\n        returns (uint, uint, uint, uint, address)\r\n    {\r\n        return (\r\n            minimumContribution,\r\n            address(this).balance,\r\n            requests.length,\r\n            approversCount,\r\n            manager\r\n        );\r\n    }\r\n\r\n    function getRequestsCount() public view returns (uint) {\r\n        return requests.length;\r\n    }\r\n}\r\n",
  "sourcePath": "D:\\Web3-Sodidity-Ethereum\\crowd-coin-ethereum\\ethereum\\contracts\\Campaign.sol",
  "compiler": {
    "name": "solc",
    "version": "0.8.21+commit.d9974bed.Emscripten.clang"
  },
  "schemaVersion": "3.4.16",
  "updatedAt": "2023-09-21T07:46:48.872Z",
  "networkType": "ethereum",
  "devdoc": {
    "kind": "dev",
    "methods": {},
    "version": 1
  },
  "userdoc": {
    "kind": "user",
    "methods": {},
    "version": 1
  }
}