{
  "contractName": "Spacebear",
  "abi": [
    {
      "inputs": [],
      "stateMutability": "nonpayable",
      "type": "constructor"
    },
    {
      "anonymous": false,
      "inputs": [
        {
          "indexed": true,
          "internalType": "address",
          "name": "owner",
          "type": "address"
        },
        {
          "indexed": true,
          "internalType": "address",
          "name": "approved",
          "type": "address"
        },
        {
          "indexed": true,
          "internalType": "uint256",
          "name": "tokenId",
          "type": "uint256"
        }
      ],
      "name": "Approval",
      "type": "event"
    },
    {
      "anonymous": false,
      "inputs": [
        {
          "indexed": true,
          "internalType": "address",
          "name": "owner",
          "type": "address"
        },
        {
          "indexed": true,
          "internalType": "address",
          "name": "operator",
          "type": "address"
        },
        {
          "indexed": false,
          "internalType": "bool",
          "name": "approved",
          "type": "bool"
        }
      ],
      "name": "ApprovalForAll",
      "type": "event"
    },
    {
      "anonymous": false,
      "inputs": [
        {
          "indexed": true,
          "internalType": "address",
          "name": "previousOwner",
          "type": "address"
        },
        {
          "indexed": true,
          "internalType": "address",
          "name": "newOwner",
          "type": "address"
        }
      ],
      "name": "OwnershipTransferred",
      "type": "event"
    },
    {
      "anonymous": false,
      "inputs": [
        {
          "indexed": true,
          "internalType": "address",
          "name": "from",
          "type": "address"
        },
        {
          "indexed": true,
          "internalType": "address",
          "name": "to",
          "type": "address"
        },
        {
          "indexed": true,
          "internalType": "uint256",
          "name": "tokenId",
          "type": "uint256"
        }
      ],
      "name": "Transfer",
      "type": "event"
    },
    {
      "inputs": [
        {
          "internalType": "address",
          "name": "to",
          "type": "address"
        },
        {
          "internalType": "uint256",
          "name": "tokenId",
          "type": "uint256"
        }
      ],
      "name": "approve",
      "outputs": [],
      "stateMutability": "nonpayable",
      "type": "function"
    },
    {
      "inputs": [
        {
          "internalType": "address",
          "name": "owner",
          "type": "address"
        }
      ],
      "name": "balanceOf",
      "outputs": [
        {
          "internalType": "uint256",
          "name": "",
          "type": "uint256"
        }
      ],
      "stateMutability": "view",
      "type": "function",
      "constant": true
    },
    {
      "inputs": [
        {
          "internalType": "uint256",
          "name": "tokenId",
          "type": "uint256"
        }
      ],
      "name": "getApproved",
      "outputs": [
        {
          "internalType": "address",
          "name": "",
          "type": "address"
        }
      ],
      "stateMutability": "view",
      "type": "function",
      "constant": true
    },
    {
      "inputs": [
        {
          "internalType": "address",
          "name": "owner",
          "type": "address"
        },
        {
          "internalType": "address",
          "name": "operator",
          "type": "address"
        }
      ],
      "name": "isApprovedForAll",
      "outputs": [
        {
          "internalType": "bool",
          "name": "",
          "type": "bool"
        }
      ],
      "stateMutability": "view",
      "type": "function",
      "constant": true
    },
    {
      "inputs": [],
      "name": "name",
      "outputs": [
        {
          "internalType": "string",
          "name": "",
          "type": "string"
        }
      ],
      "stateMutability": "view",
      "type": "function",
      "constant": true
    },
    {
      "inputs": [],
      "name": "owner",
      "outputs": [
        {
          "internalType": "address",
          "name": "",
          "type": "address"
        }
      ],
      "stateMutability": "view",
      "type": "function",
      "constant": true
    },
    {
      "inputs": [
        {
          "internalType": "uint256",
          "name": "tokenId",
          "type": "uint256"
        }
      ],
      "name": "ownerOf",
      "outputs": [
        {
          "internalType": "address",
          "name": "",
          "type": "address"
        }
      ],
      "stateMutability": "view",
      "type": "function",
      "constant": true
    },
    {
      "inputs": [],
      "name": "renounceOwnership",
      "outputs": [],
      "stateMutability": "nonpayable",
      "type": "function"
    },
    {
      "inputs": [
        {
          "internalType": "address",
          "name": "from",
          "type": "address"
        },
        {
          "internalType": "address",
          "name": "to",
          "type": "address"
        },
        {
          "internalType": "uint256",
          "name": "tokenId",
          "type": "uint256"
        }
      ],
      "name": "safeTransferFrom",
      "outputs": [],
      "stateMutability": "nonpayable",
      "type": "function"
    },
    {
      "inputs": [
        {
          "internalType": "address",
          "name": "from",
          "type": "address"
        },
        {
          "internalType": "address",
          "name": "to",
          "type": "address"
        },
        {
          "internalType": "uint256",
          "name": "tokenId",
          "type": "uint256"
        },
        {
          "internalType": "bytes",
          "name": "data",
          "type": "bytes"
        }
      ],
      "name": "safeTransferFrom",
      "outputs": [],
      "stateMutability": "nonpayable",
      "type": "function"
    },
    {
      "inputs": [
        {
          "internalType": "address",
          "name": "operator",
          "type": "address"
        },
        {
          "internalType": "bool",
          "name": "approved",
          "type": "bool"
        }
      ],
      "name": "setApprovalForAll",
      "outputs": [],
      "stateMutability": "nonpayable",
      "type": "function"
    },
    {
      "inputs": [],
      "name": "symbol",
      "outputs": [
        {
          "internalType": "string",
          "name": "",
          "type": "string"
        }
      ],
      "stateMutability": "view",
      "type": "function",
      "constant": true
    },
    {
      "inputs": [
        {
          "internalType": "address",
          "name": "from",
          "type": "address"
        },
        {
          "internalType": "address",
          "name": "to",
          "type": "address"
        },
        {
          "internalType": "uint256",
          "name": "tokenId",
          "type": "uint256"
        }
      ],
      "name": "transferFrom",
      "outputs": [],
      "stateMutability": "nonpayable",
      "type": "function"
    },
    {
      "inputs": [
        {
          "internalType": "address",
          "name": "newOwner",
          "type": "address"
        }
      ],
      "name": "transferOwnership",
      "outputs": [],
      "stateMutability": "nonpayable",
      "type": "function"
    },
    {
      "inputs": [],
      "name": "buyToken",
      "outputs": [],
      "stateMutability": "payable",
      "type": "function",
      "payable": true
    },
    {
      "inputs": [
        {
          "internalType": "address",
          "name": "to",
          "type": "address"
        }
      ],
      "name": "safeMint",
      "outputs": [],
      "stateMutability": "nonpayable",
      "type": "function"
    },
    {
      "inputs": [
        {
          "internalType": "uint256",
          "name": "tokenId",
          "type": "uint256"
        }
      ],
      "name": "tokenURI",
      "outputs": [
        {
          "internalType": "string",
          "name": "",
          "type": "string"
        }
      ],
      "stateMutability": "pure",
      "type": "function",
      "constant": true
    },
    {
      "inputs": [
        {
          "internalType": "bytes4",
          "name": "interfaceId",
          "type": "bytes4"
        }
      ],
      "name": "supportsInterface",
      "outputs": [
        {
          "internalType": "bool",
          "name": "",
          "type": "bool"
        }
      ],
      "stateMutability": "view",
      "type": "function",
      "constant": true
    }
  ],
  "bytecode": "0x608060405234801562000010575f80fd5b506040518060400160405280600981526020017f53706163656265617200000000000000000000000000000000000000000000008152506040518060400160405280600381526020017f5342540000000000000000000000000000000000000000000000000000000000815250815f90816200008d9190620003f6565b5080600190816200009f9190620003f6565b505050620000c2620000b6620000c860201b60201c565b620000cf60201b60201c565b620004da565b5f33905090565b5f60065f9054906101000a900473ffffffffffffffffffffffffffffffffffffffff1690508160065f6101000a81548173ffffffffffffffffffffffffffffffffffffffff021916908373ffffffffffffffffffffffffffffffffffffffff1602179055508173ffffffffffffffffffffffffffffffffffffffff168173ffffffffffffffffffffffffffffffffffffffff167f8be0079c531659141344cd1fd0a4f28419497f9722a3daafe3b4186f6b6457e060405160405180910390a35050565b5f81519050919050565b7f4e487b71000000000000000000000000000000000000000000000000000000005f52604160045260245ffd5b7f4e487b71000000000000000000000000000000000000000000000000000000005f52602260045260245ffd5b5f60028204905060018216806200020e57607f821691505b602082108103620002245762000223620001c9565b5b50919050565b5f819050815f5260205f209050919050565b5f6020601f8301049050919050565b5f82821b905092915050565b5f60088302620002887fffffffffffffffffffffffffffffffffffffffffffffffffffffffffffffffff826200024b565b6200029486836200024b565b95508019841693508086168417925050509392505050565b5f819050919050565b5f819050919050565b5f620002de620002d8620002d284620002ac565b620002b5565b620002ac565b9050919050565b5f819050919050565b620002f983620002be565b620003116200030882620002e5565b84845462000257565b825550505050565b5f90565b6200032762000319565b62000334818484620002ee565b505050565b5b818110156200035b576200034f5f826200031d565b6001810190506200033a565b5050565b601f821115620003aa5762000374816200022a565b6200037f846200023c565b810160208510156200038f578190505b620003a76200039e856200023c565b83018262000339565b50505b505050565b5f82821c905092915050565b5f620003cc5f1984600802620003af565b1980831691505092915050565b5f620003e68383620003bb565b9150826002028217905092915050565b620004018262000192565b67ffffffffffffffff8111156200041d576200041c6200019c565b5b620004298254620001f6565b620004368282856200035f565b5f60209050601f8311600181146200046c575f841562000457578287015190505b620004638582620003d9565b865550620004d2565b601f1984166200047c866200022a565b5f5b82811015620004a5578489015182556001820191506020850194506020810190506200047e565b86831015620004c55784890151620004c1601f891682620003bb565b8355505b6001600288020188555050505b505050505050565b612a0880620004e85f395ff3fe608060405260043610610108575f3560e01c8063715018a611610094578063a482171911610063578063a482171914610358578063b88d4fde14610362578063c87b56dd1461038a578063e985e9c5146103c6578063f2fde38b1461040257610108565b8063715018a6146102c65780638da5cb5b146102dc57806395d89b4114610306578063a22cb4651461033057610108565b806323b872dd116100db57806323b872dd146101d657806340d097c3146101fe57806342842e0e146102265780636352211e1461024e57806370a082311461028a57610108565b806301ffc9a71461010c57806306fdde0314610148578063081812fc14610172578063095ea7b3146101ae575b5f80fd5b348015610117575f80fd5b50610132600480360381019061012d9190611a41565b61042a565b60405161013f9190611a86565b60405180910390f35b348015610153575f80fd5b5061015c61043b565b6040516101699190611b29565b60405180910390f35b34801561017d575f80fd5b5061019860048036038101906101939190611b7c565b6104ca565b6040516101a59190611be6565b60405180910390f35b3480156101b9575f80fd5b506101d460048036038101906101cf9190611c29565b61050c565b005b3480156101e1575f80fd5b506101fc60048036038101906101f79190611c67565b610622565b005b348015610209575f80fd5b50610224600480360381019061021f9190611cb7565b610682565b005b348015610231575f80fd5b5061024c60048036038101906102479190611c67565b6106af565b005b348015610259575f80fd5b50610274600480360381019061026f9190611b7c565b6106ce565b6040516102819190611be6565b60405180910390f35b348015610295575f80fd5b506102b060048036038101906102ab9190611cb7565b610752565b6040516102bd9190611cf1565b60405180910390f35b3480156102d1575f80fd5b506102da610806565b005b3480156102e7575f80fd5b506102f0610819565b6040516102fd9190611be6565b60405180910390f35b348015610311575f80fd5b5061031a610841565b6040516103279190611b29565b60405180910390f35b34801561033b575f80fd5b5061035660048036038101906103519190611d34565b6108d1565b005b6103606108e7565b005b34801561036d575f80fd5b5061038860048036038101906103839190611e9e565b6109a0565b005b348015610395575f80fd5b506103b060048036038101906103ab9190611b7c565b610a02565b6040516103bd9190611b29565b60405180910390f35b3480156103d1575f80fd5b506103ec60048036038101906103e79190611f1e565b610a40565b6040516103f99190611a86565b60405180910390f35b34801561040d575f80fd5b5061042860048036038101906104239190611cb7565b610ace565b005b5f61043482610b50565b9050919050565b60605f805461044990611f89565b80601f016020809104026020016040519081016040528092919081815260200182805461047590611f89565b80156104c05780601f10610497576101008083540402835291602001916104c0565b820191905f5260205f20905b8154815290600101906020018083116104a357829003601f168201915b5050505050905090565b5f6104d482610c31565b60045f8381526020019081526020015f205f9054906101000a900473ffffffffffffffffffffffffffffffffffffffff169050919050565b5f610516826106ce565b90508073ffffffffffffffffffffffffffffffffffffffff168373ffffffffffffffffffffffffffffffffffffffff1603610586576040517f08c379a000000000000000000000000000000000000000000000000000000000815260040161057d90612029565b60405180910390fd5b8073ffffffffffffffffffffffffffffffffffffffff166105a5610c7c565b73ffffffffffffffffffffffffffffffffffffffff1614806105d457506105d3816105ce610c7c565b610a40565b5b610613576040517f08c379a000000000000000000000000000000000000000000000000000000000815260040161060a906120b7565b60405180910390fd5b61061d8383610c83565b505050565b61063361062d610c7c565b82610d39565b610672576040517f08c379a000000000000000000000000000000000000000000000000000000000815260040161066990612145565b60405180910390fd5b61067d838383610dcd565b505050565b61068a6110b9565b5f6106956007611137565b90506106a16007611143565b6106ab8282611157565b5050565b6106c983838360405180602001604052805f8152506109a0565b505050565b5f806106d983611174565b90505f73ffffffffffffffffffffffffffffffffffffffff168173ffffffffffffffffffffffffffffffffffffffff1603610749576040517f08c379a0000000000000000000000000000000000000000000000000000000008152600401610740906121ad565b60405180910390fd5b80915050919050565b5f8073ffffffffffffffffffffffffffffffffffffffff168273ffffffffffffffffffffffffffffffffffffffff16036107c1576040517f08c379a00000000000000000000000000000000000000000000000000000000081526004016107b89061223b565b60405180910390fd5b60035f8373ffffffffffffffffffffffffffffffffffffffff1673ffffffffffffffffffffffffffffffffffffffff1681526020019081526020015f20549050919050565b61080e6110b9565b6108175f6111ad565b565b5f60065f9054906101000a900473ffffffffffffffffffffffffffffffffffffffff16905090565b60606001805461085090611f89565b80601f016020809104026020016040519081016040528092919081815260200182805461087c90611f89565b80156108c75780601f1061089e576101008083540402835291602001916108c7565b820191905f5260205f20905b8154815290600101906020018083116108aa57829003601f168201915b5050505050905090565b6108e36108dc610c7c565b8383611270565b5050565b5f6108f26007611137565b90506109346040518060400160405280600881526020017f676f74206865726500000000000000000000000000000000000000000000000081525082346113d7565b67016345785d8a0000816109489190612286565b3414610989576040517f08c379a000000000000000000000000000000000000000000000000000000000815260040161098090612311565b60405180910390fd5b6109936007611143565b61099d3382611157565b50565b6109b16109ab610c7c565b83610d39565b6109f0576040517f08c379a00000000000000000000000000000000000000000000000000000000081526004016109e790612145565b60405180910390fd5b6109fc84848484611476565b50505050565b6060610a0c6114d2565b600183610a19919061232f565b604051602001610a2a929190612450565b6040516020818303038152906040529050919050565b5f60055f8473ffffffffffffffffffffffffffffffffffffffff1673ffffffffffffffffffffffffffffffffffffffff1681526020019081526020015f205f8373ffffffffffffffffffffffffffffffffffffffff1673ffffffffffffffffffffffffffffffffffffffff1681526020019081526020015f205f9054906101000a900460ff16905092915050565b610ad66110b9565b5f73ffffffffffffffffffffffffffffffffffffffff168173ffffffffffffffffffffffffffffffffffffffff1603610b44576040517f08c379a0000000000000000000000000000000000000000000000000000000008152600401610b3b906124fd565b60405180910390fd5b610b4d816111ad565b50565b5f7f80ac58cd000000000000000000000000000000000000000000000000000000007bffffffffffffffffffffffffffffffffffffffffffffffffffffffff1916827bffffffffffffffffffffffffffffffffffffffffffffffffffffffff19161480610c1a57507f5b5e139f000000000000000000000000000000000000000000000000000000007bffffffffffffffffffffffffffffffffffffffffffffffffffffffff1916827bffffffffffffffffffffffffffffffffffffffffffffffffffffffff1916145b80610c2a5750610c29826114f2565b5b9050919050565b610c3a8161155b565b610c79576040517f08c379a0000000000000000000000000000000000000000000000000000000008152600401610c70906121ad565b60405180910390fd5b50565b5f33905090565b8160045f8381526020019081526020015f205f6101000a81548173ffffffffffffffffffffffffffffffffffffffff021916908373ffffffffffffffffffffffffffffffffffffffff160217905550808273ffffffffffffffffffffffffffffffffffffffff16610cf3836106ce565b73ffffffffffffffffffffffffffffffffffffffff167f8c5be1e5ebec7d5bd14f71427d1e84f3dd0314c0f7b2291e5b200ac8c7c3b92560405160405180910390a45050565b5f80610d44836106ce565b90508073ffffffffffffffffffffffffffffffffffffffff168473ffffffffffffffffffffffffffffffffffffffff161480610d865750610d858185610a40565b5b80610dc457508373ffffffffffffffffffffffffffffffffffffffff16610dac846104ca565b73ffffffffffffffffffffffffffffffffffffffff16145b91505092915050565b8273ffffffffffffffffffffffffffffffffffffffff16610ded826106ce565b73ffffffffffffffffffffffffffffffffffffffff1614610e43576040517f08c379a0000000000000000000000000000000000000000000000000000000008152600401610e3a9061258b565b60405180910390fd5b5f73ffffffffffffffffffffffffffffffffffffffff168273ffffffffffffffffffffffffffffffffffffffff1603610eb1576040517f08c379a0000000000000000000000000000000000000000000000000000000008152600401610ea890612619565b60405180910390fd5b610ebe838383600161159b565b8273ffffffffffffffffffffffffffffffffffffffff16610ede826106ce565b73ffffffffffffffffffffffffffffffffffffffff1614610f34576040517f08c379a0000000000000000000000000000000000000000000000000000000008152600401610f2b9061258b565b60405180910390fd5b60045f8281526020019081526020015f205f6101000a81549073ffffffffffffffffffffffffffffffffffffffff0219169055600160035f8573ffffffffffffffffffffffffffffffffffffffff1673ffffffffffffffffffffffffffffffffffffffff1681526020019081526020015f205f8282540392505081905550600160035f8473ffffffffffffffffffffffffffffffffffffffff1673ffffffffffffffffffffffffffffffffffffffff1681526020019081526020015f205f82825401925050819055508160025f8381526020019081526020015f205f6101000a81548173ffffffffffffffffffffffffffffffffffffffff021916908373ffffffffffffffffffffffffffffffffffffffff160217905550808273ffffffffffffffffffffffffffffffffffffffff168473ffffffffffffffffffffffffffffffffffffffff167fddf252ad1be2c89b69c2b068fc378daa952ba7f163c4a11628f55a4df523b3ef60405160405180910390a46110b483838360016115a1565b505050565b6110c1610c7c565b73ffffffffffffffffffffffffffffffffffffffff166110df610819565b73ffffffffffffffffffffffffffffffffffffffff1614611135576040517f08c379a000000000000000000000000000000000000000000000000000000000815260040161112c90612681565b60405180910390fd5b565b5f815f01549050919050565b6001815f015f828254019250508190555050565b611170828260405180602001604052805f8152506115a7565b5050565b5f60025f8381526020019081526020015f205f9054906101000a900473ffffffffffffffffffffffffffffffffffffffff169050919050565b5f60065f9054906101000a900473ffffffffffffffffffffffffffffffffffffffff1690508160065f6101000a81548173ffffffffffffffffffffffffffffffffffffffff021916908373ffffffffffffffffffffffffffffffffffffffff1602179055508173ffffffffffffffffffffffffffffffffffffffff168173ffffffffffffffffffffffffffffffffffffffff167f8be0079c531659141344cd1fd0a4f28419497f9722a3daafe3b4186f6b6457e060405160405180910390a35050565b8173ffffffffffffffffffffffffffffffffffffffff168373ffffffffffffffffffffffffffffffffffffffff16036112de576040517f08c379a00000000000000000000000000000000000000000000000000000000081526004016112d5906126e9565b60405180910390fd5b8060055f8573ffffffffffffffffffffffffffffffffffffffff1673ffffffffffffffffffffffffffffffffffffffff1681526020019081526020015f205f8473ffffffffffffffffffffffffffffffffffffffff1673ffffffffffffffffffffffffffffffffffffffff1681526020019081526020015f205f6101000a81548160ff0219169083151502179055508173ffffffffffffffffffffffffffffffffffffffff168373ffffffffffffffffffffffffffffffffffffffff167f17307eab39ab6107e8899845ad3d59bd9653f200f220920489ca2b5937696c31836040516113ca9190611a86565b60405180910390a3505050565b6114718383836040516024016113ef93929190612707565b6040516020818303038152906040527fca47c4eb000000000000000000000000000000000000000000000000000000007bffffffffffffffffffffffffffffffffffffffffffffffffffffffff19166020820180517bffffffffffffffffffffffffffffffffffffffffffffffffffffffff8381831617835250505050611601565b505050565b611481848484610dcd565b61148d84848484611624565b6114cc576040517f08c379a00000000000000000000000000000000000000000000000000000000081526004016114c3906127b3565b60405180910390fd5b50505050565b606060405180608001604052806056815260200161297d60569139905090565b5f7f01ffc9a7000000000000000000000000000000000000000000000000000000007bffffffffffffffffffffffffffffffffffffffffffffffffffffffff1916827bffffffffffffffffffffffffffffffffffffffffffffffffffffffff1916149050919050565b5f8073ffffffffffffffffffffffffffffffffffffffff1661157c83611174565b73ffffffffffffffffffffffffffffffffffffffff1614159050919050565b50505050565b50505050565b6115b183836117a6565b6115bd5f848484611624565b6115fc576040517f08c379a00000000000000000000000000000000000000000000000000000000081526004016115f3906127b3565b60405180910390fd5b505050565b5f6a636f6e736f6c652e6c6f6790508151602083015f808383865afa5050505050565b5f6116448473ffffffffffffffffffffffffffffffffffffffff166119b9565b15611799578373ffffffffffffffffffffffffffffffffffffffff1663150b7a0261166d610c7c565b8786866040518563ffffffff1660e01b815260040161168f9493929190612823565b6020604051808303815f875af19250505080156116ca57506040513d601f19601f820116820180604052508101906116c79190612881565b60015b611749573d805f81146116f8576040519150601f19603f3d011682016040523d82523d5f602084013e6116fd565b606091505b505f815103611741576040517f08c379a0000000000000000000000000000000000000000000000000000000008152600401611738906127b3565b60405180910390fd5b805181602001fd5b63150b7a0260e01b7bffffffffffffffffffffffffffffffffffffffffffffffffffffffff1916817bffffffffffffffffffffffffffffffffffffffffffffffffffffffff19161491505061179e565b600190505b949350505050565b5f73ffffffffffffffffffffffffffffffffffffffff168273ffffffffffffffffffffffffffffffffffffffff1603611814576040517f08c379a000000000000000000000000000000000000000000000000000000000815260040161180b906128f6565b60405180910390fd5b61181d8161155b565b1561185d576040517f08c379a00000000000000000000000000000000000000000000000000000000081526004016118549061295e565b60405180910390fd5b61186a5f8383600161159b565b6118738161155b565b156118b3576040517f08c379a00000000000000000000000000000000000000000000000000000000081526004016118aa9061295e565b60405180910390fd5b600160035f8473ffffffffffffffffffffffffffffffffffffffff1673ffffffffffffffffffffffffffffffffffffffff1681526020019081526020015f205f82825401925050819055508160025f8381526020019081526020015f205f6101000a81548173ffffffffffffffffffffffffffffffffffffffff021916908373ffffffffffffffffffffffffffffffffffffffff160217905550808273ffffffffffffffffffffffffffffffffffffffff165f73ffffffffffffffffffffffffffffffffffffffff167fddf252ad1be2c89b69c2b068fc378daa952ba7f163c4a11628f55a4df523b3ef60405160405180910390a46119b55f838360016115a1565b5050565b5f808273ffffffffffffffffffffffffffffffffffffffff163b119050919050565b5f604051905090565b5f80fd5b5f80fd5b5f7fffffffff0000000000000000000000000000000000000000000000000000000082169050919050565b611a20816119ec565b8114611a2a575f80fd5b50565b5f81359050611a3b81611a17565b92915050565b5f60208284031215611a5657611a556119e4565b5b5f611a6384828501611a2d565b91505092915050565b5f8115159050919050565b611a8081611a6c565b82525050565b5f602082019050611a995f830184611a77565b92915050565b5f81519050919050565b5f82825260208201905092915050565b5f5b83811015611ad6578082015181840152602081019050611abb565b5f8484015250505050565b5f601f19601f8301169050919050565b5f611afb82611a9f565b611b058185611aa9565b9350611b15818560208601611ab9565b611b1e81611ae1565b840191505092915050565b5f6020820190508181035f830152611b418184611af1565b905092915050565b5f819050919050565b611b5b81611b49565b8114611b65575f80fd5b50565b5f81359050611b7681611b52565b92915050565b5f60208284031215611b9157611b906119e4565b5b5f611b9e84828501611b68565b91505092915050565b5f73ffffffffffffffffffffffffffffffffffffffff82169050919050565b5f611bd082611ba7565b9050919050565b611be081611bc6565b82525050565b5f602082019050611bf95f830184611bd7565b92915050565b611c0881611bc6565b8114611c12575f80fd5b50565b5f81359050611c2381611bff565b92915050565b5f8060408385031215611c3f57611c3e6119e4565b5b5f611c4c85828601611c15565b9250506020611c5d85828601611b68565b9150509250929050565b5f805f60608486031215611c7e57611c7d6119e4565b5b5f611c8b86828701611c15565b9350506020611c9c86828701611c15565b9250506040611cad86828701611b68565b9150509250925092565b5f60208284031215611ccc57611ccb6119e4565b5b5f611cd984828501611c15565b91505092915050565b611ceb81611b49565b82525050565b5f602082019050611d045f830184611ce2565b92915050565b611d1381611a6c565b8114611d1d575f80fd5b50565b5f81359050611d2e81611d0a565b92915050565b5f8060408385031215611d4a57611d496119e4565b5b5f611d5785828601611c15565b9250506020611d6885828601611d20565b9150509250929050565b5f80fd5b5f80fd5b7f4e487b71000000000000000000000000000000000000000000000000000000005f52604160045260245ffd5b611db082611ae1565b810181811067ffffffffffffffff82111715611dcf57611dce611d7a565b5b80604052505050565b5f611de16119db565b9050611ded8282611da7565b919050565b5f67ffffffffffffffff821115611e0c57611e0b611d7a565b5b611e1582611ae1565b9050602081019050919050565b828183375f83830152505050565b5f611e42611e3d84611df2565b611dd8565b905082815260208101848484011115611e5e57611e5d611d76565b5b611e69848285611e22565b509392505050565b5f82601f830112611e8557611e84611d72565b5b8135611e95848260208601611e30565b91505092915050565b5f805f8060808587031215611eb657611eb56119e4565b5b5f611ec387828801611c15565b9450506020611ed487828801611c15565b9350506040611ee587828801611b68565b925050606085013567ffffffffffffffff811115611f0657611f056119e8565b5b611f1287828801611e71565b91505092959194509250565b5f8060408385031215611f3457611f336119e4565b5b5f611f4185828601611c15565b9250506020611f5285828601611c15565b9150509250929050565b7f4e487b71000000000000000000000000000000000000000000000000000000005f52602260045260245ffd5b5f6002820490506001821680611fa057607f821691505b602082108103611fb357611fb2611f5c565b5b50919050565b7f4552433732313a20617070726f76616c20746f2063757272656e74206f776e655f8201527f7200000000000000000000000000000000000000000000000000000000000000602082015250565b5f612013602183611aa9565b915061201e82611fb9565b604082019050919050565b5f6020820190508181035f83015261204081612007565b9050919050565b7f4552433732313a20617070726f76652063616c6c6572206973206e6f7420746f5f8201527f6b656e206f776e6572206f7220617070726f76656420666f7220616c6c000000602082015250565b5f6120a1603d83611aa9565b91506120ac82612047565b604082019050919050565b5f6020820190508181035f8301526120ce81612095565b9050919050565b7f4552433732313a2063616c6c6572206973206e6f7420746f6b656e206f776e655f8201527f72206f7220617070726f76656400000000000000000000000000000000000000602082015250565b5f61212f602d83611aa9565b915061213a826120d5565b604082019050919050565b5f6020820190508181035f83015261215c81612123565b9050919050565b7f4552433732313a20696e76616c696420746f6b656e20494400000000000000005f82015250565b5f612197601883611aa9565b91506121a282612163565b602082019050919050565b5f6020820190508181035f8301526121c48161218b565b9050919050565b7f4552433732313a2061646472657373207a65726f206973206e6f7420612076615f8201527f6c6964206f776e65720000000000000000000000000000000000000000000000602082015250565b5f612225602983611aa9565b9150612230826121cb565b604082019050919050565b5f6020820190508181035f83015261225281612219565b9050919050565b7f4e487b71000000000000000000000000000000000000000000000000000000005f52601160045260245ffd5b5f61229082611b49565b915061229b83611b49565b92508282026122a981611b49565b915082820484148315176122c0576122bf612259565b5b5092915050565b7f57726f6e6720616d6f756e74206f662066756e64732073656e740000000000005f82015250565b5f6122fb601a83611aa9565b9150612306826122c7565b602082019050919050565b5f6020820190508181035f830152612328816122ef565b9050919050565b5f61233982611b49565b915061234483611b49565b925082820190508082111561235c5761235b612259565b5b92915050565b5f81905092915050565b5f61237682611a9f565b6123808185612362565b9350612390818560208601611ab9565b80840191505092915050565b7f7370616365626561725f000000000000000000000000000000000000000000005f82015250565b5f6123d0600a83612362565b91506123db8261239c565b600a82019050919050565b5f819050919050565b6124006123fb82611b49565b6123e6565b82525050565b7f2e6a736f6e0000000000000000000000000000000000000000000000000000005f82015250565b5f61243a600583612362565b915061244582612406565b600582019050919050565b5f61245b828561236c565b9150612466826123c4565b915061247282846123ef565b6020820191506124818261242e565b91508190509392505050565b7f4f776e61626c653a206e6577206f776e657220697320746865207a65726f20615f8201527f6464726573730000000000000000000000000000000000000000000000000000602082015250565b5f6124e7602683611aa9565b91506124f28261248d565b604082019050919050565b5f6020820190508181035f830152612514816124db565b9050919050565b7f4552433732313a207472616e736665722066726f6d20696e636f7272656374205f8201527f6f776e6572000000000000000000000000000000000000000000000000000000602082015250565b5f612575602583611aa9565b91506125808261251b565b604082019050919050565b5f6020820190508181035f8301526125a281612569565b9050919050565b7f4552433732313a207472616e7366657220746f20746865207a65726f206164645f8201527f7265737300000000000000000000000000000000000000000000000000000000602082015250565b5f612603602483611aa9565b915061260e826125a9565b604082019050919050565b5f6020820190508181035f830152612630816125f7565b9050919050565b7f4f776e61626c653a2063616c6c6572206973206e6f7420746865206f776e65725f82015250565b5f61266b602083611aa9565b915061267682612637565b602082019050919050565b5f6020820190508181035f8301526126988161265f565b9050919050565b7f4552433732313a20617070726f766520746f2063616c6c6572000000000000005f82015250565b5f6126d3601983611aa9565b91506126de8261269f565b602082019050919050565b5f6020820190508181035f830152612700816126c7565b9050919050565b5f6060820190508181035f83015261271f8186611af1565b905061272e6020830185611ce2565b61273b6040830184611ce2565b949350505050565b7f4552433732313a207472616e7366657220746f206e6f6e2045524337323152655f8201527f63656976657220696d706c656d656e7465720000000000000000000000000000602082015250565b5f61279d603283611aa9565b91506127a882612743565b604082019050919050565b5f6020820190508181035f8301526127ca81612791565b9050919050565b5f81519050919050565b5f82825260208201905092915050565b5f6127f5826127d1565b6127ff81856127db565b935061280f818560208601611ab9565b61281881611ae1565b840191505092915050565b5f6080820190506128365f830187611bd7565b6128436020830186611bd7565b6128506040830185611ce2565b818103606083015261286281846127eb565b905095945050505050565b5f8151905061287b81611a17565b92915050565b5f60208284031215612896576128956119e4565b5b5f6128a38482850161286d565b91505092915050565b7f4552433732313a206d696e7420746f20746865207a65726f20616464726573735f82015250565b5f6128e0602083611aa9565b91506128eb826128ac565b602082019050919050565b5f6020820190508181035f83015261290d816128d4565b9050919050565b7f4552433732313a20746f6b656e20616c7265616479206d696e746564000000005f82015250565b5f612948601c83611aa9565b915061295382612914565b602082019050919050565b5f6020820190508181035f8301526129758161293c565b905091905056fe68747470733a2f2f657468657265756d2d626c6f636b636861696e2d646576656c6f7065722e636f6d2f323032322d30362d6e66742d74727566666c652d686172646861742d666f756e6472792f6e6674646174612fa2646970667358221220fc9703738b895c05de52000710bee4a96fb3d4a5df16c3938da14f3b66f9ff9a64736f6c63430008150033",
  "immutableReferences": {},
  "source": "// SPDX-License-Identifier: MIT\r\npragma solidity 0.8.21;\r\n\r\nimport \"@openzeppelin/contracts/token/ERC721/ERC721.sol\";\r\nimport \"@openzeppelin/contracts/access/Ownable.sol\";\r\nimport \"@openzeppelin/contracts/utils/Counters.sol\";\r\n\r\nimport \"@ganache/console.log/console.sol\";\r\n\r\ncontract Spacebear is ERC721, Ownable {\r\n  using Counters for Counters.Counter;\r\n\r\n  Counters.Counter private _tokenIdCounter;\r\n\r\n  constructor() ERC721(\"Spacebear\", \"SBT\") {}\r\n\r\n  function _baseURI() internal pure override returns (string memory) {\r\n    return\r\n      \"https://ethereum-blockchain-developer.com/2022-06-nft-truffle-hardhat-foundry/nftdata/\";\r\n  }\r\n\r\n  function buyToken() public payable {\r\n    uint256 tokenId = _tokenIdCounter.current();\r\n\r\n    console.log(\"got here\", tokenId, msg.value);\r\n\r\n    require(msg.value == tokenId * 0.1 ether, \"Wrong amount of funds sent\");\r\n\r\n    _tokenIdCounter.increment();\r\n\r\n    _safeMint(msg.sender, tokenId);\r\n  }\r\n\r\n  function safeMint(address to) public onlyOwner {\r\n    uint256 tokenId = _tokenIdCounter.current();\r\n    _tokenIdCounter.increment();\r\n    _safeMint(to, tokenId);\r\n  }\r\n\r\n  // The following functions are overrides required by Solidity.\r\n\r\n  function _burn(uint256 tokenId) internal override(ERC721) {\r\n    super._burn(tokenId);\r\n  }\r\n\r\n  function tokenURI(\r\n    uint256 tokenId\r\n  ) public pure override(ERC721) returns (string memory) {\r\n    return\r\n      string(\r\n        abi.encodePacked(_baseURI(), \"spacebear_\", (tokenId + 1), \".json\")\r\n      );\r\n  }\r\n\r\n  function supportsInterface(\r\n    bytes4 interfaceId\r\n  ) public view override(ERC721) returns (bool) {\r\n    return super.supportsInterface(interfaceId);\r\n  }\r\n}\r\n",
  "sourcePath": "/mnt/d/Web3-Sodidity-Ethereum/nft-project/truffle/contracts/Spacebear.sol",
  "compiler": {
    "name": "solc",
    "version": "0.8.21+commit.d9974bed.Emscripten.clang"
  },
  "schemaVersion": "3.4.16",
  "updatedAt": "2023-09-28T07:40:28.058Z",
  "networkType": "ethereum",
  "devdoc": {
    "events": {
      "Approval(address,address,uint256)": {
        "details": "Emitted when `owner` enables `approved` to manage the `tokenId` token."
      },
      "ApprovalForAll(address,address,bool)": {
        "details": "Emitted when `owner` enables or disables (`approved`) `operator` to manage all of its assets."
      },
      "Transfer(address,address,uint256)": {
        "details": "Emitted when `tokenId` token is transferred from `from` to `to`."
      }
    },
    "kind": "dev",
    "methods": {
      "approve(address,uint256)": {
        "details": "See {IERC721-approve}."
      },
      "balanceOf(address)": {
        "details": "See {IERC721-balanceOf}."
      },
      "getApproved(uint256)": {
        "details": "See {IERC721-getApproved}."
      },
      "isApprovedForAll(address,address)": {
        "details": "See {IERC721-isApprovedForAll}."
      },
      "name()": {
        "details": "See {IERC721Metadata-name}."
      },
      "owner()": {
        "details": "Returns the address of the current owner."
      },
      "ownerOf(uint256)": {
        "details": "See {IERC721-ownerOf}."
      },
      "renounceOwnership()": {
        "details": "Leaves the contract without owner. It will not be possible to call `onlyOwner` functions. Can only be called by the current owner. NOTE: Renouncing ownership will leave the contract without an owner, thereby disabling any functionality that is only available to the owner."
      },
      "safeTransferFrom(address,address,uint256)": {
        "details": "See {IERC721-safeTransferFrom}."
      },
      "safeTransferFrom(address,address,uint256,bytes)": {
        "details": "See {IERC721-safeTransferFrom}."
      },
      "setApprovalForAll(address,bool)": {
        "details": "See {IERC721-setApprovalForAll}."
      },
      "supportsInterface(bytes4)": {
        "details": "See {IERC165-supportsInterface}."
      },
      "symbol()": {
        "details": "See {IERC721Metadata-symbol}."
      },
      "tokenURI(uint256)": {
        "details": "See {IERC721Metadata-tokenURI}."
      },
      "transferFrom(address,address,uint256)": {
        "details": "See {IERC721-transferFrom}."
      },
      "transferOwnership(address)": {
        "details": "Transfers ownership of the contract to a new account (`newOwner`). Can only be called by the current owner."
      }
    },
    "version": 1
  },
  "userdoc": {
    "kind": "user",
    "methods": {},
    "version": 1
  }
}